:020000040800F2
:1000000000040020010300080104000801040008A6
:1000100001040008010400080104000801040008AC
:10002000010400080104000801040008510400084C
:10003000010400080104000801040008210400086C
:10004000010400080104000801040008010400087C
:10005000010400080104000801040008010400086C
:100060000104000801040008010400082138000808
:1000700071380008C13800081139000861390008DA
:10008000B1390008013A000801040008E1590008EC
:10009000015A0008215A0008415A000801040008CA
:1000A000010400080104000801040008010400081C
:1000B000010400080104000801040008010400080C
:1000C00001040008010400080104000801040008FC
:1000D000010400081142000801040008414300081F
:1000E00001040008010400080104000801040008DC
:1000F00001040008010400080104000801040008CC
:1001000001040008010400080104000801040008BB
:1001100001040008010400080104000801040008AB
:10012000513A0008A13A0008F13A0008413B0008A2
:10013000913B0008010400080104000801040008C4
:10014000010400080104000801040008010400087B
:10015000010400080104000801040008010400086B
:100160000104000801040008D1460008E146000827
:10017000010400080104000801040008010400084B
:0801800001040008010400085D
:0C01880081980008D1E50008B1E90008EA
:1001A000844641EA000313F003036DD1403A41D382
:1001B00051F8043B40F8043B51F8043B40F8043B41
:1001C00051F8043B40F8043B51F8043B40F8043B31
:1001D00051F8043B40F8043B51F8043B40F8043B21
:1001E00051F8043B40F8043B51F8043B40F8043B11
:1001F00051F8043B40F8043B51F8043B40F8043B01
:1002000051F8043B40F8043B51F8043B40F8043BF0
:1002100051F8043B40F8043B51F8043B40F8043BE0
:1002200051F8043B40F8043B51F8043B40F8043BD0
:10023000403ABDD2303211D351F8043B40F8043B70
:1002400051F8043B40F8043B51F8043B40F8043BB0
:1002500051F8043B40F8043B103AEDD20C3205D380
:1002600051F8043B40F8043B043AF9D2043208D078
:10027000D2071CBF11F8013B00F8013B01D30B88EA
:1002800003806046704700BF082A13D38B078DD0C8
:1002900010F003038AD0C3F10403D21ADB071CBF9A
:1002A00011F8013B00F8013B80D331F8023B20F804
:1002B000023B7BE7043AD9D3013A11F8013B00F83D
:1002C000013BF9D20B7803704B7843708B788370C5
:1002D00060467047000000000000000000000000C1
:1002E000704700BFAFF30080AFF30080AFF3008032
:1002F000FEE700BFAFF30080AFF30080AFF30080F4
:1003000072B62C4C84F309882B4B4FF040421A6094
:100310002A4B2A4A126842F470021A600024E1EE65
:10032000104A274B1C60062484F31488BFF36F8F98
:10033000244C254D04E023461C1D4FF055321A6015
:10034000AC42F8D3214C1B4D04E023461C1D4FF05A
:1003500055321A60AC42F8D305F012FD1C4D1D4C0D
:1003600005E023461C1D2A46151D12681A601A4B0B
:100370009C42F6D3194C1A4D03E023461C1D002263
:100380001A60AC42F9D3FFF7ABFF164C02E02368CA
:1003900098470434144B9C42F9D30EF099F9134C4E
:1003A00002E0236898470434114B9C42F9D3FFF7CD
:1003B0009FFF00BF0008002034EF00E088ED00E060
:1003C0003CEF00E0000000200004002000040020BA
:1003D000280C0108000800205410002058100020AC
:1003E000F02C002088010008940100089401000806
:1003F00094010008AFF30080AFF30080AFF30080FA
:10040000FEE700BFAFF30080AFF30080AFF30080E2
:1004100072B6FEE7AFF30080AFF30080AFF3008069
:1004200008B500F05DFA202383F3118800F028FA64
:1004300000F06EF900F03CFA002383F3118800F01D
:100440006FFA00F035F808BDAFF30080AFF300801D
:1004500082B00A4B094A526822F001025A60EFF357
:1004600009830193019B68330193019B83F30988FE
:10047000002383F3118802B0704700BF30EF00E023
:1004800008B5094B00229A60074B084ADA6007203A
:10049000102100F0C5F80A20202100F0C1F80B203F
:1004A000802100F0BDF808BD00ED00E00003FA0572
:1004B00082B0202383F31188204B5B6803F4006330
:1004C000002B35D0F1EE10FAEFF309830193019B75
:1004D000683B0193019B4FF08072DA61019B83F3CB
:1004E0000988174B9B6993F82330002B0BD0144BD2
:1004F0001B689A68124B9B699B689A4294BF0023C1
:100500000123DBB20AE00E4B1B689A680C4B9B6917
:100510009B689A4234BF00230123DBB2002B03D037
:10052000019B084A9A6106E0019B074A9A6102E032
:10053000002383F3118802B0704700BF00ED00E094
:1005400030160020510500085C050008AFF300805C
:1005500000F066F900F02CFD00F07AF900DF00BF32
:1005600003460A462DE9F04F2DED108AC2F80CD053
:10057000D3F80CD0BDEC108ABDE8F08FAFF300804B
:1005800008B500F065F9002383F311882846A047D9
:1005900000F066FE08BD00BFAFF30080AFF300803F
:1005A00010B485B001900091019B03F00303DB00C0
:1005B0000393194B019A9208174901988008C0309B
:1005C00051F820000399FF2404FA01F1C9430840BF
:1005D0000399009C04FA01F10143C03243F8221050
:1005E0000D4B019A5209019901F01F01012000FAF7
:1005F00001F1603243F82210074B019A5209019928
:1006000001F01F01012000FA01F143F8221005B0AA
:100610005DF8044B704700BF00E100E0AFF30080DD
:1006200010B485B001900091019B03F00303DB003F
:1006300003930D4B019A92080B49019880080630EC
:1006400051F820000399FF2404FA01F1C94308403E
:100650000399009C04FA01F10143063243F8221089
:1006600005B05DF8044B704700ED00E0AFF300808B
:1006700082B00190024B9B69024A9A61FEE700BF7B
:100680003016002010F90008AFF30080AFF30080AF
:1006900000B583B0FFF7F4FE00F0B2FA00F0E8F91D
:1006A00001F0F6FB01F04CFC00F08AF91248402101
:1006B00000F09EFC0246114B9A61104B9B6901228F
:1006C00083F820200D4B9B690D4ADA6100F090F809
:1006D000002383F3118862B6084B9B69094A9A612B
:1006E0000023009308484FF4B4710122074B00F037
:1006F00027FD03B05DF804FBC01100203016002078
:100700000004002030030108581000207106000882
:1007100000B583B000F024F9244B9B6993F8233093
:10072000002B07D0214B9B6993F82320013AD2B2CA
:1007300083F823201D4B9B695A6A01325A621C4B75
:10074000DB685A1C1A4BDA60194B1A68184B9A422C
:1007500029D0174B1B689A68013A9A601CE0019BEC
:10076000DB680093019B0022DA60019B1B68104A42
:100770005A60019B1A680E4B1A6000F099F800232A
:1007800083F31188019B1A69009B10469847202328
:1007900083F3118800F074F8054B1B680193019BEB
:1007A0009B68002BDBD003B05DF804FB3016002003
:1007B00020160020AFF30080AFF30080AFF300807D
:1007C00008B5064B1B68002B03D1054B1B68002B9B
:1007D00002D0044800F03CF908BD00BF0C12002014
:1007E0001012002020F90008AFF30080AFF3008062
:1007F00008B5064B1B68002B03D1054B1B68002B6B
:1008000002D0044800F024F908BD00BF0C120020FB
:100810001012002030F90008AFF30080AFF3008021
:1008200008B5074B1B68002B03D1064B1B68002B38
:1008300002D0054800F00CF9024B01221A6008BDF5
:100840000C1200201012002038F90008AFF30080CD
:1008500008B5074B1B68002B03D1064B1B68002B08
:1008600002DC054800F0F4F8024B00221A6008BDD3
:100870000C1200201012002040F90008AFF3008095
:1008800008B5074B1B68002B03DD064B1B68002BCC
:1008900002D0054800F0DCF8024B01221A6008BDC6
:1008A0000C1200201012002048F90008AFF300805D
:1008B00008B5074B1B68002B03DD064B1B68002B9C
:1008C00002DC054800F0C4F8024B00221A6008BDA3
:1008D0000C1200201012002050F90008AFF3008025
:1008E00008B5202383F31188094B1B68002B03DB19
:1008F000084B1B68002B02D0074800F0A9F8044BF6
:100900001B685A1C024B1A60002383F3118808BD30
:100910000C1200201012002058F90008AFF30080DC
:1009200008B5202383F31188094B1B68002B03DDD6
:10093000084B1B68002B02D0074800F089F8044BD5
:100940001B685A1E024B1A60002383F3118808BDEE
:100950000C1200201012002060F90008AFF3008094
:1009600008B5064B1B68002B03DB054B1B68002BEF
:1009700002DC044800F06CF808BD00BF0C12002037
:100980001012002068F90008AFF30080AFF3008078
:1009900008B5064B1B68002B03D1054B1B68002BC9
:1009A00002DC044800F054F808BD00BF0C1200201F
:1009B0001012002070F90008AFF30080AFF3008040
:1009C000034B40221A60024B024A5A60704700BF34
:1009D000141200201C120020AFF30080AFF300803F
:1009E00082B00190124B5B68124AD2681A60104BB9
:1009F0005B68114A92695A600D4B5B68019A926A72
:100A00009A600B4B5B68019A92F820201A73084B8E
:100A10005B6803F11002064B5A60054B5A68074B9E
:100A20009A4202D3024B064A5A6002B0704700BF96
:100A30001412002020160020301600201C16002062
:100A40001C120020AFF30080AFF30080AFF30080F2
:100A500000B583B00190044B019A1A60FFF7D8FCEF
:100A600003B05DF804FB00BF1C160020AFF300804C
:100A7000074B074A5A60064B5A68054B1A60044BED
:100A80004FF0FF329A60024B0022DA60704700BFDD
:100A900020160020AFF30080AFF30080AFF300809A
:100AA00000B587B00390029101920093FFF758FFC1
:100AB000039B002B05D0019B002B02D0029B002B37
:100AC00002D11D48FFF7C4FF039B009A1A61039BE4
:100AD000019ADA60194B1B68059307E0059B9B6838
:100AE000029AD31A0293059B1B680593059B9A688B
:100AF000029B9A42F2D3039B059A1A60039B1B68E0
:100B00005A68039B5A60039B5B68059A039951607E
:100B1000059A52681A60039B029A9A60059A074BDD
:100B20009A4205D0059B9A68029BD21A059B9A604F
:100B300007B05DF804FB00BF80F900082016002014
:100B400000B583B00190FFF70BFF019B002B02D192
:100B50001348FFF77DFF019BDB68002B02D1114892
:100B6000FFF776FF019B1A680F4B9A4208D0019B52
:100B70001B68019A12689168019A92680A449A6007
:100B8000019B5B68019A12681A60019B1B68019ABD
:100B900052685A60019B0022DA6003B05DF804FBE2
:100BA00090F90008A0F9000820160020AFF300809B
:100BB00084B00190019B1B680393039B1A68019BFF
:100BC0001A60019B1B68019A5A60039B184604B087
:100BD000704700BFAFF30080AFF30080AFF3008039
:100BE00082B00190019B5B68019A12681A60019BB8
:100BF0001B68019A52685A60019B184602B0704700
:100C0000084B084A5A60074B5A68064B1A60054B56
:100C100000229A60034B034A5A61024B5A69014B06
:100C20001A61704730160020AFF30080AFF30080E8
:100C300000B585B00190FFF793FE019B93F820303B
:100C4000002B04D0019B93F820300E2B02D11348C7
:100C5000FFF7FEFE019B002283F82020104B039338
:100C6000039B1B680393039B9A68019B9B689A42B2
:100C7000F6D2019B039A1A60039B5A68019B5A6043
:100C8000019B5B68039A01995160039A52681A604C
:100C9000019B184605B05DF804FB00BFC0F90008D1
:100CA00030160020AFF30080AFF30080AFF3008078
:100CB00000B585B003468DF80730FFF769FE164B87
:100CC0009B690393039B9DF8072083F82020039BD7
:100CD000142283F823201048FFF76AFF02460E4BC8
:100CE0009A610D4B9B69012283F820200398FFF73E
:100CF00077FE6B46A3F16402039BDB699A4202D242
:100D00000648FFF7A5FE044B9B6918460399FFF7B9
:100D100027FC05B05DF804FB30160020D4F900086C
:100D200000B585B00190019B0393202383F31188C4
:100D3000FFF7A6FD039B93F820300D2B2CD801A2C2
:100D400052F823F07D0D0008990D0008990D000858
:100D5000890D0008990D0008930D0008990D0008F1
:100D6000990D0008990D0008990D0008990D0008CB
:100D7000990D0008990D0008930D0008FFF798FDE4
:100D8000002383F3118813E0039B9B6A9A68013266
:100D90009A600398FFF724FF039B4FF0FF329A629B
:100DA0000398FFF745FFFFF783FD002383F31188C6
:100DB00005B05DF804FB00BFAFF30080AFF3008027
:100DC00000B589B0034600918DF80730FFF7E0FDCC
:100DD000009BB3F1FF3F15D0104B9B6903AA10464F
:100DE00000990F4AFFF75CFE9DF807301846FFF7A1
:100DF0005FFF069B002B04D003AB1846FFF7A0FE55
:100E000005E004E09DF807301846FFF751FF034B5B
:100E10009B699B6A184609B05DF804FB30160020F8
:100E2000210D0008AFF30080AFF30080AFF3008026
:100E300000B585B001900091FFF7AAFD019B009AD3
:100E40009A62019B9A68154B9B699B689A4203D8EA
:100E50000198FFF7EDFE1DE0104B9B691846FFF768
:100E6000E7FE03900D4B019A9A61019B012283F8E2
:100E700020200398FFF7B4FD6B46A3F16402039BA7
:100E8000DB699A4202D20648FFF7E2FD0198039916
:100E9000FFF766FB05B05DF804FB00BF30160020CD
:100EA000D4F90008AFF30080AFF30080AFF3008007
:100EB00000B583B0154B9B6901931448FFF778FE8A
:100EC0000246124B9A61114B9B69012283F8202044
:100ED000019B142283F823200198FFF7A9FE0198B3
:100EE000FFF77EFD6B46A3F16402019BDB699A422A
:100EF00002D20748FFF7ACFD044B9B6918460199E5
:100F0000FFF72EFB03B05DF804FB00BF3016002096
:100F1000D4F90008AFF30080AFF30080AFF3008096
:100F200000B583B0204B9B6900931F48FFF740FE3C
:100F300002461D4B9A611C4B9B69012283F82020BD
:100F4000009B002283F82020174B0193019B1B6814
:100F50000193019B9A68009B9B689A42F6D8009B7C
:100F6000019A1A60019B5A68009B5A60009B5B685B
:100F7000019A00995160019A52681A600098FFF72F
:100F80002FFD6B46A3F16402009BDB699A4202D2FB
:100F90000648FFF75DFD044B9B6918460099FFF773
:100FA000DFFA03B05DF804FB30160020D4F9000826
:100FB00008B5064B9B6993F82330002B02D1FFF74D
:100FC00077FF01E0FFF7ACFF08BD00BF301600203F
:100FD00084B00190019B1B680393039B1A68019BDB
:100FE0001A60039B184604B0704700BFAFF300803F
:100FF00082B001900091019B009A9A60019B0222AD
:1010000083F82020019B002283F82120019B1422D9
:1010100083F82320019B009A5A64019B00221A64E2
:10102000019B0022DA63019B00225A62019B01228C
:1010300083F82220019B00229A61019B124A1A61C7
:10104000114B5A69019B5A61019B5B690E4A0199D8
:1010500051610D4A52691A61019B03F12C02019BF7
:10106000DA62019B03F13002019B5A63019B5A6BC8
:10107000019B1A63019B03F14C02019BDA61019B06
:10108000184602B0704700BF30160020AFF3008052
:1010900084B00390029113468DF8073005E0039B5E
:1010A0005A1C03929DF807201A70039A029B9A42D9
:1010B000F5D304B0704700BFAFF30080AFF30080FA
:1010C00000B587B00390029101920093039B0593B2
:1010D000FFF746FC039B002B09D0029BB3F5AC7FC6
:1010E00005D3019B7F2B02D8009B002B02D10F4818
:1010F000FFF7AEFC029B643B039A1A44059BDA603F
:10110000059BDB68009A1A64059BDB68089A5A64A1
:10111000059BDB68064A1A6605980199FFF768FF88
:101120000346184607B05DF804FB00BFF0F900085D
:1011300081050008AFF30080AFF30080AFF30080BB
:1011400000B589B00590049103920293059B4C333E
:1011500005981946FF22FFF79BFF059B03F14C0200
:101160000599049B0B44104619465522FFF790FF42
:10117000202383F31188FFF753FB0A9B0093059804
:101180000499039A029BFFF79BFF079007980021A1
:10119000FFF74EFEFFF75CFB002383F31188079BEC
:1011A000184609B05DF804FBAFF30080AFF3008090
:1011B00000B583B00190019B002B02D10948FFF7D5
:1011C00047FC202383F31188FFF72AFB06200199AF
:1011D000FFF7F6FDFFF73CFB002383F3118803B014
:1011E0005DF804FB30FA0008AFF30080AFF3008035
:1011F00000B583B00190202383F31188FFF710FB23
:10120000094BDB68019AD31A0193019B002B03D091
:1012100006200199FFF7D4FDFFF71AFB002383F3A3
:10122000118803B05DF804FB20160020AFF30080A6
:1012300008B5202383F31188FFF7F2FA074B1B68E8
:101240009A68064B9B699B689A4201D3FFF730FE70
:10125000FFF7FEFA002383F3118808BD3016002043
:1012600000B583B00190202383F31188FFF7D8FAEB
:10127000019800F005F803B05DF804FBAFF30080BF
:1012800000B585B00190184B9B690393039B019AAD
:101290009A6208E0039B2C331846FFF799FE034639
:1012A0001846FFF7C5FC039BDA6A039B2C339A426E
:1012B000F0D1039B93F8213003F00303002B09D1F5
:1012C000039B5B69039A12691A61039B1B69039A6A
:1012D00052695A610E20FFF7EBFC0448FFF7B8FB98
:1012E00005B05DF804FB00BF3016002040FA00088E
:1012F00000B589B005900491039202930598049972
:1013000000F036FE0790079B002B01D100232DE053
:10131000079B4C3307981946FF22FFF7B9FE079B3E
:1013200003F14C020799049B0B44104619465522C1
:10133000FFF7AEFE202383F31188FFF771FA0A9BB3
:10134000009307980499039A029BFFF7B9FE069051
:10135000069B012283F8212006980021FFF768FDF3
:10136000FFF776FA002383F31188069B184609B02D
:101370005DF804FBAFF30080AFF30080AFF30080B3
:1013800084B001900091009B0393039B1B6803931F
:10139000039A009B9A4205D0039B9A68019B9B6825
:1013A0009A42F2D2019B039A1A60039B5A68019BEE
:1013B0005A60019B5B68039A01995160039A5268D5
:1013C0001A6004B0704700BFAFF30080AFF3008035
:1013D00084B00190019B1B680393039B1A68019BD7
:1013E0001A60019B1B68019A5A60039B184604B05F
:1013F000704700BFAFF30080AFF30080AFF3008011
:1014000082B00190019B5B68019A12681A60019B8F
:101410001B68019A52685A60019B184602B07047D7
:1014200000B583B00190019B002B02D10748FFF764
:101430000FFB019A019B5A60019B5A68019B1A603D
:10144000019B00229A6003B05DF804FB90FA00084B
:1014500000B583B00190202383F31188FFF7E0F9F2
:10146000019800F00DF8FFF7F3F9002383F31188DA
:1014700003B05DF804FB00BFAFF30080AFF3008062
:1014800000B585B001903C4B9B690293FFF780FA51
:10149000019B002B02D13948FFF7DAFA019B9B68C8
:1014A000002B5BD0019B9B68039334E0029B9A68FE
:1014B000039B9A60039B93F82030042B04D0052BE8
:1014C00011D0002B1AD02CE00398FFF799FF0246A9
:1014D000039B9B6A10461946FFF752FF039B9B6ACA
:1014E0009B68039317E00398FFF78AFF0246039B6C
:1014F0009B6A10461946FFF743FF0BE0039B01224E
:1015000083F820200398FFF77BFF03461846FFF778
:101510008FFB00BF05E0039B9A68029B9B689A4281
:10152000C4D3019B02981946FFF72AFF029B019A38
:101530009A620420FFF7BCFB019B9A68029B9A42C7
:1015400002D00F48FFF784FA029B1A6C019B9A4263
:1015500003D00C48FFF77CFA0AE009E0019B029AED
:101560009A60029B1A6C019BDA60029B019A1A64D2
:1015700005B05DF804FB00BF30160020A0FA00089B
:10158000B0FA0008C4FA0008AFF30080AFF300809F
:1015900000B587B0314B9B690393202383F31188F7
:1015A000FFF73EF9039B1B6C002B02D12C48FFF781
:1015B0004FFA039B1B6C9A68039B9A4202D02948FE
:1015C000FFF746FA039B1B6C0293029BDA68039BAE
:1015D0001A64029B1A68029B9A4232D0039B5B6C8E
:1015E0000493039B1B6C059311E0059B1A68059BF4
:1015F0009A4209D0059B1B689A68049B9A4203D9BA
:10160000059B1B689B680493059BDB680593059B02
:10161000002BEAD1039B049A9A60029B1846FFF7BD
:10162000D7FE0190029B019A9A60019B1A6C029B63
:10163000DA60019B029A1A6401980021FFF7F8FB17
:1016400002E0029B00229A60FFF702F9002383F375
:101650001188029B184607B05DF804FB3016002085
:10166000ECFA000800FB0008AFF30080AFF3008045
:1016700000B587B02D4B9B690393FFF789F9039B56
:101680001B6C002B02D12A48FFF7E2F9039B1B6C6D
:101690009A68039B9A4202D02648FFF7D9F9039B28
:1016A0001B6C0293029BDA68039B1A64029B1A6804
:1016B000029B9A4231D0039B5B6C0493039B1B6C8F
:1016C000059311E0059B1A68059B9A4209D0059B7A
:1016D0001B689A68049B9A4203D9059B1B689B6808
:1016E0000493059BDB680593059B002BEAD1039BC4
:1016F000049A9A60029B1846FFF76AFE0190029BCB
:10170000019A9A60019B1A6C029BDA60019B029A13
:101710001A640198FFF78CFA02E0029B00229A609B
:10172000029B184607B05DF804FB00BF301600208E
:1017300014FB000828FB0008AFF30080AFF3008023
:1017400000B585B001900091FFF70AF9019B002BCD
:1017500002D10F48FFF77CF9019B1B68039310E04F
:10176000039BDA68009B1A43039BDA60039B5A6869
:10177000039B9B681046194600F012F8039B1B68F8
:101780000393039A019B9A42EAD105B05DF804FBEA
:101790006CFB0008AFF30080AFF30080AFF3008074
:1017A00000B583B001900091FFF7DAF8019B002BA0
:1017B00002D11648FFF74CF9019BDA6B009B1A43E4
:1017C000019BDA63019B93F82030082B06D1019B23
:1017D000DA6B019B9B6A1340002B0DD1019B93F8A0
:1017E0002030092B0ED1019BDA6B019B9B6A1A40BA
:1017F000019B9B6A9A4205D10198FFF719FA0346AB
:1018000000229A6203B05DF804FB00BF94FB00085D
:1018100000B585B001900091204B9B690293202375
:1018200083F31188FEF7FCFF029BDA6B019B1340E8
:101830000393039B002B1FD1009B002B06D1FFF7C6
:1018400007F8002383F31188002322E0029B019A0A
:101850009A6208200099FFF7B3FA0346002B06DAD4
:10186000FEF7F6FF002383F31188002311E0029BAB
:10187000DA6B019B13400393029BDA6B039BDB4300
:101880001A40029BDA63FEF7E3FF002383F311881B
:10189000039B184605B05DF804FB00BF301600201E
:1018A00082B001900091019B009A1A60009B5A68D7
:1018B000019B5A60019B5B68009A01995160009AF4
:1018C00052681A6002B07047AFF30080AFF3008037
:1018D00084B00190019B1B680393039B1A68019BD2
:1018E0001A60019B1B68019A5A60039B184604B05A
:1018F000704700BFAFF30080AFF30080AFF300800C
:1019000000B583B001900091009B002B02D14FF0F5
:10191000FF330FE0094B9B69019A9A62074B9A6962
:10192000019B10461946FFF7BBFF0D200099FFF7FA
:1019300047FA0346184603B05DF804FB3016002052
:1019400084B00390029101920093039A039B5A6022
:10195000039B5A68039B1A60039B00229A60039BB7
:10196000029A5A61039B5A69039B9A61039B9A6985
:10197000039BDA60029A019B1A44039B1A61039B42
:10198000009ADA61039B049A1A6204B0704700BFA0
:1019900000B583B00190FEF7E3FF019BDA68019B7D
:1019A0005A61019B5A69019B9A61019B00229A60CE
:1019B0000BE0019B1846FFF78BFF03461846FFF725
:1019C00037F903466FF001029A62019B1A68019B86
:1019D0009A42EED103B05DF804FB00BFAFF3008084
:1019E00000B583B001900B468DF80330FEF7B8FFC9
:1019F000019B5A69019B9B699A4205D1019B9B6897
:101A0000002B01D0012300E0002303F00103DBB22F
:101A1000002B02D06FF0030327E0019B9B685A1C48
:101A2000019B9A60019B5B69591C019A51619DF869
:101A300003201A70019B5A69019B1B699A4203D3C8
:101A4000019BDA68019B5A61019B1A68019B9A42CB
:101A50000AD0019B1846FFF73BFF03461846FFF7E5
:101A6000E7F8034600229A620023184603B05DF8A7
:101A700004FB00BFAFF30080AFF30080AFF3008042
:101A800000B585B001900091202383F31188FEF703
:101A9000C7FE019BDB69002B04D0019BDB69019829
:101AA00098470FE00EE001980099FFF729FF039097
:101AB000039B002B06DAFEF7CBFE002383F311888D
:101AC000039B21E0019B9B68002BECD0019B9B6852
:101AD0005A1E019B9A60019B9B69591C019A916156
:101AE0001B788DF80B30019B9A69019B1B699A4208
:101AF00003D3019BDA68019B9A61FEF7A9FE0023DC
:101B000083F311889DF80B30184605B05DF804FB8F
:101B100000B587B00390029101920093039BDB69AB
:101B2000049300230593019B002B02D12A48FEF762
:101B30008FFF202383F31188FEF772FE049B002B96
:101B400003D0049B039898470EE00DE0039800999A
:101B5000FFF7D6FE0346002B06D0FEF779FE0023E2
:101B600083F31188059B32E0039B9B68002BEDD02B
:101B7000039B9B685A1E039B9A60029B5A1C02920D
:101B8000039A9269501C0399886112781A70039B1A
:101B90009A69039B1B699A4203D3039BDA68039BF0
:101BA0009A61FEF755FE002383F31188059B0133EC
:101BB0000593019B013B0193019B002B01D1059BE8
:101BC00005E0202383F31188FEF72AFEB6E71846C6
:101BD00007B05DF804FB00BFD0FB0008AFF3008046
:101BE00084B00390029101920093039A039B5A6080
:101BF000039B5A68039B1A60039B019A9A60039B9C
:101C0000029A5A61039B5A69039B9A61039B9A69E2
:101C1000039BDA60029A019B1A44039B1A61039B9F
:101C2000009ADA61039B049A1A6204B0704700BFFD
:101C300000B583B00190FEF793FE019BDA68019B2B
:101C40005A61019B5A69019B9A61019B1B691A4663
:101C5000019BDB68D31A1A46019B9A600BE0019B3B
:101C60001846FFF735FE03461846FEF7E1FF034628
:101C70006FF001029A62019B1A68019B9A42EED1B1
:101C800003B05DF804FB00BFAFF30080AFF300804A
:101C900000B587B003900B4601928DF80B302023DE
:101CA00083F31188FEF7BCFD0EE003980199FFF75E
:101CB00027FE0590059B002B06DAFEF7C9FD0023E1
:101CC00083F31188059B28E0039B9B68002BECD0D5
:101CD000039B9B685A1E039B9A60039B5B69591C7C
:101CE000039A51619DF80B201A70039B5A69039B5C
:101CF0001B699A4203D3039BDA68039B5A61039BD7
:101D0000DB69002B03D0039BDB6903989847FEF740
:101D10009FFD002383F311880023184607B05DF868
:101D200004FB00BFAFF30080AFF30080AFF300808F
:101D300000B585B00190FEF713FE019B5A69019B27
:101D40009B699A4205D1019B9B68002B01D001231E
:101D500000E0002303F00103DBB2002B02D06FF0A0
:101D6000020328E0019B9B685A1C019B9A60019B1F
:101D70009B69591C019A91611B788DF80F30019B6A
:101D80009A69019B1B699A4203D3019BDA68019B04
:101D90009A61019B1A68019B9A420AD0019B1846DE
:101DA000FFF796FD03461846FEF742FF0346002262
:101DB0009A629DF80F30184605B05DF804FB00BF2D
:101DC00000B587B00390029101920093039BDB69F9
:101DD000049300230593019B002B02D12A48FEF7B0
:101DE00037FE202383F31188FEF71AFD0DE00398D8
:101DF0000099FFF785FD0346002B06D0FEF728FD6E
:101E0000002383F31188059B39E0039B9B68002B1B
:101E1000EDD0039B9B685A1E039B9A60039B5B69F2
:101E2000591C039A5161029A511C029112781A703E
:101E3000039B5A69039B1B699A4203D3039BDA688D
:101E4000039B5A61049B002B02D0049B0398984784
:101E5000FEF7FEFC002383F31188059B01330593F5
:101E6000019B013B0193019B002B01D1059B06E0E7
:101E7000202383F31188FEF7D3FC00BFC5E7184683
:101E800007B05DF804FB00BFE4FB0008AFF300807F
:101E9000064B073323F007031A46054B1A60054B20
:101EA00023F007031A46044B1A607047F02C0020F9
:101EB0004C16002000A0002050160020AFF3008038
:101EC00000B585B00190202383F31188FEF7A8FCAC
:101ED000019800F00DF80390FEF7BAFC002383F39D
:101EE0001188039B184605B05DF804FBAFF3008032
:101EF00000B585B00190FEF733FD019B073323F059
:101F0000070301930C4B1B681A460C4B1B68D31A32
:101F10001A46019B9A4201D2002309E0074B1B6835
:101F20000393064B1A68019B1A44044B1A60039BE7
:101F3000184605B05DF804FB501600204C16002032
:101F400008B5064B064A1A60044B00229A60034B00
:101F50000022DA600348FFF763FA08BD5816002034
:101F6000C11E000868160020AFF30080AFF30080A8
:101F700000B587B001900091019B002B01D1344B3B
:101F80000193009B073323F007030093019B083361
:101F90000593019B10331846FFF75AFA33E0059B6F
:101FA0001B680493049B5A68009B9A4229D3049BA4
:101FB0005A68009B08339A4204D2049B1A68059B16
:101FC0001A6016E0009B0833049A13440393049BA1
:101FD0001A68039B1A60049B5A68009BD31AA3F1EA
:101FE0000802039B5A60059B039A1A60049B009A9F
:101FF0005A60049B019A1A60FFF7CAFA049B0833DF
:1020000021E0049B0593059B1B68002BC7D1FFF7BC
:10201000BFFA019B1B68002B14D0019B1B68009A20
:102020000832104698470490049B002B0AD0049B6A
:10203000019A1A60049B009A5A60049B0833049327
:10204000049B00E00023184607B05DF804FB00BFC6
:1020500058160020AFF30080AFF30080AFF300808C
:1020600000B587B00190019B002B02D13948FEF7E3
:10207000EFFC019B083B0493049B1B680393039BA9
:1020800008330593039B10331846FFF7E1F9049AD0
:10209000059B9A420AD3059B5B680833059A1A444C
:1020A000049B9A4202D92C48FEF7D2FC039B03F111
:1020B0000802059B9A4203D0049A059B9A423ED996
:1020C000059B1B68002B04D0059B1A68049B9A4251
:1020D00035D9059B1A68049B1A60059B049A1A60FF
:1020E000049B5B680833049A1A44049B1B689A4259
:1020F0000ED1049B5A68049B1B685B68134403F170
:102100000802049B5A60049B1B681A68049B1A60AF
:10211000059B5B680833059A1A44049B9A420DD1CB
:10212000059B5A68049B5B68134403F10802059BF6
:102130005A60049B1A68059B1A6004E003E0059B43
:102140001B680593A3E7FFF723FA00BF07B05DF80C
:1021500004FB00BF10FC000820FC0008AFF3008067
:1021600000B585B0039002910192039B002B02D031
:10217000029B032B02D80748FEF76AFC039B002250
:102180001A60039B029A5A60039B019A9A6005B0F9
:102190005DF804FB40FC0008AFF30080AFF3008063
:1021A00000B585B0039002910192039B002B02D0F1
:1021B000019B002B03D10B48FEF74AFC0CE00BE01F
:1021C0000398029900F064F8039B5B68029A134439
:1021D0000293019B013B0193019B002BF0D105B0C1
:1021E0005DF804FB50FC0008AFF30080AFF3008003
:1021F00000B585B00190FEF7B3FB019B002B02D127
:102200000F48FEF725FC019B1B680393039B002BE3
:1022100005D0019B1B681A68019B1A600AE0019BAC
:102220009B68002B06D0019B9B68019A5268104660
:1022300098470390039B184605B05DF804FB00BF68
:1022400064FC0008AFF30080AFF30080AFF30080C0
:1022500000B585B001900091009B0393FEF780FBD1
:10226000019B002B02D0009B002B02D10648FEF7F9
:10227000EFFB019B1A68039B1A60019B039A1A608B
:1022800005B05DF804FB00BF78FC0008AFF30080E8
:1022900000B583B001900091202383F31188FEF7ED
:1022A000BFFA01980099FFF7D3FFFEF7D1FA002398
:1022B00083F3118803B05DF804FB00BFAFF3008027
:1022C00008B501F0D5FC094801F0AAFD00F0C8F8F6
:1022D00000F0B6FC00F0D4FC00F0D2FE00F008F8EC
:1022E00000F0AEFA03F054FD08BD00BF8004010801
:1022F000704700BFAFF30080AFF30080AFF3008002
:1023000000B585B0039002910192039B30331846CB
:102310000299019A4FF0FF33FFF752FD034618462A
:1023200005B05DF804FB00BFAFF30080AFF30080A1
:1023300000B585B0039002910192039B0C331846BF
:102340000299019A4FF0FF33FFF7E2FB034618466C
:1023500005B05DF804FB00BFAFF30080AFF3008071
:1023600000B583B001900B468DF80330019B03F15B
:1023700030029DF80330104619464FF0FF32FFF748
:1023800087FC0346184603B05DF804FBAFF30080FA
:1023900000B583B00190019B0C3318464FF0FF311C
:1023A000FFF76EFB0346184603B05DF804FB00BF61
:1023B00000B585B003900B4601928DF80B30039B5E
:1023C00003F130029DF80B3010461946019AFFF7D1
:1023D0005FFC0346184605B05DF804FBAFF30080D0
:1023E00000B583B001900091019B0C331846009911
:1023F000FFF746FB0346184603B05DF804FB00BF39
:1024000000B585B00390029101920093039B303395
:1024100018460299019A009BFFF7D2FC0346184622
:1024200005B05DF804FB00BFAFF30080AFF30080A0
:1024300000B585B00390029101920093039B0C3389
:1024400018460299019A009BFFF762FB0346184663
:1024500005B05DF804FB00BFAFF30080AFF3008070
:1024600008B501F0E5FE08BDAFF30080AFF30080D2
:1024700000B587B0059004910392059B144A1A6039
:10248000059B1A1D059B5A60059B01221A72059B2C
:1024900003F10C02059B543305990091104619462F
:1024A0004FF48072049BFFF74BFA059B03F1300257
:1024B000059B03F5AA7305990091104619464FF440
:1024C0008072039BFFF78CFB07B05DF804FB00BF35
:1024D00050030108AFF30080AFF30080AFF300803A
:1024E00000B583B001900B468DF80330FEF738FA43
:1024F000019B002B02D11148FEF7AAFA019B5B69F0
:10250000002B05D1019B043318460421FFF718F96D
:10251000019B03F10C029DF8033010461946FFF7AA
:102520005FFA0346002B05DA019B0433184680212D
:10253000FFF706F903B05DF804FB00BFC8FC000814
:1025400000B585B0039002910192039B3033184689
:102550000299019A4FF0FF33FFF732FC0346184609
:1025600005B05DF804FB00BFAFF30080AFF300805F
:1025700000B585B0039002910192039B0C3318467D
:102580000299019A4FF0FF33FFF7C2FA034618464B
:1025900005B05DF804FB00BFAFF30080AFF300802F
:1025A00000B583B001900B468DF80330019B03F119
:1025B00030029DF80330104619464FF0FF32FFF706
:1025C00067FB0346184603B05DF804FBAFF30080D9
:1025D00000B583B00190019B0C3318464FF0FF31DA
:1025E000FFF74EFA0346184603B05DF804FB00BF40
:1025F00000B585B003900B4601928DF80B30039B1C
:1026000003F130029DF80B3010461946019AFFF78E
:102610003FFB0346184605B05DF804FBAFF30080AE
:1026200000B583B001900091019B0C3318460099CE
:10263000FFF726FA0346184603B05DF804FB00BF17
:1026400000B585B00390029101920093039B303353
:1026500018460299019A009BFFF7B2FB0346184601
:1026600005B05DF804FB00BFAFF30080AFF300805E
:1026700000B585B00390029101920093039B0C3347
:1026800018460299019A009BFFF742FA0346184642
:1026900005B05DF804FB00BFAFF30080AFF300802E
:1026A00000B587B00190019B1B6A0593059BD3F889
:1026B00054321B681B78042B03D1059B1B7A022B19
:1026C00000D05AE0059BD3F854321A68059BD3F822
:1026D00054325B7902339B0013445B685B8A04933A
:1026E000059BD3F854321B685B891A46059BD3F8C7
:1026F00054325B7942FA03F303F00103002B3CD11F
:10270000059BDB691A46059B9B69D31A1A46059BF4
:102710005B69D31A0393039A049B9A422DD3FEF765
:1027200097F8002383F31188039A049BB2FBF3F319
:10273000049A02FB03F30393059BD3F85432196800
:10274000059BD3F854325A79059B0C330846114641
:102750001A46039B00F0B4FD202383F31188FEF793
:102760005FF8059BD3F854321A68059BD3F85432AE
:102770005B791046194600F0F3FD07B05DF804FBE5
:1027800000B585B00190019B1B6A0393039BD3F8AE
:1027900054321B681B78042B03D1039B1B7A022B3A
:1027A00000D043E0039BD3F854321B681B891A46C0
:1027B000039BD3F854321B7942FA03F303F001036D
:1027C000002B33D1039B1B6C1A46039BDB6BD31A84
:1027D0001A46039B9B6BD31A0293029B002B25D0B6
:1027E000FEF736F8002383F31188039BD3F85432A5
:1027F0001968039BD3F854321A79039B3033084687
:1028000011461A46029B00F083FD202383F31188B2
:10281000FEF706F8039BD3F854321A68039BD3F8EB
:1028200054321B791046194600F0D2FD05B05DF810
:1028300004FB00BFAFF30080AFF30080AFF3008074
:10284000704700BFAFF30080AFF30080AFF30080AC
:1028500000B585B00390039B144A1A60039B1A1DB0
:10286000039B5A60039B01221A72039B03F10C0223
:10287000039B543303990091104619464FF480721C
:102880000B4BFFF75DF8039B03F13002039B03F54D
:10289000AA7303990091104619464FF48072054BB4
:1028A000FFF79EF905B05DF804FB00BF7003010857
:1028B000A126000881270008AFF30080AFF3008055
:1028C00000B585B001900091009B1B680393019BAC
:1028D000002B02D11D48FEF7BBF8202383F311889B
:1028E000FDF79EFF019B1B7A012B06D0019B1B7AF3
:1028F000022B02D01648FEF7ABF8009B1B79013B78
:10290000039A0A339B001344019A5A60009B5B7937
:102910005A1E039B1232019943F82210009B9B79A7
:10292000013B039A0A339B001344019A5A60019BAE
:10293000009AC3F85422019B02221A72FDF788FF05
:10294000002383F3118805B05DF804FBF0FC000858
:1029500000FD0008AFF30080AFF30080AFF300800C
:1029600000B585B00190019BD3F854321B680393E6
:10297000019B0C331846FFF70BF8019B30331846C8
:10298000FFF756F9019B043318460121FEF7D8FEE4
:10299000019BD3F854325979019B03F10C02019B3E
:1029A000D3F854325B79039802339B0003445B688D
:1029B0005B8A039800F084FC019BD3F854325B7966
:1029C0000398194600F0CCFC05B05DF804FB00BF8D
:1029D00082B00190019B93F8743003F06003202BC8
:1029E0002CD1019B93F87530212B04D0222B18D0C9
:1029F000202B0BD020E0019B124A9A66019B0722F4
:102A0000DA66019B00221A67012318E0019B0D4A38
:102A10009A66019B0722DA66019B00221A6701234E
:102A20000DE0019B00229A66019B0022DA66019B61
:102A300000221A67012302E0002300E00023184669
:102A400002B0704700080020AFF30080AFF30080B1
:102A500000B585B001900B468DF803309DF803302A
:102A6000013B019A0A339B0013445B680393039B69
:102A7000002B00D172E0202383F31188FDF700FFC3
:102A8000039B043318460821FEF75AFE039B1B6C78
:102A90001A46039BDB6BD31A1A46039B9B6BD31A14
:102AA0000293029B002B1AD0FDF702FF002383F351
:102AB0001188039B30339DF80320019811461A4674
:102AC000029B00F025FC202383F31188FDF7D8FE3C
:102AD0009DF803300198194600F07AFC39E09DF822
:102AE0000330019A02339B0013445B685B695B68A7
:102AF000002B2ED09DF80330019A02339B00134423
:102B00005B685B695A689DF80330019902339B004A
:102B10000B445B681B8A013B1340002B19D1FDF766
:102B2000C7FE002383F31188039B30339DF80320F5
:102B3000019811461A46002300F0EAFB202383F394
:102B40001188FDF79DFE9DF803300198194600F0AD
:102B50003FFCFDF7ADFE002383F3118805B05DF85F
:102B600004FB00BFAFF30080AFF30080AFF3008041
:102B700000B587B001900B468DF803309DF8033007
:102B80005A1E019B123253F822300593059B002BED
:102B900000D149E0202383F31188FDF771FE059BE6
:102BA000043318460421FEF7CBFD9DF80330019A4B
:102BB00002339B0013445B685B8A0493059BDB69CB
:102BC0001A46059B9B69D31A1A46059B5B69D31A63
:102BD0000393039A049B9A4221D3FDF769FE0023D5
:102BE00083F31188039A049BB2FBF3F3049A02FB6C
:102BF00003F30393059B0C339DF8032001981146C2
:102C00001A46039B00F05CFB202383F31188FDF739
:102C100037FE9DF803300198194600F0A1FBFDF73F
:102C200047FE002383F3118807B05DF804FB00BF63
:102C300082B001900B468DF8033002B0704700BFA0
:102C400008B501F0C5F908BDAFF30080AFF300800F
:102C500000B583B00190019B01221A70019B0022F4
:102C60005A60019B00229A60019B0C331846FEF7C4
:102C7000D7FB03B05DF804FBAFF30080AFF3008037
:102C800008B501F06DFB08BDAFF30080AFF3008025
:102C900082B00190019B01221A70019B00225A70A0
:102CA000019B00229A70019B00225A6002B070477B
:102CB00000B583B00190019B93F87620019B83F8C7
:102CC0007E20019801F04CFF019B5B681B68002B84
:102CD00005D0019B5B681B68019801219847019B07
:102CE00003221A7003B05DF804FB00BFAFF300804D
:102CF00010B584B00190019B93F8743003F07F020B
:102D0000019B93F875301B021343B3F5407F59D0F4
:102D1000B3F5407F12DC022B00F0E480022B05DCCF
:102D2000002B27D0012B00F0D2809CE1B3F5807FEF
:102D30002DD0B3F5817F00F02C8194E1B3F5C06F05
:102D400066D0B3F5C06F08DC40F20232934200F067
:102D50005581B3F5A06F50D085E1B3F5106F00F049
:102D60008E8040F60242934200F0B180B3F5006FCE
:102D700078D078E1019B03F17C02019B9A66019B6C
:102D80000222DA66019B00221A6701236CE1019B93
:102D900093F87630012B13D1019BB3F87C3023F0EC
:102DA00002039AB2019BA3F87C20019B00229A6641
:102DB000019B0022DA66019B00221A67012353E17E
:102DC000002351E1019B93F87630012B13D1019B35
:102DD000B3F87C3043F002039AB2019BA3F87C2045
:102DE000019B00229A66019B0022DA66019B002269
:102DF0001A67012338E1002336E1019B00229A661D
:102E0000019B0022DA66019B994A1A6701232BE194
:102E1000019B5B685C68019B93F87710019B93F8BA
:102E20007620019B93F878301846019B93F879300F
:102E30001B029BB203439BB29BB20198A047039035
:102E4000039B002B01D100230EE1039B5A68019BD9
:102E50009A66039B1A68019BDA66019B00221A6737
:102E6000012301E1019B03F17F02019B9A66019B13
:102E70000122DA66019B00221A670123F4E0019B1C
:102E800093F87620019B83F87F20019B93F87F3095
:102E9000002B03D1019B03221A7002E0019B042244
:102EA0001A70019B5B681B68002B05D0019B5B6857
:102EB0001B68019802219847019B00229A66019B9A
:102EC0000022DA66019B00221A670123CCE0019BF5
:102ED000684A9A66019B0222DA66019B00221A6701
:102EE0000123C1E0019B93F87830DBB25BB2002B89
:102EF00027DA019B93F8783003F00F03DBB20198D7
:102F0000194601F00DFF0346012B02D0022B0BD016
:102F100015E0019B584A9A66019B0222DA66019BE2
:102F200000221A6701239FE0019B544A9A66019B85
:102F30000222DA66019B00221A67012394E0002333
:102F400092E0019B93F8783003F00F03DBB2019815
:102F5000194601F0C5FE0346012B02D0022B0BD00F
:102F600015E0019B444A9A66019B0222DA66019BA6
:102F700000221A67012377E0019B404A9A66019B71
:102F80000222DA66019B00221A6701236CE000230B
:102F90006AE0019B93F87630002B01D0002363E0B8
:102FA000019B93F8783003F00F03002B1BDD019B8E
:102FB00093F87830DBB25BB2002B0ADA019B93F80E
:102FC000783003F00F03DBB20198194602F038F8AD
:102FD00009E0019B93F8783003F00F03DBB201980E
:102FE000194602F005F8019B00229A66019B002217
:102FF000DA66019B00221A67012335E0019B93F8F2
:103000007630002B01D000232EE0019B93F878301E
:1030100003F00F03002B1BDD019B93F87830DBB22C
:103020005BB2002B0ADA019B93F8783003F00F03B0
:10303000DBB20198194601F0BBFF09E0019B93F850
:10304000783003F00F03DBB20198194601F090FFCE
:10305000019B00229A66019B0022DA66019B0022F6
:103060001A67012300E00023184604B010BD00BF1A
:10307000B12C000890030108B0030108A003010867
:1030800008B501F005FD08BDAFF30080AFF3008087
:1030900084B00190019B01221A70019B00225A60AA
:1030A000002303930FE0019A039B0A339B00134410
:1030B00000225A60019B039A1232002143F8221029
:1030C000039B01330393039B062BECD9019B002246
:1030D0001A81019B00225A8104B07047AFF300802F
:1030E00000B585B001900091019B002B02D0009BA0
:1030F000002B02D11948FDF7ABFC202383F3118884
:10310000FDF78EFB019B1B78012B06D0019B1B78E2
:10311000022B02D01248FDF79BFC019B009A5A60DB
:103120000023039309E0019A039B02339B0013449D
:1031300000225A60039B01330393039B072BF2D9B0
:10314000019801F0ADFC019B02221A70FDF780FB93
:10315000002383F3118805B05DF804FB30FD0008FF
:1031600040FD0008AFF30080AFF30080AFF30080B4
:1031700000B585B003900B4601928DF80B30FDF73A
:10318000EFFB039B002B02D0019B002B02D11E48BA
:10319000FDF75EFC039B1B78042B02D01B48FDF758
:1031A00057FC9DF80B30039A02339B0013445B6875
:1031B000002B02D01648FDF74BFC019B5B69002BEE
:1031C00006D0019B5B691846002110220BF010FC11
:1031D000019B9B69002B06D0019B9B69184600212F
:1031E00014220BF005FC9DF80B30039A02339B0070
:1031F0001344019A5A609DF80B300398194601F068
:10320000BFFC05B05DF804FB6CFD000884FD000800
:10321000A0FD0008AFF30080AFF30080AFF30080A3
:1032200000B587B00390019200930B468DF80B30E8
:103230009DF80B30039A02339B0013445B689B6933
:103240000593059B00221A70059B019ADA60059B85
:10325000009A5A60059B00229A609DF80B300398F3
:10326000194601F0B5FD07B05DF804FBAFF300802F
:1032700000B587B00390019200930B468DF80B3098
:103280009DF80B30039A02339B0013445B685B6923
:103290000593059B00221A70059B019ADA60059B35
:1032A000009A5A60059B00229A609DF80B300398A3
:1032B000194601F0C5FD07B05DF804FBAFF30080CF
:1032C00000B587B00390019200930B468DF80B3048
:1032D0009DF80B30039A02339B0013445B689B6993
:1032E0000593059B01221A70059B019ADA60059BE4
:1032F000009A5A60059B00229A609DF80B30039853
:10330000194601F065FD07B05DF804FBAFF30080DE
:1033100000B587B00390019200930B468DF80B30F7
:103320009DF80B30039A02339B0013445B685B6982
:103330000593059B01221A70059B019ADA60059B93
:10334000009A5A60059B00229A609DF80B30039802
:10335000194601F075FD07B05DF804FBAFF300807E
:1033600000B583B001900B468DF80330FDF7F8FAF5
:10337000019B002B02D11448FDF76AFB019B5B897E
:103380001A469DF8033042FA03F303F00103002BC1
:1033900001D0012314E0019B5B899AB29DF80330B0
:1033A000012101FA03F39BB213439BB29AB2019B32
:1033B0005A819DF803300198194601F099FD0023C8
:1033C000184603B05DF804FBF4FD0008AFF300807D
:1033D00000B583B001900B468DF80330FDF7C0FABD
:1033E000019B002B02D11448FDF732FB019B1B8986
:1033F0001A469DF8033042FA03F303F00103002B51
:1034000001D0012314E0019B1B899AB29DF803307F
:10341000012101FA03F39BB213439BB29AB2019BC1
:103420001A819DF803300198194601F081FD0023AF
:10343000184603B05DF804FB0CFE0008AFF30080F3
:1034400000B585B00190019B02221A70019B0022F9
:10345000A3F87C20019B002283F87E20019B0022A0
:1034600083F87F20019B00221A81019B00225A8150
:103470000023039309E0019A039B02339B0013444A
:1034800000225A60039B01330393039B072BF2D95D
:10349000019B002283F86420019801F031FB05B004
:1034A0005DF804FBAFF30080AFF30080AFF3008062
:1034B00000B585B001900B468DF80330019B0022CA
:1034C00083F86420019B74339DF803200198114612
:1034D0001A4601F045FC019B5B689B68002B0AD0F3
:1034E000019B5B689B6801989847034683F0010342
:1034F000DBB2002B27D0019B93F8743003F06003FC
:10350000002B08D10198FFF7F3FB034683F001037A
:10351000DBB2002B17D00198002101F049FD019882
:10352000002101F025FD019B5B681B68002B05D085
:10353000019B5B681B68019805219847019B062247
:1035400083F8642087E0019B93F87A301A46019B48
:1035500093F87B301B0213430393019BDA6E039BAA
:103560009A4202D9019B039ADA66019B93F8743060
:10357000DBB25BB2002B37DA019BDB6E002B1AD07B
:10358000019B012283F86420019B9A6E019BDB6EF4
:1035900001980021FFF76CFE202383F31188FDF7CB
:1035A0006FF901980021FFF713FFFDF781F9002360
:1035B00083F311884FE0019B032283F86420019874
:1035C000002100220023FFF72BFE202383F3118824
:1035D000FDF756F901980021FFF7C2FEFDF768F9E3
:1035E000002383F3118836E0019BDB6E002B1AD099
:1035F000019B042283F86420019B9A6E019BDB6E81
:1036000001980021FFF70CFE202383F31188FDF7BA
:1036100037F901980021FFF7A3FEFDF749F90023D0
:1036200083F3118817E0019B052283F86420019839
:10363000002100220023FFF71BFE202383F31188C3
:10364000FDF71EF901980021FFF7C2FEFDF730F9E2
:10365000002383F3118805B05DF804FBAFF300800D
:1036600000B585B001900B468DF80330019B93F8AF
:103670006430022B37D0052B4ED0012B59D1019B42
:1036800093F87A301A46019B93F87B301B02134360
:103690000393019BDA6E039B9A4224D2019BDB6E5B
:1036A000019AD268128AB3FBF2F102FB01F29B1A73
:1036B000002B18D10198002100220023FFF7D8FD2C
:1036C000202383F31188FDF7DBF801980021FFF731
:1036D0007FFEFDF7EDF8002383F31188019B0222A2
:1036E00083F864203CE0019B032283F86420019866
:1036F000002100220023FFF793FD202383F311888C
:10370000FDF7BEF801980021FFF72AFEFDF7D0F87B
:10371000002383F3118823E0019B1B6F002B03D050
:10372000019B1B6F01989847019B002283F864203E
:1037300016E00198002101F03BFC0198002101F006
:1037400017FC019B5B681B68002B05D0019B5B6825
:103750001B68019805219847019B062283F8642085
:1037600005B05DF804FB00BFAFF30080AFF300804D
:1037700000B583B001900B468DF80330019B93F8A0
:103780006430032B1AD0042B2CD1019B052283F823
:1037900064200198002100220023FFF769FD202307
:1037A00083F31188FDF76CF801980021FFF710FEF4
:1037B000FDF77EF8002383F311882AE0019BDB6884
:1037C0009B699B68002B00D00CE0019B1B6F002BBA
:1037D00003D0019B1B6F01989847019B002283F83F
:1037E000642016E00198002101F0E2FB019800211D
:1037F00001F0BEFB019B5B681B68002B05D0019BA1
:103800005B681B68019805219847019B062283F895
:10381000642003B05DF804FBAFF30080AFF30080D9
:1038200000B583B0FDF75CF80C4B1B6803F00F0389
:1038300001930A4B019A5A60094B1B68002B06D072
:10384000074B1B68064A5268104601999847FDF7D6
:1038500067F8FCF72DFE03B05DF804FB00000240A2
:103860007C160020AFF30080AFF30080AFF3008040
:1038700000B583B0FDF734F80D4B1B681B0903F04E
:103880000F0301930A4B019A12015A60094B9B687E
:10389000002B06D0074B9B68064AD2681046019958
:1038A0009847FDF73DF8FCF703FE03B05DF804FB15
:1038B000000002407C160020AFF30080AFF30080D0
:1038C00000B583B0FDF70CF80D4B1B681B0A03F025
:1038D0000F0301930A4B019A12025A60094B1B69AC
:1038E000002B06D0074B1B69064A52691046019906
:1038F0009847FDF715F8FCF7DBFD03B05DF804FB16
:10390000000002407C160020AFF30080AFF300807F
:1039100000B583B0FCF7E4FF0D4B1B681B0B03F0F5
:103920000F0301930A4B019A12035A60094B9B69DA
:10393000002B06D0074B9B69064AD26910460199B5
:103940009847FCF7EDFFFCF7B3FD03B05DF804FB0F
:10395000000002407C160020AFF30080AFF300802F
:1039600000B583B0FCF7BCFF0D4B1B681B0C03F0CC
:103970000F0301930A4B019A12045A60094B1B6A08
:10398000002B06D0074B1B6A064A526A1046019963
:103990009847FCF7C5FFFCF78BFD03B05DF804FB0F
:1039A000000002407C160020AFF30080AFF30080DF
:1039B00000B583B0FCF794FF0D4B1B681B0D03F0A3
:1039C0000F0301930A4B019A12055A60094B9B6A37
:1039D000002B06D0074B9B6A064AD26A1046019913
:1039E0009847FCF79DFFFCF763FD03B05DF804FB0F
:1039F000000002407C160020AFF30080AFF300808F
:103A000000B583B0FCF76CFF0D4B1B681B0E03F079
:103A10000F0301930A4B019A12065A60094B1B6B64
:103A2000002B06D0074B1B6B064A526B10460199C0
:103A30009847FCF775FFFCF73BFD03B05DF804FB0E
:103A4000000002407C160020AFF30080AFF300803E
:103A500000B583B0FCF744FF0C4B1B6803F00F0369
:103A600001930A4B019A5A60094B9B6B002B06D0BD
:103A7000074B9B6B064AD26B104601999847FCF79F
:103A80004FFFFCF715FD03B05DF804FB0004024096
:103A90007C160020AFF30080AFF30080AFF300800E
:103AA00000B583B0FCF71CFF0D4B1B681B0903F02E
:103AB0000F0301930A4B019A12015A60094B1B6CC8
:103AC000002B06D0074B1B6C064A526C104601991E
:103AD0009847FCF725FFFCF7EBFC03B05DF804FB0F
:103AE000000402407C160020AFF30080AFF300809A
:103AF00000B583B0FCF7F4FE0D4B1B681B0A03F006
:103B00000F0301930A4B019A12025A60094B9B6CF6
:103B1000002B06D0074B9B6C064AD26C10460199CD
:103B20009847FCF7FDFEFCF7C3FC03B05DF804FB0F
:103B3000000402407C160020AFF30080AFF3008049
:103B400000B583B0FCF7CCFE0D4B1B681B0B03F0DC
:103B50000F0301930A4B019A12035A60094B1B6D24
:103B6000002B06D0074B1B6D064A526D104601997B
:103B70009847FCF7D5FEFCF79BFC03B05DF804FB0F
:103B8000000402407C160020AFF30080AFF30080F9
:103B900000B583B0FCF7A4FE0D4B1B681B0C03F0B3
:103BA0000F0301930A4B019A12045A60094B9B6D53
:103BB000002B06D0074B9B6D064AD26D104601992B
:103BC0009847FCF7ADFEFCF773FC03B05DF804FB0F
:103BD000000402407C160020AFF30080AFF30080A9
:103BE00082B0124B00221A600023019311E01049A9
:103BF000019A13465B0013449B000B441B68002290
:103C00001A600C4B019A002143F83210019B0133DA
:103C10000193019B0B2BEADD074B4FF0FF325A60FB
:103C2000064B4FF0FF325A6002B070477816002002
:103C3000C00301087C16002000000240000402407E
:103C4000094B094A126842F480721A60074B1B6ADA
:103C500003F44073002B06D0044B4FF480321A62F9
:103C6000024B00221A6270470070004000100240B0
:103C700008B5234B1B69224B4FF0FF321A61204BD2
:103C800000221A611E4BDB681D4B4FF0FF32DA60D9
:103C90001B4B0022DA601A4B9B6A194B4FF0FF3224
:103CA0009A62174B00229A62164B174A5A60154BBC
:103CB00000229A60134B07221A60144B134AD268F1
:103CC00042F08072DA60124B114A126842F001022F
:103CD0001A600B4B0A4AD26942F08052DA61FFF750
:103CE000AFFFFFF77DFF064B054A926942F00102E4
:103CF0009A61084B074A126842F020021A6008BD18
:103D00000010024010E000E03F190100F0ED00E07B
:103D1000001000E000000140AFF30080AFF300802E
:103D2000284B284A126842F001021A6000BF254B56
:103D30001B6803F00203002BF9D0224B214A1268C2
:103D400002F0F9021A601F4B00225A6000BF1D4B9F
:103D50005B6803F00C03002BF9D11A4B194A126867
:103D600042F4A0221A6000BF164B1B6803F4003314
:103D7000002BF9D0134B144A5A60124B42F2021234
:103D8000DA62104B30221A630E4B0E4A126842F070
:103D900080721A6000BF0B4B1B6803F00073002B8E
:103DA000F9D00A4B12221A60064B064A526842F0BA
:103DB00002025A6000BF034B5B6803F00C03082B40
:103DC000F9D170470010024000241D00002002407D
:103DD00082B001900091009B5A68019B5A60009B41
:103DE0009A68019B9A60009BDA68019BDA60009BED
:103DF0001A69019B5A61009B5A69019B1A62009BD8
:103E00009A69019B5A62009B1A68019B1A6002B072
:103E1000704700BFAFF30080AFF30080AFF30080C6
:103E200000B583B00190164B154A526942F4FC026A
:103E30005A61019B4FF090401946FFF7C9FF019B63
:103E40001C3310481946FFF7C3FF019B38330E4857
:103E50001946FFF7BDFF019B54330C481946FFF785
:103E6000B7FF019B70330A481946FFF7B1FF019B6A
:103E70008C3308481946FFF7ABFF03B05DF804FB2D
:103E8000001002400004004800080048000C0048F0
:103E90000010004800140048AFF30080AFF300802A
:103EA0008EB0039002910192019B03F003030D93E6
:103EB000019B03F004039B080C93019B03F0180380
:103EC000DB080B93019B03F060035B090A93019BE2
:103ED00003F4F063DB09089300230993029B03F0CA
:103EE0000103002B54D0099B03F007039B00089AA1
:103EF00002FA03F30793099B03F007039B000F22C9
:103F000002FA03F30693099B072B09D8039B1A6A4D
:103F1000069BDB431A40079B1A43039B1A6208E087
:103F2000039B5A6A069BDB431A40079B1A43039B79
:103F30005A62099B012202FA03F30593039B5A6814
:103F4000059BDB431A400C9B1A43039B5A60099B59
:103F50005B00032202FA03F30493039B9A68049B19
:103F6000DB431A400B9B1A43039B9A60039BDA685E
:103F7000049BDB431A400A9B1A43039BDA60039BB2
:103F80001A68049BDB431A400D9B1A43039B1A607B
:103F9000029B5B080293029B002B00D10FE00C9B5D
:103FA0005B000C930B9B9B000B930A9B9B000A935B
:103FB0000D9B9B000D93099B013309938EE70EB077
:103FC000704700BFAFF30080AFF30080AFF3008015
:103FD00008B50C4B4FF6FF721A800B48FEF738FEFF
:103FE000094B0A4ADA61084B094A1A62064B094A28
:103FF0005A62054B41F20A029A62034B41F21802DF
:10400000DA6208BD0C170020DC16002000380040E2
:10401000E4030108F0030108AFF30080AFF3008070
:1040200000B585B00190009100230393009B03F03D
:104030000803002B03D0039B43F080030393009BF2
:1040400003F00103002B03D0039B43F020030393F1
:10405000009B03F00203002B03D0039B43F04003BB
:104060000393009B03F00403002B03D0039B43F452
:1040700080730393202383F31188FCF701FC019BD9
:10408000043318460399FDF75BFBFCF711FC002392
:1040900083F3118805B05DF804FB00BFAFF3008027
:1040A00000B587B00190019BD3F854320593059B6E
:1040B0001B680493059BDB690393059B039A1A62B3
:1040C000039B03F00F03002B03D001980399FFF724
:1040D000A7FF039B03F48073002B10D0202383F3EE
:1040E0001188FCF7CDFB019B043318464FF4007197
:1040F000FDF726FBFCF7DCFB002383F31188039B11
:1041000003F02003002B11D0202383F31188FCF748
:10411000B7FB059B9B8C9BB2DBB201981946FEF75F
:10412000DFF9FCF7C5FB002383F31188049B03F040
:104130008003002B29D0039B03F08003002B24D0A5
:10414000202383F31188FCF79BFB019B3033184637
:10415000FDF7EEFD0290029B002B0DDA019B04336C
:1041600018460821FDF7ECFA049B23F0C00343F046
:104170004002059B1A6003E0029B9AB2059B1A85D8
:10418000FCF796FB002383F31188039B03F04003A5
:10419000002B26D0202383F31188FCF771FB019BB1
:1041A0005A6C019B9B6C9A4205D1019B9B6B002B27
:1041B00001D0012300E0002303F00103DBB2002B58
:1041C00005D0019B043318461021FDF7B9FA049B72
:1041D00023F04002059B1A60FCF76AFB002383F37F
:1041E000118807B05DF804FBAFF30080AFF30080E7
:1041F00082B00190034B034A126842F080021A60B9
:1042000002B0704700380140AFF30080AFF3008088
:1042100008B5FCF765FB0448FFF742FFFCF780FB9D
:10422000FCF746F908BD00BF10170020AFF300806F
:1042300008B507480021074AFEF71AF9044B064A59
:10424000C3F85422024B054AC3F8582208BD00BFE8
:1042500010170020F14100080038014000512502EC
:1042600084B0019000230393019B03F00803002B0B
:1042700003D0039B43F010030393019B03F001035E
:10428000002B03D0039B43F004030393019B03F033
:104290000203002B03D0039B43F008030393019B0D
:1042A00003F00403002B03D0039B43F0200303938C
:1042B000019B03F48073002B03D0039B43F0400366
:1042C0000393039B184604B0704700BFAFF3008010
:1042D00010B584B00190019B9B680393039BDB693D
:1042E0000293039B029A1A62029A40F20F13134040
:1042F000002B0ED0019B5B681B69002B09D0019B32
:104300005B681C690298FFF7ABFF034601981946EA
:10431000A047029B03F04003002B09D0019B5B6880
:104320005B68002B04D0019B5B685B680198984731
:1043300004B010BDAFF30080AFF30080AFF3008096
:1043400008B5FCF7CDFA0448FFF7C2FFFCF7E8FA1E
:10435000FCF7AEF808BD00BF6C190020AFF3008079
:1043600008B50848FEF794FC064B074A9A60054BCF
:104370000822DA60034B054A1A61024B044A5A616B
:1043800008BD00BF6C19002000480040D803010898
:10439000CC030108AFF30080AFF30080AFF30080DF
:1043A00084B00190019B1B680393039B1A68019BD7
:1043B0001A60019B1B68019A5A60039B184604B05F
:1043C000704700BFAFF30080AFF30080AFF3008011
:1043D00082B00190019B4022C3F8802002B0704758
:1043E00000B585B001900091019BD3F88030039314
:1043F000019BD3F88020009B1A44019BC3F88020C6
:10440000019BD3F88030B3F5007F02D90348FCF755
:104410001FFB039B184605B05DF804FB60FE000817
:1044200086B0039002910192039B9B6803F10053B5
:1044300003F540535B000593019B01335B08019337
:104440000CE0059B1A1D05921B689AB2029B1A800C
:10445000029B02330293019B013B0193019B002BC2
:10446000EFD106B0704700BFAFF30080AFF300801C
:1044700000B589B0039002910192039B9B6803F100
:10448000005303F540535B000693019B5B080793C1
:104490002CE0069B1A1D06921B680593029B5B6924
:1044A000591C029A5161059AD2B21A70029B5A693C
:1044B000029B1B699A4203D3029BDA68029B5A61F2
:1044C000029B5B69591C029A5161059A120AD2B289
:1044D0001A70029B5A69029B1B699A4203D3029B82
:1044E000DA68029B5A61079B013B0793079B002BED
:1044F000CFD1019B03F00103002B12D0029B5B691B
:10450000591C029A5161069A1268D2B21A70029B23
:104510005A69029B1B699A4203D3029BDA68029B89
:104520005A61202383F31188FCF7AAF9029B9A6849
:10453000019B1A44029B9A600AE0029B1846FFF70F
:104540002FFF03461846FCF773FB034600229A62CE
:10455000029B1A68029B9A42EFD1FCF7A9F900234B
:1045600083F3118809B05DF804FB00BFAFF300804E
:1045700086B0039002910192039B1B6803F10053E4
:1045800003F540535B000593019B9AB2039B9A800D
:10459000019B01335B0801930BE0059B1A1D0592FB
:1045A000029A12881A60029B02330293019B013B1C
:1045B0000193019B002BF0D106B07047AFF3008050
:1045C00000B589B0039002910192039B1B6803F12F
:1045D000005303F540535B000693019B9AB2039B83
:1045E0009A80019B5B0807932CE0029B9B69591CF6
:1045F000029A91611B780593029B9A69029B1B6941
:104600009A4203D3029BDA68029B9A61029B9B69E0
:10461000591C029A91611B781B02059A134305935A
:10462000029B9A69029B1B699A4203D3029BDA6838
:10463000029B9A61069B1A1D0692059A1A60079BB7
:10464000013B0793079B002BCFD1019B03F0010394
:10465000002B12D0029B9B69591C029A91611B7816
:104660001A46069B1A60029B9A69029B1B699A4232
:1046700003D3029BDA68029B9A61202383F311889B
:10468000114B01221A60029B9A68019B1A44029BFB
:104690009A600AE0029B1846FFF782FE034618461E
:1046A000FCF7C6FA034600229A62029B1A68029B34
:1046B0009A42EFD1044B00221A60002383F3118841
:1046C00009B05DF804FB00BF10120020AFF30080BA
:1046D00008B5FCF705F9FCF723F9FBF7E9FE08BD7F
:1046E00000B58BB09E4B0793FCF7FAF89D4B5B6CC3
:1046F0000993099B03F48063002B11D00798FEF700
:104700009FFE079B5B681B68002B05D0079B5B68BF
:104710001B68079800219847924B6FF480625A6497
:10472000099B03F40063002B14D08E4B8D4A126C4E
:1047300042F008021A64079B5B681B68002B05D0D7
:10474000079B5B681B68079803219847854B6FF4AC
:1047500000625A64099B03F48053002B1CD0814BE8
:104760009B6C0693069B03F40043002B10D17D4BFA
:104770007C4A126C22F008021A64079B5B681B6873
:10478000002B05D0079B5B681B680798042198479E
:10479000744B6FF480525A64099B03F40073002B2E
:1047A0000ED0079B5B68DB68002B04D0079B5B681F
:1047B000DB68079898476B4B6FF400725A6452E1BC
:1047C00051E1684B099A02F00F020592059A53F8DD
:1047D00022300493079A059B02339B0013445B68C5
:1047E0000393049B03F08003002B00F095805D4A47
:1047F0005C4B059953F8213023F4F14323F0700307
:10480000059942F82130574B1A6D059BDB00134484
:1048100003F1005303F540535B009B889BB2029366
:10482000039B5B69039A52699168029A0A449A60F1
:10483000039B5B695A68039B5B699B68D31A089367
:10484000089B002B4DD0039B1B8A1A46089B9A425B
:1048500002D2039B1B8A0893039B5B691B78002B86
:1048600013D0404B1A6D059BDB00134403F100533A
:1048700003F540535B001A46039B5B69DB681046F7
:104880001946089AFFF79CFE1AE0039B5B69039A9E
:104890005269D168029A0A44DA60324B1A6D059B5C
:1048A000DB00134403F1005303F540535B001A4649
:1048B000039B5B69DB6810461946089AFFF758FEB0
:1048C000202383F31188FBF7DBFF059BDBB20798FE
:1048D000194600F02DFBFBF7EBFF002383F3118853
:1048E0001AE0079B1B899AB2059B012101FA03F389
:1048F0009BB2DB439BB213409BB29AB2079B1A81D7
:10490000079A059B02339B0013445B689B68059ADA
:10491000D2B2079811469847049B03F40043002B3A
:1049200000F09E800F4A0F4B059953F8213023F475
:10493000784323F07003059942F82130049B03F477
:104940000063002B10D0079A059B02339B00134491
:104950005B685B68059AD2B20798114698477FE07A
:1049600088190020005C0040454B1A6D059BDB0058
:10497000134403F1005303F540535B000193019B83
:104980009B899BB2C3F309030893039B9B691B7824
:10499000002B08D0039B9B69DB6801981946089A95
:1049A000FFF766FD0FE0039B9B69DB6801981946E2
:1049B000089AFFF735FD039B9B69039A9269D168BA
:1049C000089A0A44DA60039B9B69039A926991688A
:1049D000089A0A449A60039B9B69039A92695168FA
:1049E000089A8A1A5A60039B9B69039A9269128AF1
:1049F000013A92B21A82039B5B8A1A46089B9A423A
:104A000004D8039B9B691B8A002B1BD1079B5B89E6
:104A10009AB2059B012101FA03F39BB2DB439BB2DF
:104A200013409BB29AB2079B5A81079A059B0233A7
:104A30009B0013445B68DB68059AD2B20798114665
:104A400098470DE00E4A0E4B059953F8213023F498
:104A5000904323F0700383F44051059B42F82310E8
:104A6000074B5B6C0993099B03F40043002B7FF415
:104A7000A8AEFBF755FFFBF71BFD0BB05DF804FB81
:104A8000005C0040AFF30080AFF30080AFF3008024
:104A900008B50248FEF7FCFA08BD00BF88190020DF
:104AA00000B583B00190019B1B78012B1AD1019AAC
:104AB0000E4B9A4213D10E4B0D4AD26942F40002BA
:104AC000DA610C4B01221A644A20D021FBF768FD01
:104AD0004B20E021FBF764FD064B00221A6401988D
:104AE000FEF7AEFC03B05DF804FB00BF88190020A0
:104AF00000100240005C0040AFF30080AFF3008084
:104B000000B585B00190124B00221A65104B0022AF
:104B10005A640F4B8022DA644FF41C430393019BC9
:104B20005B68DB68002B03D0039B43F400730393A3
:104B3000074B039A1A640198FFF74AFC019B054A48
:104B4000DA600198002100F01BF805B05DF804FB65
:104B5000005C004050040108AFF30080AFF3008018
:104B600082B00190044B019A92F87E2062F07F029D
:104B7000D2B2DA6402B07047005C0040AFF300804C
:104B800010B586B001900B468DF803309DF80330C8
:104B9000019A02339B0013445B680493049B1B68D7
:104BA00003F00303022B08D0032B0AD0012B0DD1F5
:104BB0004FF48063ADF814300CE00023ADF81430EE
:104BC00008E04FF4C063ADF8143003E04FF4007315
:104BD000ADF81430049B9B68002B05D0BDF8143051
:104BE00043F02003ADF81430049BDB68002B05D0A4
:104BF000BDF8143043F40053ADF81430344A9DF836
:104C00000310BDF814009DF80330034323F4F04370
:104C100023F0700342F821302D4A9DF803102C4BED
:104C20009DF8030053F82000BDF8144047F67003C8
:104C30002340434042F82130049B5B8A3E2B13D92A
:104C4000049B5B8A013B43F01F030133002B00DA16
:104C50001F335B119B029BB26FEA43436FEA5343DE
:104C60009BB2ADF816300CE0049B5B8A013B43F02D
:104C700001030133DA0F13445B109BB29B02ADF8C2
:104C80001630134B1A6D9DF80330DB00134403F10B
:104C9000005303F540535B000393039B00229A806B
:104CA000039BBDF816209A81049B1B8A0198194624
:104CB000FFF796FB0246039B1A60049B5B8A0198F0
:104CC0001946FFF78DFB0246039B9A6006B010BDA4
:104CD000005C0040AFF30080AFF30080AFF30080D2
:104CE00082B001900B468DF803300A4B9DF80320EB
:104CF00053F8223003F44053002B03D0B3F5805F08
:104D000002D003E0002302E0012300E00223184662
:104D100002B07047005C0040AFF30080AFF300804A
:104D200082B001900B468DF803300A4B9DF80320AA
:104D300053F8223003F03003002B02D0102B02D0A6
:104D400003E0002302E0012300E00223184602B042
:104D5000704700BF005C0040AFF30080AFF30080FD
:104D600088B003900B4601928DF80B30144B1A6DEE
:104D70009DF80B30DB00134403F1005303F540535F
:104D80005B000593059B9B6803F1005303F54053BB
:104D90005B000793002306930CE0079B1A1D079204
:104DA0001B689AB2019B1A80019B02330193069BF8
:104DB00001330693069B032BEFD908B0704700BF61
:104DC000005C0040AFF30080AFF30080AFF30080E1
:104DD00084B001900B468DF803309DF80330019AA2
:104DE00002339B0013445B689B690393039B5B68DE
:104DF000002B03D1039B01221A8218E0039B5A68FF
:104E00009DF80330019902339B000B445B685B8A79
:104E100013445A1E9DF80330019902339B000B4442
:104E20005B685B8AB2FBF3F39AB2039B1A8204B00D
:104E3000704700BFAFF30080AFF30080AFF3008096
:104E400000B585B001900B468DF803309DF8033016
:104E5000019A02339B0013445B685B690293029BD7
:104E60005B6803939DF80330019A02339B0013445F
:104E70005B681B8A1A46039B9A4208D29DF803304E
:104E8000019A02339B0013445B681B8A0393029BC5
:104E90001B78002B13D0154B1A6D9DF80330DB00E7
:104EA000134403F1005303F540535B001A46029B81
:104EB000DB6810461946039AFFF782FB12E00B4BA2
:104EC0001A6D9DF80330DB00134403F1005303F522
:104ED00040535B001A46029BDB6810461946039A52
:104EE000FFF746FB05B05DF804FB00BF005C004027
:104EF00082B001900B468DF80330094A9DF80310EB
:104F0000074B9DF8030053F8203023F4904323F01F
:104F1000700383F4405342F8213002B0704700BF61
:104F2000005C0040AFF30080AFF30080AFF300807F
:104F300082B001900B468DF80330094A9DF80310AA
:104F4000074B9DF8030053F8203023F4F04323F07F
:104F5000400383F0300342F8213002B0704700BFB5
:104F6000005C0040AFF30080AFF30080AFF300803F
:104F700082B001900B468DF80330094A9DF803106A
:104F8000074B9DF8030053F8203023F4904323F09F
:104F9000700383F4805342F8213002B0704700BFA1
:104FA000005C0040AFF30080AFF30080AFF30080FF
:104FB00082B001900B468DF80330094A9DF803102A
:104FC000074B9DF8030053F8203023F4F04323F0FF
:104FD000400383F0100342F8213002B0704700BF55
:104FE000005C0040AFF30080AFF30080AFF30080BF
:104FF00082B001900B468DF803300E4B9DF80320D4
:1050000053F8223003F44053B3F5405F0FD0094A00
:105010009DF80310074B9DF8030053F8203023F44C
:10502000F04323F0400383F4005342F8213002B0F0
:10503000704700BF005C0040AFF30080AFF300801A
:1050400082B001900B468DF803300D4B9DF8032084
:1050500053F8223003F03003302B0FD0084A9DF86C
:105060000310074B9DF8030053F8203023F4F0435E
:1050700023F0400383F0200342F8213002B0704750
:10508000005C0040AFF30080AFF30080AFF300801E
:1050900000B585B001900091009B002B02DC0B480D
:1050A000FBF7D6FC009B1846FCF70AFF0390039B16
:1050B000002B05D1019B0C221A604FF0FF3300E05A
:1050C000039B184605B05DF804FB00BF80FE000896
:1050D00082B0044B0193019B1B68DBB2184602B0FF
:1050E000704700BFE8F7FF1FAFF30080AFF3008009
:1050F00000B585B001900B468DF80330202383F373
:105100001188FBF7BDFB9DF80320019B043253F887
:10511000223003939DF80320019B0432002143F8C1
:105120002210039B5B7FC3F30603DBB2002B1FDD62
:10513000039B5B7FC3F30603DBB27F3303F07F0384
:10514000D9B2039A537F61F306035377039BD3F8D5
:10515000193003F10802039BC3F81920019B0C339B
:105160001846039900F05CFA039B03221A710CE0C5
:10517000039B02221A71039BD3F80530002B04D045
:10518000039BD3F8053003989847019800F0C0FAC4
:10519000FBF78EFB002383F3118805B05DF804FB59
:1051A00000B585B001900B468DF80330202383F3C2
:1051B0001188FBF765FB9DF80320019B043253F82F
:1051C000223003939DF80320019B0432002143F811
:1051D0002210039B002B00D1FEE7019B0C331846E5
:1051E000039900F01DFA039B03221A71019800F045
:1051F0008FFAFBF75DFB002383F3118805B05DF8A0
:1052000004FB00BFAFF30080AFF30080AFF300807A
:1052100000B585B001900B468DF80330202383F351
:105220001188FBF72DFB9DF80320019B043253F8F6
:10523000223003939DF80320019B0432002143F8A0
:105240002210039B002B00D1FEE7039B05221A715D
:10525000039BD3F80530002B04D0039BD3F8053013
:1052600003989847019800F053FAFBF721FB0023BD
:1052700083F3118805B05DF804FB00BFAFF3008035
:1052800000B58BB00190202383F31188FBF7F8FA67
:1052900003AB0198194600F07BFC9DF81130019A90
:1052A00006339B0013445B680893089B002B05D1D1
:1052B000FBF7FEFA002383F31188FEE7089B1B79B6
:1052C000022B2ED1089B04221A71089BD3F81520BB
:1052D000089BC3F81920039BC3F31C03DB119AB28C
:1052E000089BA3F81120089BB3F813309BB2082B3E
:1052F00012D9089BB3F813309BB2013B002B00DAA4
:105300000733DB10DBB203F07F03D9B2089A537F77
:1053100061F30603537704E0089A537F6FF30603A3
:105320005377089B1B79042B6FD1039BC3F31C039A
:10533000DB118DF81F30089BB3F811309BB28DF84C
:105340001E309DF81F209DF81E309A4205D0FBF7B5
:10535000AFFA002383F3118865E0039BC3F31C03BA
:10536000DBB203F07F038DF81D30089B5B7FC3F336
:105370000603DBB29DF81D209A4208D0089B02224A
:105380001A71FBF795FA002383F311884BE0002391
:1053900009930EE0089BD3F81930591C089AC2F8FB
:1053A000191005A9099A0A4412781A70099B013349
:1053B00009939DF81030C3F30303DBB21A46099B2F
:1053C0009A42E7D8089B5B7FC3F30603DBB2002B4E
:1053D0000EDD089B5B7FC3F30603DBB27F3303F074
:1053E0007F03D9B2089A537F61F3060353770CE029
:1053F000089BD3F80530002B07D0089B01221A71B7
:10540000089BD3F8053008989847089B1B79062B12
:1054100004D1089BD3F8053008989847FBF748FA61
:10542000002383F311880BB05DF804FBAFF3008019
:1054300008B500F015FB08BDAFF30080AFF30080A6
:1054400000B585B00190019B01221A70019B0022DA
:105450005A65019B0C33184600F0DAF800230393D9
:1054600008E0019B039A0432002143F82210039BB9
:1054700001330393039B022BF3DD0023039309E025
:10548000019A039B06339B00134400225A60039B3E
:1054900001330393039B0D2BF2DD05B05DF804FB94
:1054A00000B583B001900091019B002B05D1009BBA
:1054B000002B02D11648FBF7CBFA202383F3118887
:1054C000FBF7AEF9019B1B78012B02D01148FBF7CB
:1054D000BFFA019B1B78012B08D1019B009A5A65EA
:1054E000019800F0CDFA019B02221A70019B05225F
:1054F0001A70FBF7ADF9002383F3118801E000F087
:105500007FF8019B1B78042BF9D003B05DF804FBF6
:1055100090FE0008A0FE0008AFF30080AFF300800B
:1055200000B585B0039002910192029B01221A718D
:105530001C4BDA68019B1A44029BC3F80D20029BA6
:10554000B3F813309BB2082B12D9029BB3F8133077
:105550009BB2013B002B00DA0733DB10DBB203F018
:105560007F03D9B2029A537F61F30603537704E0B5
:10557000029A537F6FF306035377029BD3F81520EB
:10558000029BC3F81920039B0C331846029900F0C4
:1055900047F8029B03221A71039800F0B9F805B08E
:1055A0005DF804FB20160020AFF30080AFF300800D
:1055B00000B587B0039002910192202383F31188F4
:1055C000FBF72EF9029BB3F811309BB2DB011946B1
:1055D000019B9BB2DA010DF11703039800F060FB09
:1055E0009DF81730039A06339B001344029A5A60C1
:1055F000FBF72EF9002383F3118807B05DF804FB55
:10560000704700BFAFF30080AFF30080AFF30080BE
:1056100082B00190019B019A1A6002B0704700BFEE
:1056200000B585B001900091019B0393019B002B75
:1056300002D0009B002B03D10F48FBF709FA0CE0C6
:105640000BE0039BD3F80D20009BD3F80D309A425A
:1056500000D907E0039B1B680393039B1A68019B17
:105660009A42EED1039B1A68009B1A60039B009A32
:105670001A6005B05DF804FBE0FE0008AFF300809F
:1056800000B585B00190019B002B02D10B48FBF7C0
:10569000DFF9019B1A68019B9A4202D10848FBF787
:1056A000D7F9019B1B680393039B1A68019B1A603F
:1056B000039B184605B05DF804FB00BF20FF0008FF
:1056C00034FF0008AFF30080AFF30080AFF3008039
:1056D00084B00190019BD3F80D200A4BDB68D31AEC
:1056E0000393039B002B02DB039B402B01DD3F2335
:1056F00004E0039BDBB203F03F03DBB2184604B0C7
:10570000704700BF20160020AFF30080AFF3008089
:1057100000B589B00190019B03F10C02019BDB688D
:105720009A4201D1002370E0019800F0E9F90346A4
:1057300083F00103DBB2002B01D0002365E0019B65
:105740001B69002B01D000235FE0019B0C3318463E
:10575000FFF796FF07900798FFF7BAFF0346DA05B1
:10576000079BB3F811309BB2DB011A43079B5B7FA9
:10577000C3F30603DBB203F07F03134323F060425D
:10578000039B62F31C030393079B5B7FC3F3060336
:10579000DBB2002B07DD9DF81030082262F3030313
:1057A0008DF8103016E0079BD3F81520079BB3F84F
:1057B00013309BB213441A46079BD3F81930D31AFF
:1057C000DBB203F00F03DAB29DF8103062F303038B
:1057D0008DF81030079BD3F819301B680593079B91
:1057E000D3F819305B68069303AB0198194600F0B3
:1057F00097F99DF811301A46019B0432079943F836
:105800002210079B04221A710123184609B05DF883
:1058100004FB00BFAFF30080AFF30080AFF3008064
:1058200000B585B00190019BDB6D0393039B9B68E2
:105830000293039B2A4A9A60029B03F00203002B07
:1058400003D001980021FFF753FC029B03F400737F
:10585000002B03D001980121FFF74AFC029B03F4BF
:105860000033002B03D001980221FFF741FC029B7B
:1058700003F00403002B03D001980021FFF790FCF4
:10588000029B03F48063002B03D001980121FFF7F2
:1058900087FC029B03F48023002B03D00198022194
:1058A000FFF77EFC029B03F00803002B03D0019856
:1058B0000021FFF7ADFC029B03F40063002B03D033
:1058C00001980121FFF7A4FC029B03F40023002BA5
:1058D00003D001980221FFF79BFC05B05DF804FBA3
:1058E00001010100AFF30080AFF30080AFF300804F
:1058F00000B585B00190019BDB6DDB680393039BD2
:1059000003F00303002B0AD0019BDB6D019AD26DDB
:10591000526922F002025A610198FFF7B1FC039B21
:1059200003F01003002B03D0019BDB6D1022DA6023
:1059300005B05DF804FB00BFAFF30080AFF300805B
:1059400084B00190019BDB6D1B690393039B03F003
:105950000303002B07D0019BDB6D019AD26D5269C6
:1059600022F010025A61039B03F01003002B03D0B6
:10597000019BDB6D10221A6104B07047AFF3008009
:1059800086B00190019BDB6D5B680593019BDB6D2D
:105990001C225A60059B03F00403002B18D0019BC6
:1059A000DB6D9B690493019BDB6D019AD26D92695B
:1059B00022F070029A61049B03F007030393049B97
:1059C00003F07003002B03D0039B43F00803039301
:1059D00006B07047AFF30080AFF30080AFF30080F4
:1059E00008B5FAF77DFF0448FFF71AFFFAF798FFAA
:1059F000FAF75EFD08BD00BF281A0020AFF3008053
:105A000008B5FAF76DFF0448FFF772FFFAF788FF51
:105A1000FAF74EFD08BD00BF281A0020AFF3008042
:105A200008B5FAF75DFF0448FFF78AFFFAF778FF39
:105A3000FAF73EFD08BD00BF281A0020AFF3008032
:105A400008B5FAF74DFF0448FFF79AFFFAF768FF29
:105A5000FAF72EFD08BD00BF281A0020AFF3008022
:105A600008B5034B034ADA650148FFF7E9FC08BDB6
:105A7000281A002000640040AFF30080AFF30080DC
:105A800000B583B001901320B021FAF789FD1420EE
:105A9000B021FAF785FD1520B021FAF781FD162017
:105AA000B021FAF77DFD124B114AD26942F0007223
:105AB000DA61019B02221A70019BDB6D01221A60E0
:105AC00000BF019BDB6D5B6803F00103002BF8D086
:105AD000019BDB6D074ADA61019BDB6D90221A6046
