:020000040800F2
:1000000000040020410C0008410D0008410D0008CB
:10001000410D0008410D0008410D0008410D000888
:10002000410D0008410D0008410D0008910D000828
:10003000410D0008410D0008410D0008610D000848
:10004000410D0008F13D0008813E0008B13E000866
:10005000410D0008410D0008A13B0008D13B0008FC
:10006000013C0008313C0008613C000801320008F6
:1000700051320008A1320008F13200084133000873
:1000800091330008E1330008E13A000821540008E8
:10009000415400086154000881540008913C000854
:1000A000410D0008410D0008410D0008410D0008F8
:1000B000410D0008410D0008410D0008410D0008E8
:1000C000410D0008410D0008410D0008410D0008D8
:1000D000410D0008C14A0008410D0008410D00080B
:1000E000313D0008213E0008513E0008410D000846
:1000F000410D0008410D0008410D0008410D0008A8
:10010000410D0008410D0008410D0008410D000897
:10011000410D0008410D0008410D0008410D000887
:100120003134000881340008D1340008213500083A
:1001300071350008410D0008410D0008410D00080F
:10014000E13E0008613F0008410D0008410D000834
:10015000410D0008410D0008410D0008410D000847
:10016000410D0008410D0008410D0008410D000837
:10017000410D0008410D0008410D0008410D000827
:08018000410D0008410D0008CB
:0801880021A40008A1DB00081E
:1001900081F0004102E000BF83F0004330B54FEA38
:1001A00041044FEA430594EA050F08BF90EA020FA5
:1001B0001FBF54EA000C55EA020C7FEA645C7FEA38
:1001C000655C00F0E2804FEA5454D4EB5555B8BF5B
:1001D0006D420CDD2C4480EA020281EA030382EACC
:1001E000000083EA010180EA020281EA0303362D5E
:1001F00088BF30BD11F0004F4FEA01314FF4801C31
:100200004CEA113102D0404261EB410113F0004F42
:100210004FEA03334CEA133302D0524263EB4303F9
:1002200094EA050F00F0A780A4F10104D5F1200E97
:100230000DDB02FA0EFC22FA05F2801841F10001F2
:1002400003FA0EF2801843FA05F359410EE0A5F1C6
:1002500020050EF1200E012A03FA0EFC28BF4CF0F7
:10026000020C43FA05F3C01851EBE37101F00045AD
:1002700007D54FF0000EDCF1000C7EEB00006EEBBA
:100280000101B1F5801F1BD3B1F5001F0CD3490844
:100290005FEA30004FEA3C0C04F101044FEA44529B
:1002A00012F5800F80F09A80BCF1004F08BF5FEA22
:1002B000500C50F1000041EB045141EA050130BD02
:1002C0005FEA4C0C404141EB010111F4801FA4F1A5
:1002D0000104E9D191F0000F04BF01460020B1FAFA
:1002E00081F308BF2033A3F10B03B3F120020CDA32
:1002F0000C3208DD02F1140CC2F10C0201FA0CF010
:1003000021FA02F10CE002F11402D8BFC2F1200C74
:1003100001FA02F120FA0CFCDCBF41EA0C0190402A
:10032000E41AA2BF01EB0451294330BD6FEA040473
:100330001F3C1CDA0C340EDC04F11404C4F120025E
:1003400020FA04F001FA02F340EA030021FA04F370
:1003500045EA030130BDC4F10C04C4F1200220FAC7
:1003600002F001FA04F340EA0300294630BD21FA05
:1003700004F0294630BD94F0000F83F4801306BFCB
:1003800081F480110134013D4EE77FEA645C18BFBF
:100390007FEA655C29D094EA050F08BF90EA020F56
:1003A00005D054EA000C04BF1946104630BD91EA4E
:1003B000030F1EBF0021002030BD5FEA545C05D151
:1003C0004000494128BF41F0004130BD14F5800490
:1003D0003CBF01F5801130BD01F0004545F0FE4104
:1003E00041F470014FF0000030BD7FEA645C1ABF39
:1003F000194610467FEA655C1CBF0B46024650EA70
:10040000013406BF52EA033591EA030F41F400219B
:1004100030BD00BF90F0000F04BF0021704730B521
:100420004FF4806404F132044FF000054FF00001F6
:1004300050E700BF90F0000F04BF0021704730B5B7
:100440004FF4806404F1320410F0004548BF40428C
:100450004FF000013EE700BF42004FEAE2014FEAE1
:1004600031014FEA02701FBF12F07F4393F07F4FBC
:1004700081F06051704792F0000F14BF93F07F4FEE
:10048000704730B54FF4607401F0004521F0004131
:1004900020E700BF50EA010208BF704730B54FF0B7
:1004A00000050AE050EA010208BF704730B511F0BC
:1004B000004502D5404261EB41014FF4806404F1F4
:1004C00032045FEA915C3FF4DCAE4FF003025FEA76
:1004D000DC0C18BF03325FEADC0C18BF033202EBFE
:1004E000DC02C2F1200300FA03FC20FA02F001FA58
:1004F00003FE40EA0E0021FA02F11444C1E600BFF7
:1005000070B54FF0FF0C4CF4E06C1CEA11541DBFA9
:100510001CEA135594EA0C0F95EA0C0F00F0DEF874
:100520002C4481EA030621EA4C5123EA4C5350EA59
:10053000013518BF52EA033541F4801143F48013AA
:1005400038D0A0FB02CE4FF00005E1FB02E506F03B
:100550000042E0FB03E54FF00006E1FB03569CF090
:10056000000F18BF4EF0010EA4F1FF04B6F5007F96
:1005700064F5407404D25FEA4E0E6D4146EB060608
:1005800042EAC62141EA55514FEAC52040EA5E5091
:100590004FEACE2EB4F1FD0C88BFBCF5E06F1ED83B
:1005A000BEF1004F08BF5FEA500E50F1000041EB72
:1005B000045170BD06F0004646EA010140EA02001F
:1005C00081EA0301B4EB5C04C2BFD4EB0C0541EA41
:1005D000045170BD41F480114FF0000E013C00F356
:1005E000AB8014F1360FDEBF002001F0004170BD7A
:1005F000C4F10004203C35DA0C341BDC04F1140493
:10060000C4F1200500FA05F320FA04F001FA05F21E
:1006100040EA020001F0004221F0004110EBD370EB
:1006200021FA04F642EB06015EEA430E08BF20EA17
:10063000D37070BDC4F10C04C4F1200500FA04F3BA
:1006400020FA05F001FA04F240EA020001F000414C
:1006500010EBD37041F100015EEA430E08BF20EABF
:10066000D37070BDC4F1200500FA05F24EEA020E07
:1006700020FA04F301FA05F243EA020321FA04F036
:1006800001F0004121FA04F220EA020000EBD370ED
:100690005EEA430E08BF20EAD37070BD94F0000FED
:1006A0000FD101F00046400041EB010111F4801F21
:1006B00008BF013CF7D041EA060195F0000F18BFD2
:1006C000704703F00046520043EB030313F4801F0E
:1006D00008BF013DF7D043EA0603704794EA0C0FC8
:1006E0000CEA135518BF95EA0C0F0CD050EA4106DE
:1006F00018BF52EA4306D1D181EA030101F000415B
:100700004FF0000070BD50EA410606BF1046194682
:1007100052EA430619D094EA0C0F02D150EA01368E
:1007200013D195EA0C0F05D152EA03361CBF1046CF
:1007300019460AD181EA030101F0004141F0FE416E
:1007400041F470014FF0000070BD41F0FE4141F4F2
:10075000780170BD70B54FF0FF0C4CF4E06C1CEAF2
:1007600011541DBF1CEA135594EA0C0F95EA0C0FA7
:1007700000F0A7F8A4EB050481EA030E52EA033562
:100780004FEA013100F088804FEA03334FF0805583
:1007900045EA131343EA12634FEA022245EA1115B0
:1007A00045EA10654FEA00260EF000419D4208BF61
:1007B000964244F1FD0404F5407402D25B084FEA0E
:1007C0003202B61A65EB03055B084FEA32024FF4BA
:1007D00080104FF4002CB6EB020E75EB030E22BF17
:1007E000B61A754640EA0C005B084FEA3202B6EBD7
:1007F000020E75EB030E22BFB61A754640EA5C0086
:100800005B084FEA3202B6EB020E75EB030E22BF15
:10081000B61A754640EA9C005B084FEA3202B6EB16
:10082000020E75EB030E22BFB61A754640EADC00D5
:1008300055EA060E18D04FEA051545EA16754FEA37
:1008400006164FEAC30343EA52734FEAC2025FEA55
:100850001C1CC0D111F4801F0BD141EA00014FF0E4
:1008600000004FF0004CB6E711F4801F04BF0143B5
:100870000020B4F1FD0C88BFBCF5E06F3FF6AFAED1
:10088000B5EB030C04BFB6EB020C5FEA500C50F161
:10089000000041EB045170BD0EF0004E4EEA1131E4
:1008A00014EB5C04C2BFD4EB0C0541EA045170BDEB
:1008B00041F480114FF0000E013C90E645EA060E2F
:1008C0008DE60CEA135594EA0C0F08BF95EA0C0F5D
:1008D0003FF43BAF94EA0C0F0AD150EA01347FF4A5
:1008E00034AF95EA0C0F7FF425AF104619462CE77C
:1008F00095EA0C0F06D152EA03353FF4FDAE1046DF
:10090000194622E750EA410618BF52EA43067FF42F
:10091000C5AE50EA41047FF40DAF52EA43057FF4BF
:10092000EBAE12E700000000000000000000000035
:100930004FF0FF3C06E000BF4FF0010C02E000BFAB
:100940004FF0010C4DF804CD4FEA410C7FEA6C5C8E
:100950004FEA430C18BF7FEA6C5C1BD001B050EA31
:10096000410C0CBF52EA430C91EA030F02BF90EA1C
:10097000020F0020704710F1000F91EA030F58BFDB
:10098000994208BF90422CBFD8176FEAE37040F03D
:10099000010070474FEA410C7FEA6C5C02D150EADB
:1009A000013C07D14FEA430C7FEA6C5CD6D152EA96
:1009B000033CD3D05DF8040B704700BF844610465B
:1009C00062468C461946634600E000BF01B5FFF75A
:1009D000B7FF002848BF10F1000F01BD4DF808ED2A
:1009E000FFF7F4FF0CBF012000205DF808FB00BFFB
:1009F0004DF808EDFFF7EAFF34BF012000205DF855
:100A000008FB00BF4DF808EDFFF7E0FF94BF0120A1
:100A100000205DF808FB00BF4DF808EDFFF7CEFFA2
:100A200094BF012000205DF808FB00BF4DF808EDE1
:100A3000FFF7C4FF34BF012000205DF808FB00BFB2
:100A40004FEA4102B2F1E04324BFB3F5001CDCF1F0
:100A5000FE5C0DD901F0004C4FEAC0024CEA507028
:100A6000B2F1004F40EB830008BF20F00100704757
:100A700011F0804F21D113F13872BCBF01F000405A
:100A8000704741F480114FEA5252C2F11802C2F18C
:100A9000200C10FA0CF320FA02F018BF40F001000D
:100AA0004FEAC1234FEAD32303FA0CFC40EA0C00BF
:100AB00023FA02F34FEA4303CCE77FEA625307D1FC
:100AC00050EA01331EBF4FF0FE4040F44000704733
:100AD00001F0004040F0FE4040F40000704700BFCD
:100AE000844641EA000313F003036DD1403A41D339
:100AF00051F8043B40F8043B51F8043B40F8043BF8
:100B000051F8043B40F8043B51F8043B40F8043BE7
:100B100051F8043B40F8043B51F8043B40F8043BD7
:100B200051F8043B40F8043B51F8043B40F8043BC7
:100B300051F8043B40F8043B51F8043B40F8043BB7
:100B400051F8043B40F8043B51F8043B40F8043BA7
:100B500051F8043B40F8043B51F8043B40F8043B97
:100B600051F8043B40F8043B51F8043B40F8043B87
:100B7000403ABDD2303211D351F8043B40F8043B27
:100B800051F8043B40F8043B51F8043B40F8043B67
:100B900051F8043B40F8043B103AEDD20C3205D337
:100BA00051F8043B40F8043B043AF9D2043208D02F
:100BB000D2071CBF11F8013B00F8013B01D30B88A1
:100BC00003806046704700BF082A13D38B078DD07F
:100BD00010F003038AD0C3F10403D21ADB071CBF51
:100BE00011F8013B00F8013B80D331F8023B20F8BB
:100BF000023B7BE7043AD9D3013A11F8013B00F8F4
:100C0000013BF9D20B7803704B7843708B7883707B
:100C10006046704700000000000000000000000077
:100C2000704700BFAFF30080AFF30080AFF30080E8
:100C3000FEE700BFAFF30080AFF30080AFF30080AA
:100C400072B62C4C84F309882B4B4FF040421A604B
:100C50002A4B2A4A126842F470021A600024E1EE1C
:100C6000104A274B1C60062484F31488BFF36F8F4F
:100C7000244C254D04E023461C1D4FF055321A60CC
:100C8000AC42F8D3214C1B4D04E023461C1D4FF011
:100C900055321A60AC42F8D304F092FD1C4D1D4C45
:100CA00005E023461C1D2A46151D12681A601A4BC2
:100CB0009C42F6D3194C1A4D03E023461C1D00221A
:100CC0001A60AC42F9D3FFF7ABFF164C02E0236881
:100CD00098470434144B9C42F9D30CF0B9F8134CE8
:100CE00002E0236898470434114B9C42F9D3FFF784
:100CF0009FFF00BF0008002034EF00E088ED00E017
:100D00003CEF00E000000020000400200004002070
:100D100058FC000800080020540C0020580C00204B
:100D2000D81E0020880100089001000890010008EA
:100D300090010008AFF30080AFF30080AFF30080B4
:100D4000FEE700BFAFF30080AFF30080AFF3008099
:100D500072B6FEE7AFF30080AFF30080AFF3008020
:100D600008B500F05DFA202383F3118800F028FA1B
:100D700000F06EF900F03CFA002383F3118800F0D4
:100D80006FFA00F035F808BDAFF30080AFF30080D4
:100D900082B00A4B094A526822F001025A60EFF30E
:100DA00009830193019B68330193019B83F30988B5
:100DB000002383F3118802B0704700BF30EF00E0DA
:100DC00008B5094B00229A60074B084ADA600720F1
:100DD000102100F0C5F80A20202100F0C1F80B20F6
:100DE000802100F0BDF808BD00ED00E00003FA0529
:100DF00082B0202383F31188204B5B6803F40063E7
:100E0000002B35D0F1EE10FAEFF309830193019B2B
:100E1000683B0193019B4FF08072DA61019B83F381
:100E20000988174B9B6993F82330002B0BD0144B88
:100E30001B689A68124B9B699B689A4294BF002377
:100E40000123DBB20AE00E4B1B689A680C4B9B69CE
:100E50009B689A4234BF00230123DBB2002B03D0EE
:100E6000019B084A9A6106E0019B074A9A6102E0E9
:100E7000002383F3118802B0704700BF00ED00E04B
:100E800030120020910E00089C0E0008AFF3008085
:100E900000F066F900F02CFD00F07AF900DF00BFE9
:100EA00003460A462DE9F04F2DED108AC2F80CD00A
:100EB000D3F80CD0BDEC108ABDE8F08FAFF3008002
:100EC00008B500F065F9002383F311882846A04790
:100ED00000F066FE08BD00BFAFF30080AFF30080F6
:100EE00010B485B001900091019B03F00303DB0077
:100EF0000393194B019A9208174901988008C03052
:100F000051F820000399FF2404FA01F1C943084075
:100F10000399009C04FA01F10143C03243F8221006
:100F20000D4B019A5209019901F01F01012000FAAD
:100F300001F1603243F82210074B019A52090199DE
:100F400001F01F01012000FA01F143F8221005B061
:100F50005DF8044B704700BF00E100E0AFF3008094
:100F600010B485B001900091019B03F00303DB00F6
:100F700003930D4B019A92080B49019880080630A3
:100F800051F820000399FF2404FA01F1C9430840F5
:100F90000399009C04FA01F10143063243F8221040
:100FA00005B05DF8044B704700ED00E0AFF3008042
:100FB00082B00190024B9B69024A9A61FEE700BF32
:100FC00030120020A0EB0008AFF30080AFF30080E8
:100FD00000B583B0FFF7F4FE00F0B2FA00F0E8F9D4
:100FE00001F09EFB01F0F4FB00F08AF91248402169
:100FF00000F09EFC0246114B9A61104B9B69012246
:1010000083F820200D4B9B690D4ADA6100F090F8BF
:10101000002383F3118862B6084B9B69094A9A61E1
:101020000023009308484FF4B4710122074B00F0ED
:1010300027FD03B05DF804FBC00D00203012002036
:1010400000040020A0F50008580C0020B10F000893
:1010500000B583B000F024F9244B9B6993F823304A
:10106000002B07D0214B9B6993F82320013AD2B281
:1010700083F823201D4B9B695A6A01325A621C4B2C
:10108000DB685A1C1A4BDA60194B1A68184B9A42E3
:1010900029D0174B1B689A68013A9A601CE0019BA3
:1010A000DB680093019B0022DA60019B1B68104AF9
:1010B0005A60019B1A680E4B1A6000F099F80023E1
:1010C00083F31188019B1A69009B104698472023DF
:1010D00083F3118800F074F8054B1B680193019BA2
:1010E0009B68002BDBD003B05DF804FB30120020BE
:1010F00020120020AFF30080AFF30080AFF3008038
:1011000008B5064B1B68002B03D1054B1B68002B51
:1011100002D0044800F03CF908BD00BF0C0E0020CE
:10112000100E0020B0EB0008AFF30080AFF300809A
:1011300008B5064B1B68002B03D1054B1B68002B21
:1011400002D0044800F024F908BD00BF0C0E0020B6
:10115000100E0020C0EB0008AFF30080AFF300805A
:1011600008B5074B1B68002B03D1064B1B68002BEF
:1011700002D0054800F00CF9024B01221A6008BDAC
:101180000C0E0020100E0020C8EB0008AFF300800A
:1011900008B5074B1B68002B03D1064B1B68002BBF
:1011A00002DC054800F0F4F8024B00221A6008BD8A
:1011B0000C0E0020100E0020D0EB0008AFF30080D2
:1011C00008B5074B1B68002B03DD064B1B68002B83
:1011D00002D0054800F0DCF8024B01221A6008BD7D
:1011E0000C0E0020100E0020D8EB0008AFF300809A
:1011F00008B5074B1B68002B03DD064B1B68002B53
:1012000002DC054800F0C4F8024B00221A6008BD59
:101210000C0E0020100E0020E0EB0008AFF3008061
:1012200008B5202383F31188094B1B68002B03DBCF
:10123000084B1B68002B02D0074800F0A9F8044BAC
:101240001B685A1C024B1A60002383F3118808BDE7
:101250000C0E0020100E0020E8EB0008AFF3008019
:1012600008B5202383F31188094B1B68002B03DD8D
:10127000084B1B68002B02D0074800F089F8044B8C
:101280001B685A1E024B1A60002383F3118808BDA5
:101290000C0E0020100E0020F0EB0008AFF30080D1
:1012A00008B5064B1B68002B03DB054B1B68002BA6
:1012B00002DC044800F06CF808BD00BF0C0E0020F2
:1012C000100E0020F8EB0008AFF30080AFF30080B1
:1012D00008B5064B1B68002B03D1054B1B68002B80
:1012E00002DC044800F054F808BD00BF0C0E0020DA
:1012F000100E002000EC0008AFF30080AFF3008078
:10130000034B40221A60024B024A5A60704700BFEA
:10131000140E00201C0E0020AFF30080AFF30080FD
:1013200082B00190124B5B68124AD2681A60104B6F
:101330005B68114A92695A600D4B5B68019A926A28
:101340009A600B4B5B68019A92F820201A73084B45
:101350005B6803F11002064B5A60054B5A68074B55
:101360009A4202D3024B064A5A6002B0704700BF4D
:10137000140E002020120020301200201C12002029
:101380001C0E0020AFF30080AFF30080AFF30080AD
:1013900000B583B00190044B019A1A60FFF7D8FCA6
:1013A00003B05DF804FB00BF1C120020AFF3008007
:1013B000074B074A5A60064B5A68054B1A60044BA4
:1013C0004FF0FF329A60024B0022DA60704700BF94
:1013D00020120020AFF30080AFF30080AFF3008055
:1013E00000B587B00390029101920093FFF758FF78
:1013F000039B002B05D0019B002B02D0029B002BEE
:1014000002D11D48FFF7C4FF039B009A1A61039B9A
:10141000019ADA60194B1B68059307E0059B9B68EE
:10142000029AD31A0293059B1B680593059B9A6841
:10143000029B9A42F2D3039B059A1A60039B1B6896
:101440005A68039B5A60039B5B68059A0399516035
:10145000059A52681A60039B029A9A60059A074B94
:101460009A4205D0059B9A68029BD21A059B9A6006
:1014700007B05DF804FB00BF10EC0008201200204C
:1014800000B583B00190FFF70BFF019B002B02D149
:101490001348FFF77DFF019BDB68002B02D1114849
:1014A000FFF776FF019B1A680F4B9A4208D0019B09
:1014B0001B68019A12689168019A92680A449A60BE
:1014C000019B5B68019A12681A60019B1B68019A74
:1014D00052685A60019B0022DA6003B05DF804FB99
:1014E00020EC000830EC000820120020AFF3008050
:1014F00084B00190019B1B680393039B1A68019BB6
:101500001A60019B1B68019A5A60039B184604B03D
:10151000704700BFAFF30080AFF30080AFF30080EF
:1015200082B00190019B5B68019A12681A60019B6E
:101530001B68019A52685A60019B184602B07047B6
:10154000084B084A5A60074B5A68064B1A60054B0D
:1015500000229A60034B034A5A61024B5A69014BBD
:101560001A61704730120020AFF30080AFF30080A3
:1015700000B585B00190FFF793FE019B93F82030F2
:10158000002B04D0019B93F820300E2B02D113487E
:10159000FFF7FEFE019B002283F82020104B0393EF
:1015A000039B1B680393039B9A68019B9B689A4269
:1015B000F6D2019B039A1A60039B5A68019B5A60FA
:1015C000019B5B68039A01995160039A52681A6003
:1015D000019B184605B05DF804FB00BF50EC000805
:1015E00030120020AFF30080AFF30080AFF3008033
:1015F00000B585B003468DF80730FFF769FE164B3E
:101600009B690393039B9DF8072083F82020039B8D
:10161000142283F823201048FFF76AFF02460E4B7E
:101620009A610D4B9B69012283F820200398FFF7F4
:1016300077FE6B46A3F16402039BDB699A4202D2F8
:101640000648FFF7A5FE044B9B6918460399FFF770
:1016500027FC05B05DF804FB3012002064EC0008A4
:1016600000B585B00190019B0393202383F311887B
:10167000FFF7A6FD039B93F820300D2B2CD801A279
:1016800052F823F0BD160008D9160008D916000834
:10169000C9160008D9160008D3160008D916000884
:1016A000D9160008D9160008D9160008D91600085E
:1016B000D9160008D9160008D3160008FFF798FDC0
:1016C000002383F3118813E0039B9B6A9A6801321D
:1016D0009A600398FFF724FF039B4FF0FF329A6252
:1016E0000398FFF745FFFFF783FD002383F311887D
:1016F00005B05DF804FB00BFAFF30080AFF30080DE
:1017000000B589B0034600918DF80730FFF7E0FD82
:10171000009BB3F1FF3F15D0104B9B6903AA104605
:1017200000990F4AFFF75CFE9DF807301846FFF757
:101730005FFF069B002B04D003AB1846FFF7A0FE0B
:1017400005E004E09DF807301846FFF751FF034B12
:101750009B699B6A184609B05DF804FB30120020B3
:1017600061160008AFF30080AFF30080AFF3008094
:1017700000B585B001900091FFF7AAFD019B009A8A
:101780009A62019B9A68154B9B699B689A4203D8A1
:101790000198FFF7EDFE1DE0104B9B691846FFF71F
:1017A000E7FE03900D4B019A9A61019B012283F899
:1017B00020200398FFF7B4FD6B46A3F16402039B5E
:1017C000DB699A4202D20648FFF7E2FD01980399CD
:1017D000FFF766FB05B05DF804FB00BF3012002088
:1017E00064EC0008AFF30080AFF30080AFF300803B
:1017F00000B583B0154B9B6901931448FFF778FE41
:101800000246124B9A61114B9B69012283F82020FA
:10181000019B142283F823200198FFF7A9FE019869
:10182000FFF77EFD6B46A3F16402019BDB699A42E0
:1018300002D20748FFF7ACFD044B9B69184601999B
:10184000FFF72EFB03B05DF804FB00BF3012002051
:1018500064EC0008AFF30080AFF30080AFF30080CA
:1018600000B583B0204B9B6900931F48FFF740FEF3
:1018700002461D4B9A611C4B9B69012283F8202074
:10188000009B002283F82020174B0193019B1B68CB
:101890000193019B9A68009B9B689A42F6D8009B33
:1018A000019A1A60019B5A68009B5A60009B5B6812
:1018B000019A00995160019A52681A600098FFF7E6
:1018C0002FFD6B46A3F16402009BDB699A4202D2B2
:1018D0000648FFF75DFD044B9B6918460099FFF72A
:1018E000DFFA03B05DF804FB3012002064EC00085E
:1018F00008B5064B9B6993F82330002B02D1FFF704
:1019000077FF01E0FFF7ACFF08BD00BF30120020F9
:1019100084B00190019B1B680393039B1A68019B91
:101920001A60039B184604B0704700BFAFF30080F5
:1019300082B001900091019B009A9A60019B022263
:1019400083F82020019B002283F82120019B142290
:1019500083F82320019B009A5A64019B00221A6499
:10196000019B0022DA63019B00225A62019B012243
:1019700083F82220019B00229A61019B124A1A617E
:10198000114B5A69019B5A61019B5B690E4A01998F
:1019900051610D4A52691A61019B03F12C02019BAE
:1019A000DA62019B03F13002019B5A63019B5A6B7F
:1019B000019B1A63019B03F14C02019BDA61019BBD
:1019C000184602B0704700BF30120020AFF300800D
:1019D00084B00390029113468DF8073005E0039B15
:1019E0005A1C03929DF807201A70039A029B9A4290
:1019F000F5D304B0704700BFAFF30080AFF30080B1
:101A000000B587B00390029101920093039B059368
:101A1000FFF746FC039B002B09D0029BB3F5AC7F7C
:101A200005D3019B7F2B02D8009B002B02D10F48CE
:101A3000FFF7AEFC029B643B039A1A44059BDA60F5
:101A4000059BDB68009A1A64059BDB68089A5A6458
:101A5000059BDB68064A1A6605980199FFF768FF3F
:101A60000346184607B05DF804FB00BF80EC000891
:101A7000C10E0008AFF30080AFF30080AFF3008029
:101A800000B589B00590049103920293059B4C33F5
:101A900005981946FF22FFF79BFF059B03F14C02B7
:101AA0000599049B0B44104619465522FFF790FFF9
:101AB000202383F31188FFF753FB0A9B00930598BB
:101AC0000499039A029BFFF79BFF07900798002158
:101AD000FFF74EFEFFF75CFB002383F31188079BA3
:101AE000184609B05DF804FBAFF30080AFF3008047
:101AF00000B583B00190019B002B02D10948FFF78C
:101B000047FC202383F31188FFF72AFB0620019965
:101B1000FFF7F6FDFFF73CFB002383F3118803B0CA
:101B20005DF804FBC0EC0008AFF30080AFF3008069
:101B300000B583B00190202383F31188FFF710FBD9
:101B4000094BDB68019AD31A0193019B002B03D048
:101B500006200199FFF7D4FDFFF71AFB002383F35A
:101B6000118803B05DF804FB20120020AFF3008061
:101B700008B5202383F31188FFF7F2FA074B1B689F
:101B80009A68064B9B699B689A4201D3FFF730FE27
:101B9000FFF7FEFA002383F3118808BD30120020FE
:101BA00000B583B00190202383F31188FFF7D8FAA2
:101BB000019800F005F803B05DF804FBAFF3008076
:101BC00000B585B00190184B9B690393039B019A64
:101BD0009A6208E0039B2C331846FFF799FE0346F0
:101BE0001846FFF7C5FC039BDA6A039B2C339A4225
:101BF000F0D1039B93F8213003F00303002B09D1AC
:101C0000039B5B69039A12691A61039B1B69039A20
:101C100052695A610E20FFF7EBFC0448FFF7B8FB4E
:101C200005B05DF804FB00BF30120020D0EC0008C6
:101C300000B589B005900491039202930598049928
:101C400000F0DEFD0790079B002B01D100232DE063
:101C5000079B4C3307981946FF22FFF7B9FE079BF5
:101C600003F14C020799049B0B4410461946552278
:101C7000FFF7AEFE202383F31188FFF771FA0A9B6A
:101C8000009307980499039A029BFFF7B9FE069008
:101C9000069B012283F8212006980021FFF768FDAA
:101CA000FFF776FA002383F31188069B184609B0E4
:101CB0005DF804FBAFF30080AFF30080AFF300806A
:101CC00084B001900091009B0393039B1B680393D6
:101CD000039A009B9A4205D0039B9A68019B9B68DC
:101CE0009A42F2D2019B039A1A60039B5A68019BA5
:101CF0005A60019B5B68039A01995160039A52688C
:101D00001A6004B0704700BFAFF30080AFF30080EB
:101D100084B00190019B1B680393039B1A68019B8D
:101D20001A60019B1B68019A5A60039B184604B015
:101D3000704700BFAFF30080AFF30080AFF30080C7
:101D400082B00190019B5B68019A12681A60019B46
:101D50001B68019A52685A60019B184602B070478E
:101D600000B583B00190019B002B02D10748FFF71B
:101D70000FFB019A019B5A60019B5A68019B1A60F4
:101D8000019B00229A6003B05DF804FB20ED00087F
:101D900000B583B00190202383F31188FFF7E0F9A9
:101DA000019800F00DF8FFF7F3F9002383F3118891
:101DB00003B05DF804FB00BFAFF30080AFF3008019
:101DC00000B585B001903C4B9B690293FFF780FA08
:101DD000019B002B02D13948FFF7DAFA019B9B687F
:101DE000002B5BD0019B9B68039334E0029B9A68B5
:101DF000039B9A60039B93F82030042B04D0052B9F
:101E000011D0002B1AD02CE00398FFF799FF02465F
:101E1000039B9B6A10461946FFF752FF039B9B6A80
:101E20009B68039317E00398FFF78AFF0246039B22
:101E30009B6A10461946FFF743FF0BE0039B012204
:101E400083F820200398FFF77BFF03461846FFF72F
:101E50008FFB00BF05E0039B9A68029B9B689A4238
:101E6000C4D3019B02981946FFF72AFF029B019AEF
:101E70009A620420FFF7BCFB019B9A68029B9A427E
:101E800002D00F48FFF784FA029B1A6C019B9A421A
:101E900003D00C48FFF77CFA0AE009E0019B029AA4
:101EA0009A60029B1A6C019BDA60029B019A1A6489
:101EB00005B05DF804FB00BF3012002030ED0008D3
:101EC00040ED000854ED0008AFF30080AFF3008050
:101ED00000B587B0314B9B690393202383F31188AE
:101EE000FFF73EF9039B1B6C002B02D12C48FFF738
:101EF0004FFA039B1B6C9A68039B9A4202D02948B5
:101F0000FFF746FA039B1B6C0293029BDA68039B64
:101F10001A64029B1A68029B9A4232D0039B5B6C44
:101F20000493039B1B6C059311E0059B1A68059BAA
:101F30009A4209D0059B1B689A68049B9A4203D970
:101F4000059B1B689B680493059BDB680593059BB9
:101F5000002BEAD1039B049A9A60029B1846FFF774
:101F6000D7FE0190029B019A9A60019B1A6C029B1A
:101F7000DA60019B029A1A6401980021FFF7F8FBCE
:101F800002E0029B00229A60FFF702F9002383F32C
:101F90001188029B184607B05DF804FB3012002040
:101FA0007CED000890ED0008AFF30080AFF30080F7
:101FB00000B587B02D4B9B690393FFF789F9039B0D
:101FC0001B6C002B02D12A48FFF7E2F9039B1B6C24
:101FD0009A68039B9A4202D02648FFF7D9F9039BDF
:101FE0001B6C0293029BDA68039B1A64029B1A68BB
:101FF000029B9A4231D0039B5B6C0493039B1B6C46
:10200000059311E0059B1A68059B9A4209D0059B30
:102010001B689A68049B9A4203D9059B1B689B68BE
:102020000493059BDB680593059B002BEAD1039B7A
:10203000049A9A60029B1846FFF76AFE0190029B81
:10204000019A9A60019B1A6C029BDA60019B029ACA
:102050001A640198FFF78CFA02E0029B00229A6052
:10206000029B184607B05DF804FB00BF3012002049
:10207000A4ED0008B8ED0008AFF30080AFF30080D6
:1020800000B585B001900091FFF70AF9019B002B84
:1020900002D10F48FFF77CF9019B1B68039310E006
:1020A000039BDA68009B1A43039BDA60039B5A6820
:1020B000039B9B681046194600F012F8039B1B68AF
:1020C0000393039A019B9A42EAD105B05DF804FBA1
:1020D000FCED0008AFF30080AFF30080AFF30080A9
:1020E00000B583B001900091FFF7DAF8019B002B57
:1020F00002D11648FFF74CF9019BDA6B009B1A439B
:10210000019BDA63019B93F82030082B06D1019BD9
:10211000DA6B019B9B6A1340002B0DD1019B93F856
:102120002030092B0ED1019BDA6B019B9B6A1A4070
:10213000019B9B6A9A4205D10198FFF719FA034661
:1021400000229A6203B05DF804FB00BF24EE000891
:1021500000B585B001900091204B9B69029320232C
:1021600083F31188FEF7FCFF029BDA6B019B13409F
:102170000393039B002B1FD1009B002B06D1FFF77D
:1021800007F8002383F31188002322E0029B019AC1
:102190009A6208200099FFF7B3FA0346002B06DA8B
:1021A000FEF7F6FF002383F31188002311E0029B62
:1021B000DA6B019B13400393029BDA6B039BDB43B7
:1021C0001A40029BDA63FEF7E3FF002383F31188D2
:1021D000039B184605B05DF804FB00BF30120020D9
:1021E00082B001900091019B009A1A60009B5A688E
:1021F000019B5A60019B5B68009A01995160009AAB
:1022000052681A6002B07047AFF30080AFF30080ED
:1022100084B00190019B1B680393039B1A68019B88
:102220001A60019B1B68019A5A60039B184604B010
:10223000704700BFAFF30080AFF30080AFF30080C2
:1022400000B583B001900091009B002B02D14FF0AC
:10225000FF330FE0094B9B69019A9A62074B9A6919
:10226000019B10461946FFF7BBFF0D200099FFF7B1
:1022700047FA0346184603B05DF804FB301200200D
:1022800084B00390029101920093039A039B5A60D9
:10229000039B5A68039B1A60039B00229A60039B6E
:1022A000029A5A61039B5A69039B9A61039B9A693C
:1022B000039BDA60029A019B1A44039B1A61039BF9
:1022C000009ADA61039B049A1A6204B0704700BF57
:1022D00000B583B001900B468DF80330FEF7E0FFA8
:1022E000019B5A69019B9B699A4205D1019B9B689E
:1022F000002B01D0012300E0002303F00103DBB237
:10230000002B02D06FF0030327E0019B9B685A1C4F
:10231000019B9A60019B5B69591C019A51619DF870
:1023200003201A70019B5A69019B1B699A4203D3CF
:10233000019BDA68019B5A61019B1A68019B9A42D2
:102340000AD0019B1846FFF763FF03461846FFF7C4
:102350000FF9034600229A620023184603B05DF885
:1023600004FB00BFAFF30080AFF30080AFF3008049
:1023700000B585B001900091202383F31188FEF70A
:10238000EFFE019BDB69002B04D0019BDB69019808
:1023900098470FE00EE001980099FFF751FF039076
:1023A000039B002B06DAFEF7F3FE002383F311886C
:1023B000039B21E0019B9B68002BECD0019B9B6859
:1023C0005A1E019B9A60019B9B69591C019A91615D
:1023D0001B788DF80B30019B9A69019B1B699A420F
:1023E00003D3019BDA68019B9A61FEF7D1FE0023BB
:1023F00083F311889DF80B30184605B05DF804FB97
:1024000000B587B00390029101920093039BDB69B2
:10241000049300230593019B002B02D12A48FEF769
:10242000B7FF202383F31188FEF79AFE049B002B4D
:1024300003D0049B039898470EE00DE003980099A1
:10244000FFF7FEFE0346002B06D0FEF7A1FE002399
:1024500083F31188059B32E0039B9B68002BEDD032
:10246000039B9B685A1E039B9A60029B5A1C029214
:10247000039A9269501C0399886112781A70039B21
:102480009A69039B1B699A4203D3039BDA68039BF7
:102490009A61FEF77DFE002383F31188059B0133CB
:1024A0000593019B013B0193019B002B01D1059BEF
:1024B00005E0202383F31188FEF752FEB6E71846A5
:1024C00007B05DF804FB00BF60EE0008AFF30080CA
:1024D00084B00390029101920093039A039B5A6087
:1024E000039B5A68039B1A60039B019A9A60039BA3
:1024F000029A5A61039B5A69039B9A61039B9A69EA
:10250000039BDA60029A019B1A44039B1A61039BA6
:10251000009ADA61039B049A1A6204B0704700BF04
:1025200000B587B003900B4601928DF80B30202345
:1025300083F31188FEF714FE0EE003980199FFF76C
:102540007FFE0590059B002B06DAFEF721FE002397
:1025500083F31188059B28E0039B9B68002BECD03C
:10256000039B9B685A1E039B9A60039B5B69591CE3
:10257000039A51619DF80B201A70039B5A69039BC3
:102580001B699A4203D3039BDA68039B5A61039B3E
:10259000DB69002B03D0039BDB6903989847FEF7A8
:1025A000F7FD002383F311880023184607B05DF878
:1025B00004FB00BFAFF30080AFF30080AFF30080F7
:1025C00000B585B00190FEF76BFE019B5A69019B37
:1025D0009B699A4205D1019B9B68002B01D0012386
:1025E00000E0002303F00103DBB2002B02D06FF008
:1025F000020328E0019B9B685A1C019B9A60019B87
:102600009B69591C019A91611B788DF80F30019BD1
:102610009A69019B1B699A4203D3019BDA68019B6B
:102620009A61019B1A68019B9A420AD0019B184645
:10263000FFF7EEFD03461846FEF79AFF0346002219
:102640009A629DF80F30184605B05DF804FB00BF94
:1026500000B587B00390029101920093039BDB6960
:10266000049300230593019B002B02D12A48FEF717
:102670008FFE202383F31188FEF772FD0DE003988F
:102680000099FFF7DDFD0346002B06D0FEF780FD25
:10269000002383F31188059B39E0039B9B68002B83
:1026A000EDD0039B9B685A1E039B9A60039B5B695A
:1026B000591C039A5161029A511C029112781A70A6
:1026C000039B5A69039B1B699A4203D3039BDA68F5
:1026D000039B5A61049B002B02D0049B03989847EC
:1026E000FEF756FD002383F31188059B0133059304
:1026F000019B013B0193019B002B01D1059B06E04F
:10270000202383F31188FEF72BFD00BFC5E7184691
:1027100007B05DF804FB00BF74EE0008AFF3008063
:10272000064B073323F007031A46054B1A60054B87
:1027300023F007031A46044B1A607047D81E002086
:102740004C12002000A0002050120020AFF30080A7
:1027500000B585B00190202383F31188FEF700FDBA
:10276000019800F00DF80390FEF712FD002383F3AB
:102770001188039B184605B05DF804FBAFF3008099
:1027800000B585B00190FEF78BFD019B073323F068
:10279000070301930C4B1B681A460C4B1B68D31A9A
:1027A0001A46019B9A4201D2002309E0074B1B689D
:1027B0000393064B1A68019B1A44044B1A60039B4F
:1027C000184605B05DF804FB501200204C120020A2
:1027D00008B5064B064A1A60044B00229A60034B68
:1027E0000022DA600348FFF7BBFA08BD5812002048
:1027F0005127000868120020AFF30080AFF300807B
:1028000000B587B001900091019B002B01D1344BA2
:102810000193009B073323F007030093019B0833C8
:102820000593019B10331846FFF7B2FA33E0059B7E
:102830001B680493049B5A68009B9A4229D3049B0B
:102840005A68009B08339A4204D2049B1A68059B7D
:102850001A6016E0009B0833049A13440393049B08
:102860001A68039B1A60049B5A68009BD31AA3F151
:102870000802039B5A60059B039A1A60049B009A06
:102880005A60049B019A1A60FFF722FB049B0833ED
:1028900021E0049B0593059B1B68002BC7D1FFF724
:1028A00017FB019B1B68002B14D0019B1B68009A2F
:1028B0000832104698470490049B002B0AD0049BD2
:1028C000019A1A60049B009A5A60049B083304938F
:1028D000049B00E00023184607B05DF804FB00BF2E
:1028E00058120020AFF30080AFF30080AFF30080F8
:1028F00000B587B00190019B002B02D13948FEF74B
:1029000047FD019B083B0493049B1B680393039BB7
:1029100008330593039B10331846FFF739FA049ADE
:10292000059B9A420AD3059B5B680833059A1A44B3
:10293000049B9A4202D92C48FEF72AFD039B03F11F
:102940000802059B9A4203D0049A059B9A423ED9FD
:10295000059B1B68002B04D0059B1A68049B9A42B8
:1029600035D9059B1A68049B1A60059B049A1A6066
:10297000049B5B680833049A1A44049B1B689A42C0
:102980000ED1049B5A68049B1B685B68134403F1D7
:102990000802049B5A60049B1B681A68049B1A6017
:1029A000059B5B680833059A1A44049B9A420DD133
:1029B000059B5A68049B5B68134403F10802059B5E
:1029C0005A60049B1A68059B1A6004E003E0059BAB
:1029D0001B680593A3E7FFF77BFA00BF07B05DF81C
:1029E00004FB00BFA0EE0008B0EE0008AFF30080CB
:1029F00000B585B0039002910192039B002B02D099
:102A0000029B032B02D80748FEF7C2FC039B00225F
:102A10001A60039B029A5A60039B019A9A6005B060
:102A20005DF804FBD0EE0008AFF30080AFF3008048
:102A300000B585B0039002910192039B002B02D058
:102A4000019B002B03D10B48FEF7A2FC0CE00BE02E
:102A50000398029900F064F8039B5B68029A1344A0
:102A60000293019B013B0193019B002BF0D105B028
:102A70005DF804FBE0EE0008AFF30080AFF30080E8
:102A800000B585B00190FEF70BFC019B002B02D135
:102A90000F48FEF77DFC019B1B680393039B002BF3
:102AA00005D0019B1B681A68019B1A600AE0019B14
:102AB0009B68002B06D0019B9B68019A52681046C8
:102AC00098470390039B184605B05DF804FB00BFD0
:102AD000F4EE0008AFF30080AFF30080AFF30080A6
:102AE00000B585B001900091009B0393FEF7D8FBE1
:102AF000019B002B02D0009B002B02D10648FEF761
:102B000047FC019B1A68039B1A60019B039A1A6099
:102B100005B05DF804FB00BF08EF0008AFF30080CC
:102B200000B583B001900091202383F31188FEF754
:102B300017FB01980099FFF7D3FFFEF729FB00234D
:102B400083F3118803B05DF804FB00BFAFF300808E
:102B500008B500F0F5FD074801F07AFC00F010F828
:102B600000F036F800F06CF900F0D2F902F030FE17
:102B700008BD00BF70F60008AFF30080AFF300801F
:102B800008B500F0CDFF08BDAFF30080AFF30080C3
:102B900000B583B00190019B01221A70019B0022B5
:102BA0005A60019B00229A60019B0022DA60019B1F
:102BB00000221A61019B00225A61019B18331846BA
:102BC000FFF7CEF803B05DF804FB00BFAFF3008061
:102BD00008B501F04DFA08BDAFF30080AFF30080F7
:102BE00082B00190019B01221A70019B00225A6061
:102BF00002B07047AFF30080AFF30080AFF3008006
:102C000000B583B001900091019B002B02D0009B86
:102C1000002B02D11148FEF7BBFB202383F3118860
:102C2000FEF79EFA019B1B78012B06D0019B1B78B7
:102C3000022B02D00A48FEF7ABFB019B009A5A60B8
:102C4000019801F01DFA019B02221A70FEF7A0FA0A
:102C5000002383F3118803B05DF804FB20EF000824
:102C600030EF0008AFF30080AFF30080AFF30080D7
:102C700000B583B001900091019B002B02D0009B16
:102C8000212B02D91148FEF783FB202383F31188FF
:102C9000FEF766FA019B1B78022B08D1019B5B684B
:102CA000009A53F8323003F00303002B02D1084896
:102CB000FEF76EFB0198009901F00AFAFEF768FA38
:102CC000002383F3118803B05DF804FB5CEF000878
:102CD00074EF0008AFF30080AFF30080AFF3008023
:102CE00000B585B0039002910192039B30331846E2
:102CF0000299019A4FF0FF33FFF7AAFC03461846EA
:102D000005B05DF804FB00BFAFF30080AFF30080B7
:102D100000B585B0039002910192039B0C331846D5
:102D20000299019A4FF0FF33FFF76AFB03461846FA
:102D300005B05DF804FB00BFAFF30080AFF3008087
:102D400000B583B001900B468DF80330019B03F171
:102D500030029DF80330104619464FF0FF32FFF75E
:102D6000DFFB0346184603B05DF804FBAFF30080B9
:102D700000B583B00190019B0C3318464FF0FF3132
:102D8000FFF7F6FA0346184603B05DF804FB00BFF0
:102D900000B585B003900B4601928DF80B30039B74
:102DA00003F130029DF80B3010461946019AFFF7E7
:102DB000B7FB0346184605B05DF804FBAFF300808F
:102DC00000B583B001900091019B0C331846009927
:102DD000FFF7CEFA0346184603B05DF804FB00BFC8
:102DE00000B585B00390029101920093039B3033AC
:102DF00018460299019A009BFFF72AFC03461846E1
:102E000005B05DF804FB00BFAFF30080AFF30080B6
:102E100000B585B00390029101920093039B0C339F
:102E200018460299019A009BFFF7EAFA03461846F2
:102E300005B05DF804FB00BFAFF30080AFF3008086
:102E400008B501F04DFE08BDAFF30080AFF3008080
:102E500000B587B0059004910392059B124A1A6051
:102E6000059B1A1D059B5A60059B01221A72059B42
:102E700003F10C02059B5433059900911046194645
:102E80001022049BFFF7FCF9059B03F13002059B20
:102E9000643305990091104619461022039BFFF7F1
:102EA00017FB07B05DF804FBC0F50008AFF3008026
:102EB00000B583B001900B468DF80330FEF7F0F9B2
:102EC000019B002B02D11148FEF762FA019B5B695E
:102ED000002B05D1019B043318460421FFF7D0F8DD
:102EE000019B03F10C029DF8033010461946FFF7D1
:102EF000EFF90346002B05DA019B043318468021C5
:102F0000FFF7BEF803B05DF804FB00BF28F000082F
:102F100008B501F055FB08BDAFF30080AFF30080AA
:102F200000B583B00190019B01221A70019B002221
:102F30005A60019B00229A60019B0C331846FEF7F1
:102F40000FFF03B05DF804FBAFF30080AFF3008028
:102F500000B583B001900091019B002B02D0009B33
:102F6000002B02D11148FEF713FA202383F31188B6
:102F7000FEF7F6F8019B1B78012B06D0019B1B780E
:102F8000022B02D00A48FEF703FA019B009A5A600E
:102F9000019801F03DFB019B02221A70FEF7F8F840
:102FA000002383F3118803B05DF804FB50F00008A0
:102FB00060F00008AFF30080AFF30080AFF3008053
:102FC00000B585B00390029101920093039B002B02
:102FD00008D0029B002B05D0009B002B02D0019B48
:102FE000002B02D11A48FEF7D3F9202383F311886E
:102FF000FEF7B6F8039B1B78022B02D01548FEF7AC
:10300000C7F9039B5B681B68002B02D01248FEF7D0
:10301000BFF9039B03221A7003980299019A009B3F
:1030200001F096FB039B9B68002B02D00B48FEF738
:10303000AFF90B4B9A69039B9A600220FEF7D8FA0E
:10304000FEF7A6F8002383F3118805B05DF804FBB2
:10305000C4F10008D4F10008E8F10008B4F1000858
:1030600030120020AFF30080AFF30080AFF3008098
:1030700000B585B0039002910192039B002B05D00F
:10308000029B002B02D0019B002B02D11A48FEF7B5
:103090007FF9202383F31188FEF762F8039B1B78E6
:1030A000022B02D01548FEF773F9039B5B681B687F
:1030B000002B02D01248FEF76BF9039B03221A7013
:1030C00003980299019A01F083FB039B9B68002BF4
:1030D00002D00C48FEF75CF90B4B9A69039B9A608F
:1030E0000220FEF785FAFEF753F8002383F31188D8
:1030F00005B05DF804FB00BFFCF1000808F2000811
:1031000018F20008B4F1000830120020AFF300807C
:1031100000B585B0039002910192039B002B05D06E
:10312000029B002B02D0019B002B02D11A48FEF714
:103130002FF9202383F31188FEF712F8039B1B78E5
:10314000022B02D01548FEF723F9039B5B681B682E
:10315000002B02D01248FEF71BF9039B03221A70C2
:1031600003980299019A01F073FB039B9B68002B63
:1031700002D00C48FEF70CF90B4B9A69039B9A603E
:103180000220FEF735FAFEF703F8002383F31188D7
:1031900005B05DF804FB00BF28F2000838F2000813
:1031A0004CF20008B4F1000830120020AFF30080A8
:1031B00000B583B00190019B002B02D10548FEF7BA
:1031C000E7F8019B0C331846FEF7E2FD03B05DF80B
:1031D00004FB00BF60F20008AFF30080AFF3008093
:1031E00000B583B00190019B002B02D10348FEF78C
:1031F000CFF8FEF76DFE03B05DF804FB74F2000833
:1032000000B583B0FEF70CF80C4B1B6803F00F03FE
:1032100001930A4B019A5A60094B1B68002B06D098
:10322000074B1B68064A5268104601999847FEF7FB
:1032300017F8FDF7DDFD03B05DF804FB0000024068
:103240007C120020AFF30080AFF30080AFF300806A
:1032500000B583B0FDF7E4FF0D4B1B681B0903F0BD
:103260000F0301930A4B019A12015A60094B9B68A4
:10327000002B06D0074B9B68064AD268104601997E
:103280009847FDF7EDFFFDF7B3FD03B05DF804FBD4
:10329000000002407C120020AFF30080AFF30080FA
:1032A00000B583B0FDF7BCFF0D4B1B681B0A03F094
:1032B0000F0301930A4B019A12025A60094B1B69D2
:1032C000002B06D0074B1B69064A5269104601992C
:1032D0009847FDF7C5FFFDF78BFD03B05DF804FBD4
:1032E000000002407C120020AFF30080AFF30080AA
:1032F00000B583B0FDF794FF0D4B1B681B0B03F06B
:103300000F0301930A4B019A12035A60094B9B6900
:10331000002B06D0074B9B69064AD26910460199DB
:103320009847FDF79DFFFDF763FD03B05DF804FBD3
:10333000000002407C120020AFF30080AFF3008059
:1033400000B583B0FDF76CFF0D4B1B681B0C03F041
:103350000F0301930A4B019A12045A60094B1B6A2E
:10336000002B06D0074B1B6A064A526A1046019989
:103370009847FDF775FFFDF73BFD03B05DF804FBD3
:10338000000002407C120020AFF30080AFF3008009
:1033900000B583B0FDF744FF0D4B1B681B0D03F018
:1033A0000F0301930A4B019A12055A60094B9B6A5D
:1033B000002B06D0074B9B6A064AD26A1046019939
:1033C0009847FDF74DFFFDF713FD03B05DF804FBD3
:1033D000000002407C120020AFF30080AFF30080B9
:1033E00000B583B0FDF71CFF0D4B1B681B0E03F0EF
:1033F0000F0301930A4B019A12065A60094B1B6B8B
:10340000002B06D0074B1B6B064A526B10460199E6
:103410009847FDF725FFFDF7EBFC03B05DF804FBD3
:10342000000002407C120020AFF30080AFF3008068
:1034300000B583B0FDF7F4FE0C4B1B6803F00F03DF
:1034400001930A4B019A5A60094B9B6B002B06D0E3
:10345000074B9B6B064AD26B104601999847FDF7C4
:10346000FFFEFDF7C5FC03B05DF804FB000402405D
:103470007C120020AFF30080AFF30080AFF3008038
:1034800000B583B0FDF7CCFE0D4B1B681B0903F0A4
:103490000F0301930A4B019A12015A60094B1B6CEE
:1034A000002B06D0074B1B6C064A526C1046019944
:1034B0009847FDF7D5FEFDF79BFC03B05DF804FBD4
:1034C000000402407C120020AFF30080AFF30080C4
:1034D00000B583B0FDF7A4FE0D4B1B681B0A03F07B
:1034E0000F0301930A4B019A12025A60094B9B6C1D
:1034F000002B06D0074B9B6C064AD26C10460199F4
:103500009847FDF7ADFEFDF773FC03B05DF804FBD3
:10351000000402407C120020AFF30080AFF3008073
:1035200000B583B0FDF77CFE0D4B1B681B0B03F051
:103530000F0301930A4B019A12035A60094B1B6D4A
:10354000002B06D0074B1B6D064A526D10460199A1
:103550009847FDF785FEFDF74BFC03B05DF804FBD3
:10356000000402407C120020AFF30080AFF3008023
:1035700000B583B0FDF754FE0D4B1B681B0C03F028
:103580000F0301930A4B019A12045A60094B9B6D79
:10359000002B06D0074B9B6D064AD26D1046019951
:1035A0009847FDF75DFEFDF723FC03B05DF804FBD3
:1035B000000402407C120020AFF30080AFF30080D3
:1035C00082B0124B00221A600023019311E01049CF
:1035D000019A13465B0013449B000B441B680022B6
:1035E0001A600C4B019A002143F83210019B013301
:1035F0000193019B0B2BEADD074B4FF0FF325A6022
:10360000064B4FF0FF325A6002B07047781200202C
:10361000E0F500087C120020000002400004024097
:1036200000B585B00390029101920093039B002B9B
:1036300002D13348FDF7ACFE039B5B7A012202FA0C
:1036400003F31A462F4B1B681340002B01D00123B4
:1036500051E0039B5B7A1A462B4B019943F83210D9
:10366000039B5B7A284ADB001344009A5A60039B51
:103670005B7A012202FA03F31A46224B1B681A43B3
:10368000204B1A601F4B1B6803F07F03002B05D0F3
:103690001E4B1E4A526942F001025A61194B1B68C7
:1036A00003F47863002B05D0184B184A526942F096
:1036B00002025A61039B1B68039A1268126822F087
:1036C0000F021A60039B5B68039A127A0F2101FABA
:1036D00002F21A60039B1B6800221A60019B002BF8
:1036E00008D0039B9B7A1A46029B1B011046194681
:1036F000FDF7F6FB0023184605B05DF804FB00BF9C
:1037000090F20008781200207C1200200010024085
:10371000094B094A126842F480721A60074B1B6A0F
:1037200003F44073002B06D0044B4FF480321A622E
:10373000024B00221A6270470070004000100240E5
:1037400008B5234B1B69224B4FF0FF321A61204B07
:1037500000221A611E4BDB681D4B4FF0FF32DA600E
:103760001B4B0022DA601A4B9B6A194B4FF0FF3259
:103770009A62174B00229A62164B174A5A60154BF1
:1037800000229A60134B07221A60144B134AD26826
:1037900042F08072DA60124B114A126842F0010264
:1037A0001A600B4B0A4AD26942F08052DA61FFF785
:1037B000AFFFFFF705FF064B054A926942F0010291
:1037C0009A61084B074A126842F020021A6008BD4D
:1037D0000010024010E000E03F190100F0ED00E0B1
:1037E000001000E000000140AFF30080AFF3008064
:1037F000284B284A126842F001021A6000BF254B8C
:103800001B6803F00203002BF9D0224B214A1268F7
:1038100002F0F9021A601F4B00225A6000BF1D4BD4
:103820005B6803F00C03002BF9D11A4B194A12689C
:1038300042F4A0221A6000BF164B1B6803F4003349
:10384000002BF9D0134B144A5A60124B42F2021269
:10385000DA62104B30221A630E4B0E4A126842F0A5
:1038600080721A6000BF0B4B1B6803F00073002BC3
:10387000F9D00A4B12221A60064B064A526842F0EF
:1038800002025A6000BF034B5B6803F00C03082B75
:10389000F9D170470010024000241D0000200240B2
:1038A00082B00190019BDB6A9B6803F00403002B4C
:1038B0000FD0019BDB6A019AD26A926842F0100233
:1038C0009A6000BF019BDB6A9B6803F01003002B2A
:1038D000F8D102B0704700BFAFF30080AFF30080B3
:1038E00000B587B001900091019B1B69002B00F08F
:1038F000F280009B03F01003002B3BD0019B1B6B5D
:103900001B685B68002B35D0019800F029F9019BFA
:103910001B699B68002B0FD0019B05221A70019B2D
:103920001B699B68019801219847019B1B78052B17
:1039300002D1019B02221A70019B00221A612023EE
:1039400083F31188FDF73CFC019B5B69002B0CD0D5
:10395000019B5B690593019B00225A61059B4FF017
:10396000FF329A620598FDF703FEFDF741FC002344
:1039700083F31188009B03F08003002B35D001985E
:1039800000F0EEF8019B1B699B68002B0FD0019B98
:1039900005221A70019B1B699B68019802219847B8
:1039A000019B1B78052B02D1019B02221A70019BFF
:1039B00000221A61202383F31188FDF701FC019B8B
:1039C0005B69002B0CD0019B5B690493019B002277
:1039D0005A61049B4FF0FF329A620498FDF7C8FDCC
:1039E000FDF706FC002383F31188009B03F480732A
:1039F000002B35D0019800F0B3F8019B1B699B6840
:103A0000002B0FD0019B05221A70019B1B699B683C
:103A1000019803219847019B1B78052B02D1019B3C
:103A200002221A70019B00221A61202383F311885D
:103A3000FDF7C6FB019B5B69002B0CD0019B5B690A
:103A40000393019B00225A61039B4FF0FF329A625D
:103A50000398FDF78DFDFDF7CBFB002383F3118861
:103A6000009B03F40073002B35D0019800F078F828
:103A7000019B1B699B68002B0FD0019B05221A70CC
:103A8000019B1B699B68019804219847019B1B7847
:103A9000052B02D1019B02221A70019B00221A61A0
:103AA000202383F31188FDF78BFB019B5B69002BBF
:103AB0000CD0019B5B690293019B00225A61029B1F
:103AC0004FF0FF329A620298FDF752FDFDF790FB2E
:103AD000002383F3118807B05DF804FBAFF3008087
:103AE00000B583B0FDF79CFB4FF0A0431B6801932A
:103AF0004FF0A043019A1A6005480199FFF7F0FEC4
:103B0000FDF7AEFBFDF774F903B05DF804FB00BFF1
:103B1000DC120020AFF30080AFF30080AFF3008031
:103B200008B50B48FFF734F8094B0A4A9A62084B6C
:103B30004FF0A042DA62064B074A1A63044B42F286
:103B40008A525A6312205021FDF7CAF908BD00BFFE
:103B5000DC12002000030050E0F50008AFF3008005
:103B600000B583B00190019B1B6B1B68019A126B1F
:103B70001268126822F00F021A60019B1B6B5B68CF
:103B8000019A126B127A0F2101FA02F21A6001985F
:103B9000FFF786FE03B05DF804FB00BFAFF30080C3
:103BA00008B5FDF73DFB074B01225A61064B5B68E8
:103BB0005B68054800219847FDF752FBFDF718F9AF
:103BC00008BD00BF0004014014130020AFF30080C3
:103BD00008B5FDF725FB074B02225A61064B5B68CF
:103BE000DB68054801219847FDF73AFBFDF700F92E
:103BF00008BD00BF0004014014130020AFF3008093
:103C000008B5FDF70DFB074B04225A61064B5B68B4
:103C10005B69054802219847FDF722FBFDF7E8F8AC
:103C200008BD00BF0004014014130020AFF3008062
:103C300008B5FDF7F5FA074B08225A61064B5B6899
:103C4000DB69054803219847FDF70AFBFDF7D0F82B
:103C500008BD00BF0004014014130020AFF3008032
:103C600008B5FDF7DDFA074B10225A61064B5B6879
:103C70005B6A054804219847FDF7F2FAFDF7B8F8AA
:103C800008BD00BF0004014014130020AFF3008002
:103C900000B583B0FDF7C4FA224B5B6903F4787377
:103CA0000193204B019A5A61019B03F02003002BE2
:103CB00005D01D4B5B68DB6A1B4805219847019BBB
:103CC00003F04003002B05D0174B5B685B6B164875
:103CD00006219847019B03F08003002B05D0124B6F
:103CE0005B68DB6B104807219847019B03F48073E6
:103CF000002B05D00C4B5B685B6C0B480821984788
:103D0000019B03F40073002B05D0074B5B68DB6C51
:103D1000054809219847FDF7A3FAFDF769F803B0B4
:103D20005DF804FB0004014014130020AFF3008091
:103D300000B583B0FDF774FA284B5B6903F47C434C
:103D40000193264B019A5A61019B03F48063002B77
:103D500005D0234B5B685B6D21480A219847019B86
:103D600003F40063002B05D01D4B5B68DB6D1C4822
:103D70000B219847019B03F48053002B05D0184B6F
:103D80005B685B6E16480C219847019B03F4005357
:103D9000002B05D0124B5B68DB6E11480D21984754
:103DA000019B03F48043002B05D00D4B5B685B6FD8
:103DB0000B480E219847019B03F40043002B05D0CC
:103DC000074B5B68DB6F06480F219847FDF748FA01
:103DD000FDF70EF803B05DF804FB00BF00040140DE
:103DE00014130020AFF30080AFF30080AFF3008026
:103DF00008B5FDF715FA084B4FF480325A61074BAE
:103E00005B68D3F88430054810219847FDF728FAFD
:103E1000FCF7EEFF08BD00BF0004014014130020B2
:103E200008B5FDF7FDF9084B4FF400325A61074B16
:103E30005B68D3F88C30054811219847FDF710FADC
:103E4000FCF7D6FF08BD00BF00040140141300209A
:103E500008B5FDF7E5F9084B4FF480225A61074B8E
:103E60005B68D3F89430054812219847FDF7F8F9BC
:103E7000FCF7BEFF08BD00BF000401401413002082
:103E800008B5FDF7CDF9084B4FF400225A61074BF6
:103E90005B68D3F89C30054813219847FDF7E0F99B
:103EA000FCF7A6FF08BD00BF00040140141300206A
:103EB00008B5FDF7B5F9084B4FF480125A61074B6E
:103EC0005B68D3F8A430054814219847FDF7C8F97A
:103ED000FCF78EFF08BD00BF000401401413002052
:103EE00000B583B0FDF79CF9194B5A69194B134083
:103EF0000193174B019A5A61019B03F40013002BA5
:103F000006D0154B5B68D3F8AC30134815219847A1
:103F1000019B03F48003002B06D00F4B5B68D3F8A2
:103F2000B4300D4816219847019B03F00053002B35
:103F300006D0094B5B68D3F8EC3007481D21984741
:103F4000FDF78EF9FCF754FF03B05DF804FB00BFEA
:103F5000000401400000602014130020AFF3008033
:103F600000B583B0FDF75CF91C4B5B6903F040437F
:103F700001931A4B019A5A61019B03F08043002B75
:103F800006D0174B5B68D3F8F43015481E219847CC
:103F9000019B002B06DA124B5B68D3F8FC3010480B
:103FA0001F2198470D4B5B6B03F0010301930B4BF3
:103FB000019A5A63019B03F00103002B06D0084BC2
:103FC0005B68D3F80431064820219847FDF748F98B
:103FD000FCF70EFF03B05DF804FB00BF00040140D6
:103FE00014130020AFF30080AFF30080AFF3008024
:103FF00008B506206021FCF773FF07206021FCF75D
:104000006FFF08206021FCF76BFF09206021FCF79F
:1040100067FF0A206021FCF763FF17206021FCF78F
:104020005FFF28206021FCF75BFF01206021FCF787
:1040300057FF29206021FCF753FF2A206021FCF75D
:104040004FFF02206021FCF74BFF03206021FCF7AB
:1040500047FF40206021FCF743FF41206021FCF72F
:104060003FFF42206021FCF73BFF08BDAFF300801B
:1040700008B50248FEF7B4FD08BD00BF14130020C8
:1040800000B585B00190019B1B78012B01D1FFF792
:10409000AFFF0023039314E0019B5B68039A53F87E
:1040A000323003F00403002B04D00198039900F090
:1040B0000FF803E00198039900F02AF9039B0133FC
:1040C0000393039B212BE7D905B05DF804FB00BFE8
:1040D00086B001900091009B0F2B28D8009B9B0875
:1040E0000593009B03F003039B000F2202FA03F3E6
:1040F000DB430493019B5B68009A53F8323003F072
:10410000F0031A09009B03F003039B0002FA03F378
:1041100003937B4B7A4A0599023152F82110049A95
:104120001140039A1143059A023243F82210009B72
:104130001F2B69D8019B5B68009A53F8323003F05B
:104140000103002B09D06F4B6E4A9168009A012041
:1041500000FA02F20A439A6009E06A4B694A9168E0
:10416000009A012000FA02F2D2430A409A60019BB1
:104170005B68009A53F8323003F00203002B09D039
:10418000604B604AD168009A012000FA02F20A43AB
:10419000DA6009E05B4B5B4AD168009A012000FAC3
:1041A00002F2D2430A40DA60019B5A68009BDB00AE
:1041B00013445B68002B13D0524B524A1168009A8B
:1041C000012000FA02F20A431A604E4B4D4A516830
:1041D000009A012000FA02F2D2430A405A608CE0B1
:1041E000484B484A5168009A012000FA02F20A43FB
:1041F0005A60444B434A1168009A012000FA02F2C7
:10420000D2430A401A6078E0019B5B68009A53F839
:10421000323003F00103002B0BD03A4B394A916A3C
:10422000009AC2F12002012000FA02F20A439A62C7
:104230000BE0344B334A916A009AC2F1200201200C
:1042400000FA02F2D2430A409A62019B5B68009A2C
:1042500053F8323003F00203002B0BD0294B294ACC
:10426000D16A009AC2F12002012000FA02F20A4348
:10427000DA620BE0234B234AD16A009AC2F1200292
:10428000012000FA02F2D2430A40DA62019B5A6826
:10429000009BDB0013445B68002B17D0194B194AB5
:1042A000116A009AC2F12002012000FA02F20A43C8
:1042B0001A62144B134A516A009AC2F1200201207B
:1042C00000FA02F2D2430A405A6216E00D4B0D4A40
:1042D000516A009AC2F12002012000FA02F20A4358
:1042E0005A62084B074A116A009AC2F12002012063
:1042F00000FA02F2D2430A401A6206B0704700BFC9
:104300000000014000040140AFF30080AFF30080E3
:1043100082B001900091009B1F2B2ED8344B344A61
:104320001168009A012000FA02F2D2430A401A6092
:104330002F4B2F4A5168009A012000FA02F2D24313
:104340000A405A602A4B2A4A9168009A012000FAD2
:1043500002F2D2430A409A60254B254AD168009A5E
:10436000012000FA02F2D2430A40DA60204B009AA0
:10437000012101FA02F25A6137E01D4B1C4A116A11
:10438000009AC2F12002012000FA02F2D2430A4050
:104390001A62174B164A516A009AC2F12002012094
:1043A00000FA02F2D2430A405A62114B104A916A53
:1043B000009AC2F12002012000FA02F2D2430A4020
:1043C0009A620B4B0A4AD16A009AC2F1200201207C
:1043D00000FA02F2D2430A40DA62054B009AC2F1B7
:1043E0002002012101FA02F25A6302B0704700BFB5
:1043F00000040140AFF30080AFF30080AFF3008012
:1044000082B001900091009B5A68019B5A60009B0A
:104410009A68019B9A60009BDA68019BDA60009BB6
:104420001A69019B5A61009B5A69019B1A62009BA1
:104430009A69019B5A62009B1A68019B1A6002B03C
:10444000704700BFAFF30080AFF30080AFF3008090
:1044500000B583B00190164B154A526942F4FC0234
:104460005A61019B4FF090401946FFF7C9FF019B2D
:104470001C3310481946FFF7C3FF019B38330E4821
:104480001946FFF7BDFF019B54330C481946FFF74F
:10449000B7FF019B70330A481946FFF7B1FF019B34
:1044A0008C3308481946FFF7ABFF03B05DF804FBF7
:1044B000001002400004004800080048000C0048BA
:1044C0000010004800140048AFF30080AFF30080F4
:1044D00000B585B001900091009B03F00803002B0C
:1044E00001D0FCF735FC019B5B6A1B68019A526A9C
:1044F0001268126822F00F021A60019B5B6A5B6807
:10450000019A526A127A0F2101FA02F21A60019B93
:104510001B6A1B68019A126A1268126822F00F0265
:104520001A60019B1B6A5B68019A126A127A0F215A
:1045300001FA02F21A60019B5B681B68002B0FD026
:10454000019B04221A70019B5B681B6801989847C5
:10455000019B1B78042B06D1019B02221A7002E0FA
:10456000019B02221A70202383F31188FCF728FE96
:10457000019B9B68002B0BD0019B9B680393019BC5
:1045800000229A60039B00229A620398FCF7F0FFD6
:10459000FCF72EFE002383F3118805B05DF804FBC1
:1045A00000B583B001900091009B03F00803002B3D
:1045B00001D0FCF7CDFB03B05DF804FBAFF3008046
:1045C00008B50C4B4FF6FF721A800B48FEF7A8FC9B
:1045D000094B0A4ADA61084B094A1A62064B094A32
:1045E0005A62054B41F20A029A62034B41F21802E9
:1045F000DA6208BD4C1300201C130020003001407B
:10460000ECF50008F8F50008AFF30080AFF3008088
:1046100000B585B00190019B1B78012B3BD1019A1D
:10462000444B9A4229D1019B1B6A18460A21424AEF
:10463000019BFEF7F5FF03468DF80F309DF80F3014
:10464000002B02D03D48FCF7A3FE019B5B6A184695
:104650000A213B4A019BFEF7E3FF03468DF80F302A
:104660009DF80F30002B02D03648FCF791FE364BF8
:10467000354A926942F480529A61019B1B6A1B6819
:10468000019AD2690C329A60019B5B6A1B68019A9D
:10469000D2690C329A60019B5B689B8903F470635A
:1046A0000293029B002B03D0029BB3F5E06F0CD862
:1046B000019B9B6A23F47062019B9A62019BDB6AF7
:1046C00023F47062019BDA620FE0019B9B6A23F482
:1046D000706343F4A062019B9A62019BDB6A23F43E
:1046E000706343F4A062019BDA62019BDB690022E4
:1046F0001A80019BDB69019A5268528942F4417227
:1047000092B21A80019BDA69019B5B689B8943F432
:10471000805343F007039BB29380019BDB69019AAE
:10472000D269128892B242F0400292B21A8005B069
:104730005DF804FB1C130020D1440008E0F20008DF
:10474000A1450008F4F2000800100240AFF3008019
:1047500084B00390029101920093039B1B6A1B6833
:10476000009ADA60039B1B6A1B68029A5A60039BDB
:104770001B6A1B68039A926A42F080021A60039BCC
:104780005B6A1B68019ADA60039B5B6A1B68029A8A
:104790005A60039B5B6A1B68039AD26A42F08002EC
:1047A0001A60039B1B6A1B68039A126A12681268DC
:1047B00042F001021A60039B5B6A1B68039A526A0B
:1047C0001268126842F001021A6004B0704700BF1C
:1047D00084B0039002910192039B1B6A1B681A4AE2
:1047E000DA60039B1B6A1B68029A5A60039B1B6A70
:1047F0001B68039A926A1A60039B5B6A1B68019AA2
:10480000DA60039B5B6A1B68029A5A60039B5B6ACF
:104810001B68039AD26A42F080021A60039B1B6AEB
:104820001B68039A126A1268126842F001021A6049
:10483000039B5B6A1B68039A526A1268126842F013
:1048400001021A6004B070474E130020AFF30080DD
:1048500084B0039002910192039B1B6A1B68019A2A
:10486000DA60039B1B6A1B68029A5A60039B1B6AEF
:104870001B68039A926A42F080021A60039B5B6A8B
:104880001B68114ADA60039B5B6A1B68029A5A60D4
:10489000039B5B6A1B68039AD26A1A60039B1B6ABC
:1048A0001B68039A126A1268126842F001021A60C9
:1048B000039B5B6A1B68039A526A1268126842F093
:1048C00001021A6004B070474C130020AFF300805F
:1048D00000B585B00190009100230393009B03F085
:1048E0000803002B03D0039B43F080030393009B3A
:1048F00003F00103002B03D0039B43F02003039339
:10490000009B03F00203002B03D0039B43F0400302
:104910000393009B03F00403002B03D0039B43F499
:1049200080730393202383F31188FCF749FC019BD8
:10493000043318460399FDF7A3FBFCF759FC002349
:1049400083F3118805B05DF804FB00BFAFF300806E
:1049500000B587B00190019B5B6F0593059B1B68B9
:104960000493059BDB690393059B039A1A62039BDF
:1049700003F00F03002B03D001980399FFF7A8FF62
:10498000039B03F48073002B10D0202383F3118842
:10499000FCF716FC019B043318464FF40071FDF739
:1049A0006FFBFCF725FC002383F31188039B03F0C6
:1049B0002003002B11D0202383F31188FCF700FC87
:1049C000059B9B8C9BB2DBB201981946FEF770FAEF
:1049D000FCF70EFC002383F31188049B03F0800393
:1049E000002B29D0039B03F08003002B24D020232D
:1049F00083F31188FCF7E4FB019B30331846FDF785
:104A0000DFFD0290029B002B0DDA019B0433184658
:104A10000821FDF735FB049B23F0C00343F040025F
:104A2000059B1A6003E0029B9AB2059B1A85FCF76E
:104A3000DFFB002383F31188039B03F04003002B6B
:104A400026D0202383F31188FCF7BAFB019B5A6C14
:104A5000019B9B6C9A4205D1019B9B6B002B01D063
:104A6000012300E0002303F00103DBB2002B05D09B
:104A7000019B043318461021FDF702FB049B23F031
:104A80004002059B1A60FCF7B3FB002383F31188F7
:104A900007B05DF804FB00BFAFF30080AFF3008008
:104AA00082B00190034B034A126842F080021A6000
:104AB00002B0704700380140AFF30080AFF30080D0
:104AC00008B5FCF7ADFB0448FFF742FFFCF7C8FB55
:104AD000FCF78EF908BD00BF50130020AFF3008033
:104AE00008B506480021064AFEF7B2F9034B054A0D
:104AF0005A67024B044A9A6708BD00BF5013002052
:104B0000A14A00080038014000512502AFF300809F
:104B100082B0044B0193019B1B68DBB2184602B0C4
:104B2000704700BFE8F7FF1FAFF30080AFF30080CE
:104B300000B585B001900B468DF80330202383F338
:104B40001188FCF73DFB9DF80320019B043253F8CC
:104B5000223003939DF80320019B0432002143F887
:104B60002210039B5B7FC3F30603DBB2002B1FDD28
:104B7000039B5B7FC3F30603DBB27F3303F07F034A
:104B8000D9B2039A537F61F306035377039BD3F89B
:104B9000193003F10802039BC3F81920019B0C3361
:104BA0001846039900F05CFA039B03221A710CE08B
:104BB000039B02221A71039BD3F80530002B04D00B
:104BC000039BD3F8053003989847019800F0C0FA8A
:104BD000FCF70EFB002383F3118805B05DF804FB9E
:104BE00000B585B001900B468DF80330202383F388
:104BF0001188FCF7E5FA9DF80320019B043253F875
:104C0000223003939DF80320019B0432002143F8D6
:104C10002210039B002B00D1FEE7019B0C331846AA
:104C2000039900F01DFA039B03221A71019800F00A
:104C30008FFAFCF7DDFA002383F3118805B05DF8E5
:104C400004FB00BFAFF30080AFF30080AFF3008040
:104C500000B585B001900B468DF80330202383F317
:104C60001188FCF7ADFA9DF80320019B043253F83C
:104C7000223003939DF80320019B0432002143F866
:104C80002210039B002B00D1FEE7039B05221A7123
:104C9000039BD3F80530002B04D0039BD3F80530D9
:104CA00003989847019800F053FAFCF7A1FA002303
:104CB00083F3118805B05DF804FB00BFAFF30080FB
:104CC00000B58BB00190202383F31188FCF778FAAC
:104CD00003AB0198194600F07BFC9DF81130019A56
:104CE00006339B0013445B680893089B002B05D197
:104CF000FCF77EFA002383F31188FEE7089B1B79FB
:104D0000022B2ED1089B04221A71089BD3F8152080
:104D1000089BC3F81920039BC3F31C03DB119AB251
:104D2000089BA3F81120089BB3F813309BB2082B03
:104D300012D9089BB3F813309BB2013B002B00DA69
:104D40000733DB10DBB203F07F03D9B2089A537F3D
:104D500061F30603537704E0089A537F6FF3060369
:104D60005377089B1B79042B6FD1039BC3F31C0360
:104D7000DB118DF81F30089BB3F811309BB28DF812
:104D80001E309DF81F209DF81E309A4205D0FCF77A
:104D90002FFA002383F3118865E0039BC3F31C0300
:104DA000DBB203F07F038DF81D30089B5B7FC3F3FC
:104DB0000603DBB29DF81D209A4208D0089B022210
:104DC0001A71FCF715FA002383F311884BE00023D6
:104DD00009930EE0089BD3F81930591C089AC2F8C1
:104DE000191005A9099A0A4412781A70099B01330F
:104DF00009939DF81030C3F30303DBB21A46099BF5
:104E00009A42E7D8089B5B7FC3F30603DBB2002B13
:104E10000EDD089B5B7FC3F30603DBB27F3303F039
:104E20007F03D9B2089A537F61F3060353770CE0EE
:104E3000089BD3F80530002B07D0089B01221A717C
:104E4000089BD3F8053008989847089B1B79062BD8
:104E500004D1089BD3F8053008989847FCF7C8F9A7
:104E6000002383F311880BB05DF804FBAFF30080DF
:104E700008B500F015FB08BDAFF30080AFF300806C
:104E800000B585B00190019B01221A70019B0022A0
:104E90005A65019B0C33184600F0DAF8002303939F
:104EA00008E0019B039A0432002143F82210039B7F
:104EB00001330393039B022BF3DD0023039309E0EB
:104EC000019A039B06339B00134400225A60039B04
:104ED00001330393039B0D2BF2DD05B05DF804FB5A
:104EE00000B583B001900091019B002B05D1009B80
:104EF000002B02D11648FCF74BFA202383F31188CC
:104F0000FCF72EF9019B1B78012B02D01148FCF70E
:104F10003FFA019B1B78012B08D1019B009A5A652F
:104F2000019800F0CDFA019B02221A70019B052224
:104F30001A70FCF72DF9002383F3118801E000F0CB
:104F40007FF8019B1B78042BF9D003B05DF804FBBC
:104F500010F3000820F30008AFF30080AFF30080E7
:104F600000B585B0039002910192029B01221A7153
:104F70001C4BDA68019B1A44029BC3F80D20029B6C
:104F8000B3F813309BB2082B12D9029BB3F813303D
:104F90009BB2013B002B00DA0733DB10DBB203F0DE
:104FA0007F03D9B2029A537F61F30603537704E07B
:104FB000029A537F6FF306035377029BD3F81520B1
:104FC000029BC3F81920039B0C331846029900F08A
:104FD00047F8029B03221A71039800F0B9F805B054
:104FE0005DF804FB20120020AFF30080AFF30080D7
:104FF00000B587B0039002910192202383F31188BA
:10500000FCF7AEF8029BB3F811309BB2DB011946F6
:10501000019B9BB2DA010DF11703039800F060FBCE
:105020009DF81730039A06339B001344029A5A6086
:10503000FCF7AEF8002383F3118807B05DF804FB9A
:10504000704700BFAFF30080AFF30080AFF3008084
:1050500082B00190019B019A1A6002B0704700BFB4
:1050600000B585B001900091019B0393019B002B3B
:1050700002D0009B002B03D10F48FCF789F90CE00C
:105080000BE0039BD3F80D20009BD3F80D309A4220
:1050900000D907E0039B1B680393039B1A68019BDD
:1050A0009A42EED1039B1A68009B1A60039B009AF8
:1050B0001A6005B05DF804FB60F30008AFF30080F0
:1050C00000B585B00190019B002B02D10B48FCF785
:1050D0005FF9019B1A68019B9A4202D10848FCF7CC
:1050E00057F9019B1B680393039B1A68019B1A6085
:1050F000039B184605B05DF804FB00BFA0F3000851
:10510000B4F30008AFF30080AFF30080AFF300808A
:1051100084B00190019BD3F80D200A4BDB68D31AB1
:105120000393039B002B02DB039B402B01DD3F23FA
:1051300004E0039BDBB203F03F03DBB2184604B08C
:10514000704700BF20120020AFF30080AFF3008053
:1051500000B589B00190019B03F10C02019BDB6853
:105160009A4201D1002370E0019800F0E9F903466A
:1051700083F00103DBB2002B01D0002365E0019B2B
:105180001B69002B01D000235FE0019B0C33184604
:10519000FFF796FF07900798FFF7BAFF0346DA0577
:1051A000079BB3F811309BB2DB011A43079B5B7F6F
:1051B000C3F30603DBB203F07F03134323F0604223
:1051C000039B62F31C030393079B5B7FC3F30603FC
:1051D000DBB2002B07DD9DF81030082262F30303D9
:1051E0008DF8103016E0079BD3F81520079BB3F815
:1051F00013309BB213441A46079BD3F81930D31AC5
:10520000DBB203F00F03DAB29DF8103062F3030350
:105210008DF81030079BD3F819301B680593079B56
:10522000D3F819305B68069303AB0198194600F078
:1052300097F99DF811301A46019B0432079943F8FB
:105240002210079B04221A710123184609B05DF849
:1052500004FB00BFAFF30080AFF30080AFF300802A
:1052600000B585B00190019BDB6D0393039B9B68A8
:105270000293039B2A4A9A60029B03F00203002BCD
:1052800003D001980021FFF753FC029B03F4007345
:10529000002B03D001980121FFF74AFC029B03F485
:1052A0000033002B03D001980221FFF741FC029B41
:1052B00003F00403002B03D001980021FFF790FCBA
:1052C000029B03F48063002B03D001980121FFF7B8
:1052D00087FC029B03F48023002B03D0019802215A
:1052E000FFF77EFC029B03F00803002B03D001981C
:1052F0000021FFF7ADFC029B03F40063002B03D0F9
:1053000001980121FFF7A4FC029B03F40023002B6A
:1053100003D001980221FFF79BFC05B05DF804FB68
:1053200001010100AFF30080AFF30080AFF3008014
:1053300000B585B00190019BDB6DDB680393039B97
:1053400003F00303002B0AD0019BDB6D019AD26DA1
:10535000526922F002025A610198FFF7B1FC039BE7
:1053600003F01003002B03D0019BDB6D1022DA60E9
:1053700005B05DF804FB00BFAFF30080AFF3008021
:1053800084B00190019BDB6D1B690393039B03F0C9
:105390000303002B07D0019BDB6D019AD26D52698C
:1053A00022F010025A61039B03F01003002B03D07C
:1053B000019BDB6D10221A6104B07047AFF30080CF
:1053C00086B00190019BDB6D5B680593019BDB6DF3
:1053D0001C225A60059B03F00403002B18D0019B8C
:1053E000DB6D9B690493019BDB6D019AD26D926921
:1053F00022F070029A61049B03F007030393049B5D
:1054000003F07003002B03D0039B43F008030393C6
:1054100006B07047AFF30080AFF30080AFF30080B9
:1054200008B5FBF7FDFE0448FFF71AFFFBF718FF6E
:10543000FBF7DEFC08BD00BFCC130020AFF30080FB
:1054400008B5FBF7EDFE0448FFF772FFFBF708FF16
:10545000FBF7CEFC08BD00BFCC130020AFF30080EB
:1054600008B5FBF7DDFE0448FFF78AFFFBF7F8FEFF
:10547000FBF7BEFC08BD00BFCC130020AFF30080DB
:1054800008B5FBF7CDFE0448FFF79AFFFBF7E8FEEF
:10549000FBF7AEFC08BD00BFCC130020AFF30080CB
:1054A00008B5034B034ADA650148FFF7E9FC08BD7C
:1054B000CC13002000640040AFF30080AFF3008005
:1054C00000B583B001901320B021FBF709FD142033
:1054D000B021FBF705FD1520B021FBF701FD1620DB
:1054E000B021FBF7FDFC124B114AD26942F0007269
:1054F000DA61019B02221A70019BDB6D01221A60A6
:1055000000BF019BDB6D5B6803F00103002BF8D04B
:10551000019BDB6D074ADA61019BDB6D90221A600B
:10552000019BDB6D044A5A6103B05DF804FB00BFC8
:1055300000100240030024005B8F0100AFF30080E5
:1055400082B00190019BDB6D9B6803F0E053B3F1E7
:10555000E05F14BF00230123DBB2184602B070479E
:1055600084B001900091019BDB6D0393009B0022AE
:105570005A71009B5B7918331B01039A1344029301
:10558000009B1B68C3F31C03DB0043F00402029B77
:105590001A60009B1B79C3F30303DBB21A46029B1C
:1055A0005A60009B9A68029B9A60009BDA68029B93
:1055B000DA60029B1B6843F00102029B1A6004B090
:1055C000704700BFAFF30080AFF30080AFF30080FF
:1055D00084B001900091019BDB6D0393039BDB681A
:1055E00003F00303002B37D0039BD3F8B031DB0863
:1055F00023F06041009A136861F31C031360039B5E
:10560000D3F8B431DBB203F00F03D9B2009A1379A7
:1056100061F303031371039BD3F8B821009B9A60D5
:10562000039BD3F8BC21009BDA60039BD3F8B43111
:105630001B0ADAB2009B5A71039B2022DA60039B9B
:10564000DB6803F00303002B43D1039B5B6943F04A
:105650000202039B5A613CE0039B1B6903F00303B6
:10566000002B36D0039BD3F8C031DB0823F0604118
:10567000009A136861F31C031360039BD3F8C431D1
:10568000DBB203F00F03D9B2009A137961F303037D
:105690001371039BD3F8C821009B9A60039BD3F836
:1056A000CC21009BDA60039BD3F8C4311B0ADAB229
:1056B000009B5A71039B20221A61039B1B6903F014
:1056C0000303002B05D1039B5B6943F01002039B8E
:1056D0005A6104B0704700BFAFF30080AFF30080A1
:1056E00088B00390029101920093039BDB6D0793B6
:1056F000304B1B681B2B59D82E4B1B684833DB00E3
:10570000079A134406932B4B1B68012202FA03F3FA
:105710000593079BD3F8003243F00102079BC3F8BF
:105720000022079BD3F81C22059BDB431A40079BF2
:10573000C3F81C22079BD3F80422059BDB431A40C5
:10574000079BC3F80422079BD3F80C22059B1A433E
:10575000079BC3F80C22079BD3F80422059BDB436D
:105760001A40079BC3F80422029BDA00069B1A60CA
:10577000019BDA00069B5A60079BD3F81C22059B0D
:105780001A43079BC3F81C22079BD3F8003223F06F
:105790000102079BC3F80022064B1B68591C054AEF
:1057A0001160DAB2009B1A70012300E00023184652
:1057B00008B070472C140020AFF30080AFF30080D6
:1057C00008B5FEF715F808BDAFF30080AFF3008011
:1057D000704700BFAFF30080AFF30080AFF30080ED
:1057E00008B5FBF7B5FA08BDAFF30080AFF3008052
:1057F00000B585B001900198FDF7DAFC01980F2102
:1058000000F036F803468DF80F309DF80F30D72B97
:1058100005D00198FDF7E4FC4FF0FF331FE001983D
:1058200020217F2200F04CF801982121002200F075
:1058300047F801982221082200F042F8019823211C
:10584000102200F03DF801982421002200F038F8E1
:105850000198FDF7C5FCFA20FCF74AF90023184629
:1058600005B05DF804FB00BFAFF30080AFF300802C
:1058700000B583B001900B468DF803300D4B042228
:105880005A839DF8033063F07F03DAB20A4B1A7033
:10589000094BFF225A7001980221074A074BFDF776
:1058A0008FFB044B04221A83044B5B78184603B029
:1058B0005DF804FB00040048341400203814002074
:1058C00000B583B0019013460A468DF803208DF889
:1058D00002309DF803300F3B2A2B6DD801A252F8FD
:1058E00023F000BFC3590008B9590008B95900088E
:1058F000B9590008B9590008B9590008B959000840
:10590000B9590008B9590008B9590008B95900082F
:10591000B9590008B9590008B9590008B95900081F
:10592000B9590008B959000891590008915900085F
:10593000915900089159000891590008915900089F
:10594000C3590008C3590008C3590008C3590008C7
:10595000C3590008C3590008C3590008C3590008B7
:10596000915900089159000891590008915900086F
:10597000915900089159000891590008915900085F
:10598000915900089159000891590008915900084F
:105990000E4B04225A830E4B9DF803201A700C4BB9
:1059A0009DF802205A7001980221094AFDF760FB18
:1059B000064B04221A8305E00648FBF7E9FC00BF0A
:1059C00000E000BF03B05DF804FB00BF0004004826
:1059D00034140020D0F30008AFF30080AFF3008050
:1059E00010B586B00190314BDB6805930198FDF747
:1059F000DFFB01982921FFF73BFF03461B029BB207
:105A0000ADF80C30BDF80C4001982821FFF730FFAD
:105A10000346224613439BB2ADF80C3001982B216C
:105A2000FFF726FF03461B029BB2ADF80E30BDF810
:105A30000E4001982A21FFF71BFF0346224613431D
:105A40009BB2ADF80E3001982D21FFF711FF0346F0
:105A50001B029BB2ADF81030BDF8104001982C210C
:105A6000FFF706FF0346224613439BB2ADF8103002
:105A70000198FDF7B5FB202383F31188FBF770FB3A
:105A80000B4B059A1A60BDF80C20094B9A80BDF8A3
:105A90000E20074BDA80BDF81020054B1A81FBF76A
:105AA00077FB002383F3118806B010BD201200207D
:105AB00040140020AFF30080AFF30080AFF300800C
:105AC00000B583B001900091202383F31188FBF788
