:020000040800F2
:1000000000040020F1020008F1030008F1030008D9
:10001000F1030008F1030008F1030008F1030008F0
:10002000F1030008F1030008F1030008410400088F
:10003000F1030008F1030008F103000811040008AF
:10004000F1030008B12800084129000871290008BF
:10005000F1030008F103000861260008912600085A
:10006000C1260008F126000821270008B11D00085C
:10007000011E0008511E0008A11E0008F11E000804
:10008000411F0008911F0008A125000861380008E1
:1000900081380008A1380008C1380008512700083D
:1000A000F1030008912B0008F1030008C12B0008A0
:1000B000F1030008F1030008F1030008F103000850
:1000C000F1030008F1030008F1030008F103000840
:1000D000F1030008F1030008F1030008F103000830
:1000E000F1270008E128000811290008F1030008A1
:1000F000F1030008F1030008F1030008F103000810
:10010000F1030008F1030008F1030008F1030008FF
:10011000F1030008F1030008F1030008F1030008EF
:10012000E11F00083120000881200008D1200008CC
:1001300021210008F1030008F1030008F103000881
:10014000A1290008212A0008F1030008F103000892
:10015000F1030008F1030008F1030008F1030008AF
:10016000F1030008F1030008F1030008F10300089F
:10017000F1030008F1030008F1030008F10300088F
:08018000F1030008F10300087F
:0801880021790008519F0008D5
:10019000844641EA000313F003036DD1403A41D392
:1001A00051F8043B40F8043B51F8043B40F8043B51
:1001B00051F8043B40F8043B51F8043B40F8043B41
:1001C00051F8043B40F8043B51F8043B40F8043B31
:1001D00051F8043B40F8043B51F8043B40F8043B21
:1001E00051F8043B40F8043B51F8043B40F8043B11
:1001F00051F8043B40F8043B51F8043B40F8043B01
:1002000051F8043B40F8043B51F8043B40F8043BF0
:1002100051F8043B40F8043B51F8043B40F8043BE0
:10022000403ABDD2303211D351F8043B40F8043B80
:1002300051F8043B40F8043B51F8043B40F8043BC0
:1002400051F8043B40F8043B103AEDD20C3205D390
:1002500051F8043B40F8043B043AF9D2043208D088
:10026000D2071CBF11F8013B00F8013B01D30B88FA
:1002700003806046704700BF082A13D38B078DD0D8
:1002800010F003038AD0C3F10403D21ADB071CBFAA
:1002900011F8013B00F8013B80D331F8023B20F814
:1002A000023B7BE7043AD9D3013A11F8013B00F84D
:1002B000013BF9D20B7803704B7843708B788370D5
:1002C00060467047000000000000000000000000D1
:1002D000704700BFAFF30080AFF30080AFF3008042
:1002E000FEE700BFAFF30080AFF30080AFF3008004
:1002F00072B62C4C84F309882B4B4FF040421A60A5
:100300002A4B2A4A126842F470021A600024E1EE75
:10031000104A274B1C60062484F31488BFF36F8FA8
:10032000244C254D04E023461C1D4FF055321A6025
:10033000AC42F8D3214C1B4D04E023461C1D4FF06A
:1003400055321A60AC42F8D303F05AFC1C4D1D4CD8
:1003500005E023461C1D2A46151D12681A601A4B1B
:100360009C42F6D3194C1A4D03E023461C1D002273
:100370001A60AC42F9D3FFF7ABFF164C02E02368DA
:1003800098470434144B9C42F9D309F099FC134C60
:1003900002E0236898470434114B9C42F9D3FFF7DD
:1003A0009FFF00BF0008002034EF00E088ED00E070
:1003B0003CEF00E0000000200004002000040020CA
:1003C000D8AC000800080020700C0020700C002041
:1003D000C41D002088010008900100089001000859
:1003E00090010008AFF30080AFF30080AFF300800E
:1003F000FEE700BFAFF30080AFF30080AFF30080F3
:1004000072B6FEE7AFF30080AFF30080AFF3008079
:1004100008B500F05DFA202383F3118800F028FA74
:1004200000F06EF900F03CFA002383F3118800F02D
:100430006FFA00F035F808BDAFF30080AFF300802D
:1004400082B00A4B094A526822F001025A60EFF367
:1004500009830193019B68330193019B83F309880E
:10046000002383F3118802B0704700BF30EF00E033
:1004700008B5094B00229A60074B084ADA6007204A
:10048000102100F0C5F80A20202100F0C1F80B204F
:10049000802100F0BDF808BD00ED00E00003FA0582
:1004A00082B0202383F31188204B5B6803F4006340
:1004B000002B35D0F1EE10FAEFF309830193019B85
:1004C000683B0193019B4FF08072DA61019B83F3DB
:1004D0000988174B9B6993F82330002B0BD0144BE2
:1004E0001B689A68124B9B699B689A4294BF0023D1
:1004F0000123DBB20AE00E4B1B689A680C4B9B6928
:100500009B689A4234BF00230123DBB2002B03D047
:10051000019B084A9A6106E0019B074A9A6102E042
:10052000002383F3118802B0704700BF00ED00E0A4
:1005300048120020410500084C050008AFF3008078
:1005400000F066F900F02CFD00F07AF900DF00BF42
:1005500003460A462DE9F04F2DED108AC2F80CD063
:10056000D3F80CD0BDEC108ABDE8F08FAFF300805B
:1005700008B500F065F9002383F311882846A047E9
:1005800000F066FE08BD00BFAFF30080AFF300804F
:1005900010B485B001900091019B03F00303DB00D0
:1005A0000393194B019A9208174901988008C030AB
:1005B00051F820000399FF2404FA01F1C9430840CF
:1005C0000399009C04FA01F10143C03243F8221060
:1005D0000D4B019A5209019901F01F01012000FA07
:1005E00001F1603243F82210074B019A5209019938
:1005F00001F01F01012000FA01F143F8221005B0BB
:100600005DF8044B704700BF00E100E0AFF30080ED
:1006100010B485B001900091019B03F00303DB004F
:1006200003930D4B019A92080B49019880080630FC
:1006300051F820000399FF2404FA01F1C94308404E
:100640000399009C04FA01F10143063243F8221099
:1006500005B05DF8044B704700ED00E0AFF300809B
:1006600082B00190024B9B69024A9A61FEE700BF8B
:100670004812002010A20008AFF30080AFF3008002
:1006800000B583B0FFF7F4FE00F0B2FA00F0E8F92D
:1006900001F0CEF801F024F900F08AF91248402167
:1006A00000F09EFC0246114B9A61104B9B6901229F
:1006B00083F820200D4B9B690D4ADA6100F090F819
:1006C000002383F3118862B6084B9B69094A9A613B
:1006D0000023009308484FF4B4710122074B00F047
:1006E00027FD03B05DF804FBD80D00204812002060
:1006F0000004002010A90008700C0020610600080A
:1007000000B583B000F024F9244B9B6993F82330A3
:10071000002B07D0214B9B6993F82320013AD2B2DA
:1007200083F823201D4B9B695A6A01325A621C4B85
:10073000DB685A1C1A4BDA60194B1A68184B9A423C
:1007400029D0174B1B689A68013A9A601CE0019BFC
:10075000DB680093019B0022DA60019B1B68104A52
:100760005A60019B1A680E4B1A6000F099F800233A
:1007700083F31188019B1A69009B10469847202338
:1007800083F3118800F074F8054B1B680193019BFB
:100790009B68002BDBD003B05DF804FB48120020FF
:1007A00038120020AFF30080AFF30080AFF3008079
:1007B00008B5064B1B68002B03D1054B1B68002BAB
:1007C00002D0044800F03CF908BD00BF240E002010
:1007D000280E002020A20008AFF30080AFF30080B5
:1007E00008B5064B1B68002B03D1054B1B68002B7B
:1007F00002D0044800F024F908BD00BF240E0020F8
:10080000280E002030A20008AFF30080AFF3008074
:1008100008B5074B1B68002B03D1064B1B68002B48
:1008200002D0054800F00CF9024B01221A6008BD05
:10083000240E0020280E002038A20008AFF300800C
:1008400008B5074B1B68002B03D1064B1B68002B18
:1008500002DC054800F0F4F8024B00221A6008BDE3
:10086000240E0020280E002040A20008AFF30080D4
:1008700008B5074B1B68002B03DD064B1B68002BDC
:1008800002D0054800F0DCF8024B01221A6008BDD6
:10089000240E0020280E002048A20008AFF300809C
:1008A00008B5074B1B68002B03DD064B1B68002BAC
:1008B00002DC054800F0C4F8024B00221A6008BDB3
:1008C000240E0020280E002050A20008AFF3008064
:1008D00008B5202383F31188094B1B68002B03DB29
:1008E000084B1B68002B02D0074800F0A9F8044B06
:1008F0001B685A1C024B1A60002383F3118808BD41
:10090000240E0020280E002058A20008AFF300801B
:1009100008B5202383F31188094B1B68002B03DDE6
:10092000084B1B68002B02D0074800F089F8044BE5
:100930001B685A1E024B1A60002383F3118808BDFE
:10094000240E0020280E002060A20008AFF30080D3
:1009500008B5064B1B68002B03DB054B1B68002BFF
:1009600002DC044800F06CF808BD00BF240E002033
:10097000280E002068A20008AFF30080AFF30080CB
:1009800008B5064B1B68002B03D1054B1B68002BD9
:1009900002DC044800F054F808BD00BF240E00201B
:1009A000280E002070A20008AFF30080AFF3008093
:1009B000034B40221A60024B024A5A60704700BF44
:1009C0002C0E0020340E0020AFF30080AFF3008027
:1009D00082B00190124B5B68124AD2681A60104BC9
:1009E0005B68114A92695A600D4B5B68019A926A82
:1009F0009A600B4B5B68019A92F820201A73084B9F
:100A00005B6803F11002064B5A60054B5A68074BAE
:100A10009A4202D3024B064A5A6002B0704700BFA6
:100A20002C0E002038120020481200203412002022
:100A3000340E0020AFF30080AFF30080AFF30080EE
:100A400000B583B00190044B019A1A60FFF7D8FCFF
:100A500003B05DF804FB00BF34120020AFF3008048
:100A6000074B074A5A60064B5A68054B1A60044BFD
:100A70004FF0FF329A60024B0022DA60704700BFED
:100A800038120020AFF30080AFF30080AFF3008096
:100A900000B587B00390029101920093FFF758FFD1
:100AA000039B002B05D0019B002B02D0029B002B47
:100AB00002D11D48FFF7C4FF039B009A1A61039BF4
:100AC000019ADA60194B1B68059307E0059B9B6848
:100AD000029AD31A0293059B1B680593059B9A689B
:100AE000029B9A42F2D3039B059A1A60039B1B68F0
:100AF0005A68039B5A60039B5B68059A039951608F
:100B0000059A52681A60039B029A9A60059A074BED
:100B10009A4205D0059B9A68029BD21A059B9A605F
:100B200007B05DF804FB00BF80A200083812002067
:100B300000B583B00190FFF70BFF019B002B02D1A2
:100B40001348FFF77DFF019BDB68002B02D11148A2
:100B5000FFF776FF019B1A680F4B9A4208D0019B62
:100B60001B68019A12689168019A92680A449A6017
:100B7000019B5B68019A12681A60019B1B68019ACD
:100B800052685A60019B0022DA6003B05DF804FBF2
:100B900090A20008A0A2000838120020AFF3008045
:100BA00084B00190019B1B680393039B1A68019B0F
:100BB0001A60019B1B68019A5A60039B184604B097
:100BC000704700BFAFF30080AFF30080AFF3008049
:100BD00082B00190019B5B68019A12681A60019BC8
:100BE0001B68019A52685A60019B184602B0704710
:100BF000084B084A5A60074B5A68064B1A60054B67
:100C000000229A60034B034A5A61024B5A69014B16
:100C10001A61704748120020AFF30080AFF30080E4
:100C200000B585B00190FFF793FE019B93F820304B
:100C3000002B04D0019B93F820300E2B02D11348D7
:100C4000FFF7FEFE019B002283F82020104B039348
:100C5000039B1B680393039B9A68019B9B689A42C2
:100C6000F6D2019B039A1A60039B5A68019B5A6053
:100C7000019B5B68039A01995160039A52681A605C
:100C8000019B184605B05DF804FB00BFC0A2000838
:100C900048120020AFF30080AFF30080AFF3008074
:100CA00000B585B003468DF80730FFF769FE164B97
:100CB0009B690393039B9DF8072083F82020039BE7
:100CC000142283F823201048FFF76AFF02460E4BD8
:100CD0009A610D4B9B69012283F820200398FFF74E
:100CE00077FE6B46A3F16402039BDB699A4202D252
:100CF0000648FFF7A5FE044B9B6918460399FFF7CA
:100D000027FC05B05DF804FB48120020D4A20008BF
:100D100000B585B00190019B0393202383F31188D4
:100D2000FFF7A6FD039B93F820300D2B2CD801A2D2
:100D300052F823F06D0D0008890D0008890D000898
:100D4000790D0008890D0008830D0008890D000841
:100D5000890D0008890D0008890D0008890D00081B
:100D6000890D0008890D0008830D0008FFF798FD24
:100D7000002383F3118813E0039B9B6A9A68013276
:100D80009A600398FFF724FF039B4FF0FF329A62AB
:100D90000398FFF745FFFFF783FD002383F31188D6
:100DA00005B05DF804FB00BFAFF30080AFF3008037
:100DB00000B589B0034600918DF80730FFF7E0FDDC
:100DC000009BB3F1FF3F15D0104B9B6903AA10465F
:100DD00000990F4AFFF75CFE9DF807301846FFF7B1
:100DE0005FFF069B002B04D003AB1846FFF7A0FE65
:100DF00005E004E09DF807301846FFF751FF034B6C
:100E00009B699B6A184609B05DF804FB48120020F4
:100E1000110D0008AFF30080AFF30080AFF3008046
:100E200000B585B001900091FFF7AAFD019B009AE3
:100E30009A62019B9A68154B9B699B689A4203D8FA
:100E40000198FFF7EDFE1DE0104B9B691846FFF778
:100E5000E7FE03900D4B019A9A61019B012283F8F2
:100E600020200398FFF7B4FD6B46A3F16402039BB7
:100E7000DB699A4202D20648FFF7E2FD0198039926
:100E8000FFF766FB05B05DF804FB00BF48120020C9
:100E9000D4A20008AFF30080AFF30080AFF300806E
:100EA00000B583B0154B9B6901931448FFF778FE9A
:100EB0000246124B9A61114B9B69012283F8202054
:100EC000019B142283F823200198FFF7A9FE0198C3
:100ED000FFF77EFD6B46A3F16402019BDB699A423A
:100EE00002D20748FFF7ACFD044B9B6918460199F5
:100EF000FFF72EFB03B05DF804FB00BF4812002093
:100F0000D4A20008AFF30080AFF30080AFF30080FD
:100F100000B583B0204B9B6900931F48FFF740FE4C
:100F200002461D4B9A611C4B9B69012283F82020CD
:100F3000009B002283F82020174B0193019B1B6824
:100F40000193019B9A68009B9B689A42F6D8009B8C
:100F5000019A1A60019B5A68009B5A60009B5B686B
:100F6000019A00995160019A52681A600098FFF73F
:100F70002FFD6B46A3F16402009BDB699A4202D20B
:100F80000648FFF75DFD044B9B6918460099FFF783
:100F9000DFFA03B05DF804FB48120020D4A2000879
:100FA00008B5064B9B6993F82330002B02D1FFF75D
:100FB00077FF01E0FFF7ACFF08BD00BF481200203B
:100FC00084B00190019B1B680393039B1A68019BEB
:100FD0001A60039B184604B0704700BFAFF300804F
:100FE00082B001900091019B009A9A60019B0222BD
:100FF00083F82020019B002283F82120019B1422EA
:1010000083F82320019B009A5A64019B00221A64F2
:10101000019B0022DA63019B00225A62019B01229C
:1010200083F82220019B00229A61019B124A1A61D7
:10103000114B5A69019B5A61019B5B690E4A0199E8
:1010400051610D4A52691A61019B03F12C02019B07
:10105000DA62019B03F13002019B5A63019B5A6BD8
:10106000019B1A63019B03F14C02019BDA61019B16
:10107000184602B0704700BF48120020AFF300804E
:1010800084B00390029113468DF8073005E0039B6E
:101090005A1C03929DF807201A70039A029B9A42E9
:1010A000F5D304B0704700BFAFF30080AFF300800A
:1010B00000B587B00390029101920093039B0593C2
:1010C000FFF746FC039B002B09D0029BB3F5AC7FD6
:1010D00005D3019B7F2B02D8009B002B02D10F4828
:1010E000FFF7AEFC029B643B039A1A44059BDA604F
:1010F000059BDB68009A1A64059BDB68089A5A64B2
:10110000059BDB68064A1A6605980199FFF768FF98
:101110000346184607B05DF804FB00BFF0A20008C4
:1011200071050008AFF30080AFF30080AFF30080DB
:1011300000B589B00590049103920293059B4C334E
:1011400005981946FF22FFF79BFF059B03F14C0210
:101150000599049B0B44104619465522FFF790FF52
:10116000202383F31188FFF753FB0A9B0093059814
:101170000499039A029BFFF79BFF079007980021B1
:10118000FFF74EFEFFF75CFB002383F31188079BFC
:10119000184609B05DF804FBAFF30080AFF30080A0
:1011A00000B583B00190019B002B02D10948FFF7E5
:1011B00047FC202383F31188FFF72AFB06200199BF
:1011C000FFF7F6FDFFF73CFB002383F3118803B024
:1011D0005DF804FB30A30008AFF30080AFF300809C
:1011E00000B583B00190202383F31188FFF710FB33
:1011F000094BDB68019AD31A0193019B002B03D0A2
:1012000006200199FFF7D4FDFFF71AFB002383F3B3
:10121000118803B05DF804FB38120020AFF30080A2
:1012200008B5202383F31188FFF7F2FA074B1B68F8
:101230009A68064B9B699B689A4201D3FFF730FE80
:10124000FFF7FEFA002383F3118808BD481200203F
:1012500000B583B00190202383F31188FFF7D8FAFB
:10126000019800F005F803B05DF804FBAFF30080CF
:1012700000B585B00190184B9B690393039B019ABD
:101280009A6208E0039B2C331846FFF799FE034649
:101290001846FFF7C5FC039BDA6A039B2C339A427E
:1012A000F0D1039B93F8213003F00303002B09D105
:1012B000039B5B69039A12691A61039B1B69039A7A
:1012C00052695A610E20FFF7EBFC0448FFF7B8FBA8
:1012D00005B05DF804FB00BF4812002040A30008E1
:1012E00000B589B005900491039202930598049982
:1012F00000F00EFB0790079B002B01D100232DE08F
:10130000079B4C3307981946FF22FFF7B9FE079B4E
:1013100003F14C020799049B0B44104619465522D1
:10132000FFF7AEFE202383F31188FFF771FA0A9BC3
:10133000009307980499039A029BFFF7B9FE069061
:10134000069B012283F8212006980021FFF768FD03
:10135000FFF776FA002383F31188069B184609B03D
:101360005DF804FBAFF30080AFF30080AFF30080C3
:1013700084B001900091009B0393039B1B6803932F
:10138000039A009B9A4205D0039B9A68019B9B6835
:101390009A42F2D2019B039A1A60039B5A68019BFE
:1013A0005A60019B5B68039A01995160039A5268E5
:1013B0001A6004B0704700BFAFF30080AFF3008045
:1013C00084B00190019B1B680393039B1A68019BE7
:1013D0001A60019B1B68019A5A60039B184604B06F
:1013E000704700BFAFF30080AFF30080AFF3008021
:1013F00082B00190019B5B68019A12681A60019BA0
:101400001B68019A52685A60019B184602B07047E7
:1014100000B583B00190019B002B02D10748FFF774
:101420000FFB019A019B5A60019B5A68019B1A604D
:10143000019B00229A6003B05DF804FB90A30008B2
:1014400000B583B00190202383F31188FFF7E0F902
:10145000019800F00DF8FFF7F3F9002383F31188EA
:1014600003B05DF804FB00BFAFF30080AFF3008072
:1014700000B585B001903C4B9B690293FFF780FA61
:10148000019B002B02D13948FFF7DAFA019B9B68D8
:10149000002B5BD0019B9B68039334E0029B9A680E
:1014A000039B9A60039B93F82030042B04D0052BF8
:1014B00011D0002B1AD02CE00398FFF799FF0246B9
:1014C000039B9B6A10461946FFF752FF039B9B6ADA
:1014D0009B68039317E00398FFF78AFF0246039B7C
:1014E0009B6A10461946FFF743FF0BE0039B01225E
:1014F00083F820200398FFF77BFF03461846FFF789
:101500008FFB00BF05E0039B9A68029B9B689A4291
:10151000C4D3019B02981946FFF72AFF029B019A48
:101520009A620420FFF7BCFB019B9A68029B9A42D7
:1015300002D00F48FFF784FA029B1A6C019B9A4273
:1015400003D00C48FFF77CFA0AE009E0019B029AFD
:101550009A60029B1A6C019BDA60029B019A1A64E2
:1015600005B05DF804FB00BF48120020A0A30008EE
:10157000B0A30008C4A30008AFF30080AFF300805D
:1015800000B587B0314B9B690393202383F3118807
:10159000FFF73EF9039B1B6C002B02D12C48FFF791
:1015A0004FFA039B1B6C9A68039B9A4202D029480E
:1015B000FFF746FA039B1B6C0293029BDA68039BBE
:1015C0001A64029B1A68029B9A4232D0039B5B6C9E
:1015D0000493039B1B6C059311E0059B1A68059B04
:1015E0009A4209D0059B1B689A68049B9A4203D9CA
:1015F000059B1B689B680493059BDB680593059B13
:10160000002BEAD1039B049A9A60029B1846FFF7CD
:10161000D7FE0190029B019A9A60019B1A6C029B73
:10162000DA60019B029A1A6401980021FFF7F8FB27
:1016300002E0029B00229A60FFF702F9002383F385
:101640001188029B184607B05DF804FB4812002081
:10165000ECA3000800A40008AFF30080AFF3008003
:1016600000B587B02D4B9B690393FFF789F9039B66
:101670001B6C002B02D12A48FFF7E2F9039B1B6C7D
:101680009A68039B9A4202D02648FFF7D9F9039B38
:101690001B6C0293029BDA68039B1A64029B1A6814
:1016A000029B9A4231D0039B5B6C0493039B1B6C9F
:1016B000059311E0059B1A68059B9A4209D0059B8A
:1016C0001B689A68049B9A4203D9059B1B689B6818
:1016D0000493059BDB680593059B002BEAD1039BD4
:1016E000049A9A60029B1846FFF76AFE0190029BDB
:1016F000019A9A60019B1A6C029BDA60019B029A24
:101700001A640198FFF78CFA02E0029B00229A60AB
:10171000029B184607B05DF804FB00BF481200208A
:1017200014A4000828A40008AFF30080AFF30080E1
:1017300000B583B001900091FFF70AF9019B002BDF
:1017400002D11648FFF77CF9019BDA6B009B1A4324
:10175000019BDA63019B93F82030082B06D1019B93
:10176000DA6B019B9B6A1340002B0DD1019B93F810
:101770002030092B0ED1019BDA6B019B9B6A1A402A
:10178000019B9B6A9A4205D10198FFF749FA0346EB
:1017900000229A6203B05DF804FB00BF94A4000825
:1017A00000B585B001900091204B9B6902932023E6
:1017B00083F31188FFF72CF8029BDA6B019B13402F
:1017C0000393039B002B1FD1009B002B06D1FFF737
:1017D00037F8002383F31188002322E0029B019A4B
:1017E0009A6208200099FFF7E3FA0346002B06DA15
:1017F000FFF726F8002383F31188002311E0029BF2
:10180000DA6B019B13400393029BDA6B039BDB4370
:101810001A40029BDA63FFF713F8002383F3118861
:10182000039B184605B05DF804FB00BF481200207A
:10183000064B073323F007031A46054B1A60054B86
:1018400023F007031A46044B1A607047C41D00209A
:101850006412002000A0002068120020AFF3008076
:1018600000B585B00190202383F31188FEF7D0FFE7
:10187000019800F00DF80390FEF7E2FF002383F3D8
:101880001188039B184605B05DF804FBAFF3008098
:1018900000B585B00190FFF75BF8019B073323F09B
:1018A000070301930C4B1B681A460C4B1B68D31A99
:1018B0001A46019B9A4201D2002309E0074B1B689C
:1018C0000393064B1A68019B1A44044B1A60039B4E
:1018D000184605B05DF804FB681200206412002071
:1018E00008B5064B064A1A60044B00229A60034B67
:1018F0000022DA600348FFF78BFD08BD701200205C
:101900006118000880120020AFF30080AFF3008060
:1019100000B587B001900091019B002B01D1344BA1
:101920000193009B073323F007030093019B0833C7
:101930000593019B10331846FFF782FD33E0059BAA
:101940001B680493049B5A68009B9A4229D3049B0A
:101950005A68009B08339A4204D2049B1A68059B7C
:101960001A6016E0009B0833049A13440393049B07
:101970001A68039B1A60049B5A68009BD31AA3F150
:101980000802039B5A60059B039A1A60049B009A05
:101990005A60049B019A1A60FFF7F2FD049B08331A
:1019A00021E0049B0593059B1B68002BC7D1FFF723
:1019B000E7FD019B1B68002B14D0019B1B68009A5C
:1019C0000832104698470490049B002B0AD0049BD1
:1019D000019A1A60049B009A5A60049B083304938E
:1019E000049B00E00023184607B05DF804FB00BF2D
:1019F00070120020AFF30080AFF30080AFF30080DF
:101A000000B587B00190019B002B02D13948FFF748
:101A100017F8019B083B0493049B1B680393039BEB
:101A200008330593039B10331846FFF709FD049A0A
:101A3000059B9A420AD3059B5B680833059A1A44B2
:101A4000049B9A4202D92C48FEF7FAFF039B03F14C
:101A50000802059B9A4203D0049A059B9A423ED9FC
:101A6000059B1B68002B04D0059B1A68049B9A42B7
:101A700035D9059B1A68049B1A60059B049A1A6065
:101A8000049B5B680833049A1A44049B1B689A42BF
:101A90000ED1049B5A68049B1B685B68134403F1D6
:101AA0000802049B5A60049B1B681A68049B1A6016
:101AB000059B5B680833059A1A44049B9A420DD132
:101AC000059B5A68049B5B68134403F10802059B5D
:101AD0005A60049B1A68059B1A6004E003E0059BAA
:101AE0001B680593A3E7FFF74BFD00BF07B05DF848
:101AF00004FB00BFE0A40008F0A40008AFF30080DE
:101B000000B585B0039002910192039B002B02D097
:101B1000029B032B02D80748FEF792FF039B00228B
:101B20001A60039B029A5A60039B019A9A6005B05F
:101B30005DF804FB10A50008AFF30080AFF3008050
:101B400000B585B0039002910192039B002B02D057
:101B5000019B002B03D10B48FEF772FF0CE00BE05A
:101B60000398029900F064F8039B5B68029A13449F
:101B70000293019B013B0193019B002BF0D105B027
:101B80005DF804FB20A50008AFF30080AFF30080F0
:101B900000B585B00190FEF7DBFE019B002B02D162
:101BA0000F48FEF74DFF019B1B680393039B002B1F
:101BB00005D0019B1B681A68019B1A600AE0019B13
:101BC0009B68002B06D0019B9B68019A52681046C7
:101BD00098470390039B184605B05DF804FB00BFCF
:101BE00034A50008AFF30080AFF30080AFF30080AE
:101BF00000B585B001900091009B0393FEF7A8FE0D
:101C0000019B002B02D0009B002B02D10648FEF75F
:101C100017FF019B1A68039B1A60019B039A1A60C5
:101C200005B05DF804FB00BF48A50008AFF30080D5
:101C300000B583B001900091202383F31188FEF753
:101C4000E7FD01980099FFF7D3FFFEF7F9FD0023A8
:101C500083F3118803B05DF804FB00BFAFF300808D
:101C600008B500F0CDFA064800F052FF00F010F879
:101C700000F036F800F04CF801F0CAFF08BD00BFD4
:101C8000C0A90008AFF30080AFF30080AFF300807D
:101C900008B500F0A5FC08BDAFF30080AFF30080ED
:101CA00000B583B00190019B01221A70019B0022B4
:101CB0005A60019B00229A60019B0022DA60019B1E
:101CC00000221A61019B00225A61019B18331846B9
:101CD000FFF79EFB03B05DF804FB00BFAFF300808D
:101CE00008B500F0E5FE08BDAFF30080AFF300805B
:101CF00082B00190019B01221A70019B00225A6060
:101D000002B07047AFF30080AFF30080AFF3008004
:101D100008B500F0A5FF08BDAFF30080AFF3008069
:101D200082B00190019B01221A70019B00225A602F
:101D300002B07047AFF30080AFF30080AFF30080D4
:101D400000B583B001900091019B002B02D0009B55
:101D5000002B02D11348FEF773FE202383F3118872
:101D6000FEF756FD019B1B78012B06D0019B1B78CB
:101D7000022B02D00C48FEF763FE019B009A5A60CA
:101D8000009B9A88019B1A81019800F079FF019BC2
:101D900002221A70FEF754FD002383F3118803B06A
:101DA0005DF804FB60A5000870A50008AFF3008093
:101DB00000B583B0FEF78CFD0C4B1B6803F00F03DE
:101DC00001930A4B019A5A60094B1B68002B06D0FD
:101DD000074B1B68064A5268104601999847FEF760
:101DE00097FDFEF75DFB03B05DF804FB00000240C9
:101DF00094120020AFF30080AFF30080AFF30080B7
:101E000000B583B0FEF764FD0D4B1B681B0903F0A2
:101E10000F0301930A4B019A12015A60094B9B6808
:101E2000002B06D0074B9B68064AD26810460199E2
:101E30009847FEF76DFDFEF733FB03B05DF804FB3A
:101E40000000024094120020AFF30080AFF3008046
:101E500000B583B0FEF73CFD0D4B1B681B0A03F079
:101E60000F0301930A4B019A12025A60094B1B6936
:101E7000002B06D0074B1B69064A52691046019990
:101E80009847FEF745FDFEF70BFB03B05DF804FB3A
:101E90000000024094120020AFF30080AFF30080F6
:101EA00000B583B0FEF714FD0D4B1B681B0B03F050
:101EB0000F0301930A4B019A12035A60094B9B6965
:101EC000002B06D0074B9B69064AD2691046019940
:101ED0009847FEF71DFDFEF7E3FA03B05DF804FB3B
:101EE0000000024094120020AFF30080AFF30080A6
:101EF00000B583B0FEF7ECFC0D4B1B681B0C03F028
:101F00000F0301930A4B019A12045A60094B1B6A92
:101F1000002B06D0074B1B6A064A526A10460199ED
:101F20009847FEF7F5FCFEF7BBFA03B05DF804FB3B
:101F30000000024094120020AFF30080AFF3008055
:101F400000B583B0FEF7C4FC0D4B1B681B0D03F0FE
:101F50000F0301930A4B019A12055A60094B9B6AC1
:101F6000002B06D0074B9B6A064AD26A104601999D
:101F70009847FEF7CDFCFEF793FA03B05DF804FB3B
:101F80000000024094120020AFF30080AFF3008005
:101F900000B583B0FEF79CFC0D4B1B681B0E03F0D5
:101FA0000F0301930A4B019A12065A60094B1B6BEF
:101FB000002B06D0074B1B6B064A526B104601994B
:101FC0009847FEF7A5FCFEF76BFA03B05DF804FB3B
:101FD0000000024094120020AFF30080AFF30080B5
:101FE00000B583B0FEF774FC0C4B1B6803F00F03C5
:101FF00001930A4B019A5A60094B9B6B002B06D048
:10200000074B9B6B064AD26B104601999847FEF727
:102010007FFCFEF745FA03B05DF804FB00040240C4
:1020200094120020AFF30080AFF30080AFF3008084
:1020300000B583B0FEF74CFC0D4B1B681B0903F089
:102040000F0301930A4B019A12015A60094B1B6C52
:10205000002B06D0074B1B6C064A526C10460199A8
:102060009847FEF755FCFEF71BFA03B05DF804FB3A
:102070000004024094120020AFF30080AFF3008010
:1020800000B583B0FEF724FC0D4B1B681B0A03F060
:102090000F0301930A4B019A12025A60094B9B6C81
:1020A000002B06D0074B9B6C064AD26C1046019958
:1020B0009847FEF72DFCFEF7F3F903B05DF804FB3B
:1020C0000004024094120020AFF30080AFF30080C0
:1020D00000B583B0FEF7FCFB0D4B1B681B0B03F038
:1020E0000F0301930A4B019A12035A60094B1B6DAF
:1020F000002B06D0074B1B6D064A526D1046019906
:102100009847FEF705FCFEF7CBF903B05DF804FB3A
:102110000004024094120020AFF30080AFF300806F
:1021200000B583B0FEF7D4FB0D4B1B681B0C03F00E
:102130000F0301930A4B019A12045A60094B9B6DDD
:10214000002B06D0074B9B6D064AD26D10460199B5
:102150009847FEF7DDFBFEF7A3F903B05DF804FB3B
:102160000004024094120020AFF30080AFF300801F
:1021700082B0124B00221A600023019311E0104933
:10218000019A13465B0013449B000B441B6800221A
:102190001A600C4B019A002143F83210019B013365
:1021A0000193019B0B2BEADD074B4FF0FF325A6086
:1021B000064B4FF0FF325A6002B070479012002079
:1021C00030A90008941200200000024000040240E0
:1021D000094B094A126842F480721A60074B1B6A65
:1021E00003F44073002B06D0044B4FF480321A6284
:1021F000024B00221A62704700700040001002403B
:1022000008B5234B1B69224B4FF0FF321A61204B5C
:1022100000221A611E4BDB681D4B4FF0FF32DA6063
:102220001B4B0022DA601A4B9B6A194B4FF0FF32AE
:102230009A62174B00229A62164B174A5A60154B46
:1022400000229A60134B07221A60144B134AD2687B
:1022500042F08072DA60124B114A126842F00102B9
:102260001A600B4B0A4AD26942F08052DA61FFF7DA
:10227000AFFFFFF77DFF064B054A926942F001026E
:102280009A61084B074A126842F020021A6008BDA2
:102290000010024010E000E03F190100F0ED00E006
:1022A000001000E000000140AFF30080AFF30080B9
:1022B000284B284A126842F001021A6000BF254BE1
:1022C0001B6803F00203002BF9D0224B214A12684D
:1022D00002F0F9021A601F4B00225A6000BF1D4B2A
:1022E0005B6803F00C03002BF9D11A4B194A1268F2
:1022F00042F4A0221A6000BF164B1B6803F400339F
:10230000002BF9D0134B144A5A60124B42F20212BE
:10231000DA62104B30221A630E4B0E4A126842F0FA
:1023200080721A6000BF0B4B1B6803F00073002B18
:10233000F9D00A4B12221A60064B064A526842F044
:1023400002025A6000BF034B5B6803F00C03082BCA
:10235000F9D170470010024000241D000020024007
:1023600082B00190019BDB6A9B6803F00403002BA1
:102370000FD0019BDB6A019AD26A926842F0100288
:102380009A6000BF019BDB6A9B6803F01003002B7F
:10239000F8D102B0704700BFAFF30080AFF3008008
:1023A00000B587B001900091019B1B69002B00F0E4
:1023B000F280009B03F01003002B3BD0019B1B6BB2
:1023C0001B685B68002B35D0019800F029F9019B50
:1023D0001B699B68002B0FD0019B05221A70019B83
:1023E0001B699B68019801219847019B1B78052B6D
:1023F00002D1019B02221A70019B00221A61202344
:1024000083F31188FEF734FA019B5B69002B0CD033
:10241000019B5B690593019B00225A61059B4FF06C
:10242000FF329A620598FEF7FBFBFEF739FA0023AC
:1024300083F31188009B03F08003002B35D00198B3
:1024400000F0EEF8019B1B699B68002B0FD0019BED
:1024500005221A70019B1B699B680198022198470D
:10246000019B1B78052B02D1019B02221A70019B54
:1024700000221A61202383F31188FEF7F9F9019BEA
:102480005B69002B0CD0019B5B690493019B0022CC
:102490005A61049B4FF0FF329A620498FEF7C0FB2A
:1024A000FEF7FEF9002383F31188009B03F4807389
:1024B000002B35D0019800F0B3F8019B1B699B6895
:1024C000002B0FD0019B05221A70019B1B699B6892
:1024D000019803219847019B1B78052B02D1019B92
:1024E00002221A70019B00221A61202383F31188B3
:1024F000FEF7BEF9019B5B69002B0CD0019B5B6969
:102500000393019B00225A61039B4FF0FF329A62B2
:102510000398FEF785FBFEF7C3F9002383F31188C8
:10252000009B03F40073002B35D0019800F078F87D
:10253000019B1B699B68002B0FD0019B05221A7021
:10254000019B1B699B68019804219847019B1B789C
:10255000052B02D1019B02221A70019B00221A61F5
:10256000202383F31188FEF783F9019B5B69002B1D
:102570000CD0019B5B690293019B00225A61029B74
:102580004FF0FF329A620298FEF74AFBFEF788F995
:10259000002383F3118807B05DF804FBAFF30080DC
:1025A00000B583B0FEF794F94FF0A0431B68019388
:1025B0004FF0A043019A1A6005480199FFF7F0FE19
:1025C000FEF7A6F9FDF76CFF03B05DF804FB00BF52
:1025D000F4120020AFF30080AFF30080AFF300806F
:1025E00008B50B48FFF75CFB094B0A4A9A62084B97
:1025F0004FF0A042DA62064B074A1A63044B42F2DC
:102600008A525A6312205021FDF7C2FF08BD00BF55
:10261000F41200200003005030A90008AFF300803E
:1026200000B583B00190019B1B6B1B68019A126B74
:102630001268126822F00F021A60019B1B6B5B6824
:10264000019A126B127A0F2101FA02F21A600198B4
:10265000FFF786FE03B05DF804FB00BFAFF3008018
:1026600008B5FEF735F9074B01225A61064B5B6846
:102670005B68054800219847FEF74AF9FDF710FF0F
:1026800008BD00BF000401402C130020AFF3008000
:1026900008B5FEF71DF9074B02225A61064B5B682D
:1026A000DB68054801219847FEF732F9FDF7F8FE8F
:1026B00008BD00BF000401402C130020AFF30080D0
:1026C00008B5FEF705F9074B04225A61064B5B6813
:1026D0005B69054802219847FEF71AF9FDF7E0FE0D
:1026E00008BD00BF000401402C130020AFF30080A0
:1026F00008B5FEF7EDF8074B08225A61064B5B68F8
:10270000DB69054803219847FEF702F9FDF7C8FE8B
:1027100008BD00BF000401402C130020AFF300806F
:1027200008B5FEF7D5F8074B10225A61064B5B68D7
:102730005B6A054804219847FEF7EAF8FDF7B0FE0A
:1027400008BD00BF000401402C130020AFF300803F
:1027500000B583B0FEF7BCF8224B5B6903F47873D5
:102760000193204B019A5A61019B03F02003002B37
:1027700005D01D4B5B68DB6A1B4805219847019B10
:1027800003F04003002B05D0174B5B685B6B1648CA
:1027900006219847019B03F08003002B05D0124BC4
:1027A0005B68DB6B104807219847019B03F480733B
:1027B000002B05D00C4B5B685B6C0B4808219847DD
:1027C000019B03F40073002B05D0074B5B68DB6CA7
:1027D000054809219847FEF79BF8FDF761FE03B015
:1027E0005DF804FB000401402C130020AFF30080CF
:1027F00000B583B0FEF76CF8284B5B6903F47C43AB
:102800000193264B019A5A61019B03F48063002BCC
:1028100005D0234B5B685B6D21480A219847019BDB
:1028200003F40063002B05D01D4B5B68DB6D1C4877
:102830000B219847019B03F48053002B05D0184BC4
:102840005B685B6E16480C219847019B03F40053AC
:10285000002B05D0124B5B68DB6E11480D219847A9
:10286000019B03F48043002B05D00D4B5B685B6F2D
:102870000B480E219847019B03F40043002B05D021
:10288000074B5B68DB6F06480F219847FEF740F85F
:10289000FDF706FE03B05DF804FB00BF0004014035
:1028A0002C130020AFF30080AFF30080AFF3008063
:1028B00008B5FEF70DF8084B4FF480325A61074B0C
:1028C0005B68D3F88430054810219847FEF720F85C
:1028D000FDF7E6FD08BD00BF000401402C130020F9
:1028E00008B5FDF7F5FF084B4FF400325A61074B6E
:1028F0005B68D3F88C30054811219847FEF708F83B
:10290000FDF7CEFD08BD00BF000401402C130020E0
:1029100008B5FDF7DDFF084B4FF480225A61074BE5
:102920005B68D3F89430054812219847FDF7F0FF13
:10293000FDF7B6FD08BD00BF000401402C130020C8
:1029400008B5FDF7C5FF084B4FF400225A61074B4D
:102950005B68D3F89C30054813219847FDF7D8FFF2
:10296000FDF79EFD08BD00BF000401402C130020B0
:1029700008B5FDF7ADFF084B4FF480125A61074BC5
:102980005B68D3F8A430054814219847FDF7C0FFD1
:10299000FDF786FD08BD00BF000401402C13002098
:1029A00000B583B0FDF794FF194B5A69194B1340DA
:1029B0000193174B019A5A61019B03F40013002BFA
:1029C00006D0154B5B68D3F8AC30134815219847F7
:1029D000019B03F48003002B06D00F4B5B68D3F8F8
:1029E000B4300D4816219847019B03F00053002B8B
:1029F00006D0094B5B68D3F8EC3007481D21984797
:102A0000FDF786FFFDF74CFD03B05DF804FB00BF4A
:102A100000040140000060202C130020AFF3008070
:102A200000B583B0FDF754FF1C4B5B6903F04043D6
:102A300001931A4B019A5A61019B03F08043002BCA
:102A400006D0174B5B68D3F8F43015481E21984721
:102A5000019B002B06DA124B5B68D3F8FC30104860
:102A60001F2198470D4B5B6B03F0010301930B4B48
:102A7000019A5A63019B03F00103002B06D0084B17
:102A80005B68D3F80431064820219847FDF740FFE2
:102A9000FDF706FD03B05DF804FB00BF0004014034
:102AA0002C130020AFF30080AFF30080AFF3008061
:102AB00008B50248FFF71CF908BD00BF2C13002021
:102AC00082B001900091009B5A68019B5A60009B64
:102AD0009A68019B9A60009BDA68019BDA60009B10
:102AE0001A69019B5A61009B5A69019B1A62009BFB
:102AF0009A69019B5A62009B1A68019B1A6002B096
:102B0000704700BFAFF30080AFF30080AFF30080E9
:102B100000B583B00190164B154A526942F4FC028D
:102B20005A61019B4FF090401946FFF7C9FF019B86
:102B30001C3310481946FFF7C3FF019B38330E487A
:102B40001946FFF7BDFF019B54330C481946FFF7A8
:102B5000B7FF019B70330A481946FFF7B1FF019B8D
:102B60008C3308481946FFF7ABFF03B05DF804FB50
:102B7000001002400004004800080048000C004813
:102B80000010004800140048AFF30080AFF300804D
:102B900008B5FDF79DFE074B6FF001021A61064B69
:102BA0005B689B6804489847FDF7B2FEFDF778FC28
:102BB00008BD00BF002C014034130020AFF300809B
:102BC00000B583B0FDF784FE214B1B699AB2204B00
:102BD000DB689BB213409BB2DBB2ADF806301C4BF6
:102BE000BDF80620D2431A61BDF8063003F0020397
:102BF000002B04D0174B5B681B6916489847BDF83B
:102C0000063003F00403002B04D0124B5B689B6971
:102C100010489847BDF8063003F00803002B04D095
:102C20000C4B5B681B6A0B489847BDF8063003F0F5
:102C30001003002B04D0074B5B689B6A054898473C
:102C4000FDF766FEFDF72CFC03B05DF804FB00BF4A
:102C5000002C014034130020AFF30080AFF300805C
:102C600008B50348FFF75CF8014B024A1A6108BD3A
:102C700034130020002C0140AFF30080AFF300803C
:102C800000B585B00190019B1B78012B28D1019ADA
:102C90007B4B9A4219D17B4B7A4A926942F400628B
:102CA0009A61784B774AD26842F40072DA60754BC9
:102CB0000022DA6019207021FDF76AFC1B207021C8
:102CC000FDF766FC019B704ADA60019B1B6946F6C2
:102CD00068029A61019B1B6946F66802DA6123E08B
:102CE000019B1B6900221A60019B1B69019A5268B3
:102CF000126B22F0FF02DA60019B1B6900221A614D
:102D0000019B1B6900225A63019B1B6900229A6385
:102D1000019B1B690022DA63019B1B6900221A6474
:102D2000019B1B6900225A62019BDA68019B5B6868
:102D30001B68B2FBF3F3013B0293029BB3F5803FA8
:102D40000AD2029B0133019A5268126802FB03F215
:102D5000019BDB689A4202D04C48FDF771FE019B53
:102D60001B69029A92B29A62019B1B69019A1289AD
:102D7000013A92B2DA62019B1B69019A5268D26AE7
:102D80005A600023ADF80E30019B5B68DB6803F0EE
:102D90000F03012B07D0022B0BD1BDF80E3043F0EF
:102DA0000203ADF80E30BDF80E3043F00103ADF86C
:102DB0000E30019B5B685B6903F00F03012B07D0AA
:102DC000022B0BD1BDF80E3043F02003ADF80E30CE
:102DD000BDF80E3043F01003ADF80E30019B5B6878
:102DE000DB6903F00F03012B07D0022B0BD1BDF8D9
:102DF0000E3043F40073ADF80E30BDF80E3043F4DE
:102E00008073ADF80E30019B5B685B6A03F00F03C3
:102E1000012B07D0022B0BD1BDF80E3043F4005329
:102E2000ADF80E30BDF80E3043F48053ADF80E30DF
:102E3000019B1B69BDF80E201A62019B1B690122D0
:102E40005A61019B1B69019A1269D168019A526803
:102E50009268002A0CBF00220122D2B20A43DA6033
:102E6000019B1B6900221A61019B1B694FF4004200
:102E70005A64019B1B6985221A6005B05DF804FB4A
:102E800034130020001002400051250210A6000853
:102E900084B0019013460A468DF80320ADF8003047
:102EA000019B19699DF80330BDF800200C339B008D
:102EB0000B445A60019B5A689DF803300133DB00D4
:102EC00013449B68002B21D0019B1B69DB68039393
:102ED0009DF80330022202FA03F31A46039B1340C3
:102EE000002B13D1019B1B699DF80320022101FADD
:102EF00002F21146039A0A43DA60019B1B699DF8AE
:102F00000320022101FA02F2D2431A6104B0704791
:102F100082B001900B468DF80330019B1A699DF831
:102F200003300C339B00134400225A60019B1B6941
:102F3000019A1269D1689DF80320022000FA02F27A
:102F4000D2430A40DA6002B0704700BFAFF300809E
:102F500082B0044B0193019B1B68DBB2184602B0A0
:102F6000704700BFE8F7FF1FAFF30080AFF30080AA
:102F700000B585B001900B468DF80330202383F314
:102F80001188FDF775FC9DF80320019B043253F86E
:102F9000223003939DF80320019B0432002143F863
:102FA0002210039B5B7FC3F30603DBB2002B1FDD04
:102FB000039B5B7FC3F30603DBB27F3303F07F0326
:102FC000D9B2039A537F61F306035377039BD3F877
:102FD000193003F10802039BC3F81920019B0C333D
:102FE0001846039900F05CFA039B03221A710CE067
:102FF000039B02221A71039BD3F80530002B04D0E7
:10300000039BD3F8053003989847019800F0C0FA65
:10301000FDF746FC002383F3118805B05DF804FB3F
:1030200000B585B001900B468DF80330202383F363
:103030001188FDF71DFC9DF80320019B043253F815
:10304000223003939DF80320019B0432002143F8B2
:103050002210039B002B00D1FEE7019B0C33184686
:10306000039900F01DFA039B03221A71019800F0E6
:103070008FFAFDF715FC002383F3118805B05DF886
:1030800004FB00BFAFF30080AFF30080AFF300801C
:1030900000B585B001900B468DF80330202383F3F3
:1030A0001188FDF7E5FB9DF80320019B043253F8DE
:1030B000223003939DF80320019B0432002143F842
:1030C0002210039B002B00D1FEE7039B05221A71FF
:1030D000039BD3F80530002B04D0039BD3F80530B5
:1030E00003989847019800F053FAFDF7D9FB0023A5
:1030F00083F3118805B05DF804FB00BFAFF30080D7
:1031000000B58BB00190202383F31188FDF7B0FB4D
:1031100003AB0198194600F07BFC9DF81130019A31
:1031200006339B0013445B680893089B002B05D172
:10313000FDF7B6FB002383F31188FEE7089B1B799C
:10314000022B2ED1089B04221A71089BD3F815205C
:10315000089BC3F81920039BC3F31C03DB119AB22D
:10316000089BA3F81120089BB3F813309BB2082BDF
:1031700012D9089BB3F813309BB2013B002B00DA45
:103180000733DB10DBB203F07F03D9B2089A537F19
:1031900061F30603537704E0089A537F6FF3060345
:1031A0005377089B1B79042B6FD1039BC3F31C033C
:1031B000DB118DF81F30089BB3F811309BB28DF8EE
:1031C0001E309DF81F209DF81E309A4205D0FDF755
:1031D00067FB002383F3118865E0039BC3F31C03A3
:1031E000DBB203F07F038DF81D30089B5B7FC3F3D8
:1031F0000603DBB29DF81D209A4208D0089B0222EC
:103200001A71FDF74DFB002383F311884BE0002377
:1032100009930EE0089BD3F81930591C089AC2F89C
:10322000191005A9099A0A4412781A70099B0133EA
:1032300009939DF81030C3F30303DBB21A46099BD0
:103240009A42E7D8089B5B7FC3F30603DBB2002BEF
:103250000EDD089B5B7FC3F30603DBB27F3303F015
:103260007F03D9B2089A537F61F3060353770CE0CA
:10327000089BD3F80530002B07D0089B01221A7158
:10328000089BD3F8053008989847089B1B79062BB4
:1032900004D1089BD3F8053008989847FDF700FB48
:1032A000002383F311880BB05DF804FBAFF30080BB
:1032B00008B500F015FB08BDAFF30080AFF3008048
:1032C00000B585B00190019B01221A70019B00227C
:1032D0005A65019B0C33184600F0DAF8002303937B
:1032E00008E0019B039A0432002143F82210039B5B
:1032F00001330393039B022BF3DD0023039309E0C7
:10330000019A039B06339B00134400225A60039BDF
:1033100001330393039B0D2BF2DD05B05DF804FB35
:1033200000B583B001900091019B002B05D1009B5B
:10333000002B02D11648FDF783FB202383F311886D
:10334000FDF766FA019B1B78012B02D01148FDF7AF
:1033500077FB019B1B78012B08D1019B009A5A65D2
:10336000019800F0CDFA019B02221A70019B052200
:103370001A70FDF765FA002383F3118801E000F06D
:103380007FF8019B1B78042BF9D003B05DF804FB98
:1033900030A6000840A60008AFF30080AFF300801D
:1033A00000B585B0039002910192029B01221A712F
:1033B0001C4BDA68019B1A44029BC3F80D20029B48
:1033C000B3F813309BB2082B12D9029BB3F8133019
:1033D0009BB2013B002B00DA0733DB10DBB203F0BA
:1033E0007F03D9B2029A537F61F30603537704E057
:1033F000029A537F6FF306035377029BD3F815208D
:10340000029BC3F81920039B0C331846029900F065
:1034100047F8029B03221A71039800F0B9F805B02F
:103420005DF804FB38120020AFF30080AFF300809A
:1034300000B587B0039002910192202383F3118895
:10344000FDF7E6F9029BB3F811309BB2DB01194698
:10345000019B9BB2DA010DF11703039800F060FBAA
:103460009DF81730039A06339B001344029A5A6062
:10347000FDF7E6F9002383F3118807B05DF804FB3C
:10348000704700BFAFF30080AFF30080AFF3008060
:1034900082B00190019B019A1A6002B0704700BF90
:1034A00000B585B001900091019B0393019B002B17
:1034B00002D0009B002B03D10F48FDF7C1FA0CE0AE
:1034C0000BE0039BD3F80D20009BD3F80D309A42FC
:1034D00000D907E0039B1B680393039B1A68019BB9
:1034E0009A42EED1039B1A68009B1A60039B009AD4
:1034F0001A6005B05DF804FB80A60008AFF30080F9
:1035000000B585B00190019B002B02D10B48FDF75F
:1035100097FA019B1A68019B9A4202D10848FDF76D
:103520008FFA019B1B680393039B1A68019B1A6027
:10353000039B184605B05DF804FB00BFC0A6000859
:10354000D4A60008AFF30080AFF30080AFF3008093
:1035500084B00190019BD3F80D200A4BDB68D31A8D
:103560000393039B002B02DB039B402B01DD3F23D6
:1035700004E0039BDBB203F03F03DBB2184604B068
:10358000704700BF38120020AFF30080AFF3008017
:1035900000B589B00190019B03F10C02019BDB682F
:1035A0009A4201D1002370E0019800F0E9F9034646
:1035B00083F00103DBB2002B01D0002365E0019B07
:1035C0001B69002B01D000235FE0019B0C331846E0
:1035D000FFF796FF07900798FFF7BAFF0346DA0553
:1035E000079BB3F811309BB2DB011A43079B5B7F4B
:1035F000C3F30603DBB203F07F03134323F06042FF
:10360000039B62F31C030393079B5B7FC3F30603D7
:10361000DBB2002B07DD9DF81030082262F30303B4
:103620008DF8103016E0079BD3F81520079BB3F8F0
:1036300013309BB213441A46079BD3F81930D31AA0
:10364000DBB203F00F03DAB29DF8103062F303032C
:103650008DF81030079BD3F819301B680593079B32
:10366000D3F819305B68069303AB0198194600F054
:1036700097F99DF811301A46019B0432079943F8D7
:103680002210079B04221A710123184609B05DF825
:1036900004FB00BFAFF30080AFF30080AFF3008006
:1036A00000B585B00190019BDB6D0393039B9B6884
:1036B0000293039B2A4A9A60029B03F00203002BA9
:1036C00003D001980021FFF753FC029B03F4007321
:1036D000002B03D001980121FFF74AFC029B03F461
:1036E0000033002B03D001980221FFF741FC029B1D
:1036F00003F00403002B03D001980021FFF790FC96
:10370000029B03F48063002B03D001980121FFF793
:1037100087FC029B03F48023002B03D00198022135
:10372000FFF77EFC029B03F00803002B03D00198F7
:103730000021FFF7ADFC029B03F40063002B03D0D4
:1037400001980121FFF7A4FC029B03F40023002B46
:1037500003D001980221FFF79BFC05B05DF804FB44
:1037600001010100AFF30080AFF30080AFF30080F0
:1037700000B585B00190019BDB6DDB680393039B73
:1037800003F00303002B0AD0019BDB6D019AD26D7D
:10379000526922F002025A610198FFF7B1FC039BC3
:1037A00003F01003002B03D0019BDB6D1022DA60C5
:1037B00005B05DF804FB00BFAFF30080AFF30080FD
:1037C00084B00190019BDB6D1B690393039B03F0A5
:1037D0000303002B07D0019BDB6D019AD26D526968
:1037E00022F010025A61039B03F01003002B03D058
:1037F000019BDB6D10221A6104B07047AFF30080AB
:1038000086B00190019BDB6D5B680593019BDB6DCE
:103810001C225A60059B03F00403002B18D0019B67
:10382000DB6D9B690493019BDB6D019AD26D9269FC
:1038300022F070029A61049B03F007030393049B38
:1038400003F07003002B03D0039B43F008030393A2
:1038500006B07047AFF30080AFF30080AFF3008095
:1038600008B5FDF735F80448FFF71AFFFDF750F8E3
:10387000FCF716FE08BD00BF48130020AFF3008020
:1038800008B5FDF725F80448FFF772FFFDF740F88B
:10389000FCF706FE08BD00BF48130020AFF3008010
:1038A00008B5FDF715F80448FFF78AFFFDF730F873
:1038B000FCF7F6FD08BD00BF48130020AFF3008001
:1038C00008B5FDF705F80448FFF79AFFFDF720F863
:1038D000FCF7E6FD08BD00BF48130020AFF30080F1
:1038E00008B5034B034ADA650148FFF7E9FC08BD58
:1038F0004813002000640040AFF30080AFF3008065
:1039000000B583B001901320B021FCF741FE1420D4
:10391000B021FCF73DFE1520B021FCF739FE162042
:10392000B021FCF735FE124B114AD26942F0007209
:10393000DA61019B02221A70019BDB6D01221A6081
:1039400000BF019BDB6D5B6803F00103002BF8D027
:10395000019BDB6D074ADA61019BDB6D90221A60E7
:10396000019BDB6D044A5A6103B05DF804FB00BFA4
:1039700000100240030024005B8F0100AFF30080C1
:1039800082B00190019BDB6D9B6803F0E053B3F1C3
:10399000E05F14BF00230123DBB2184602B070477A
:1039A00084B001900091019BDB6D0393009B00228A
:1039B0005A71009B5B7918331B01039A13440293DD
:1039C000009B1B68C3F31C03DB0043F00402029B53
:1039D0001A60009B1B79C3F30303DBB21A46029BF8
:1039E0005A60009B9A68029B9A60009BDA68029B6F
:1039F000DA60029B1B6843F00102029B1A6004B06C
:103A0000704700BFAFF30080AFF30080AFF30080DA
:103A100084B001900091019BDB6D0393039BDB68F5
:103A200003F00303002B37D0039BD3F8B031DB083E
:103A300023F06041009A136861F31C031360039B39
:103A4000D3F8B431DBB203F00F03D9B2009A137983
:103A500061F303031371039BD3F8B821009B9A60B1
:103A6000039BD3F8BC21009BDA60039BD3F8B431ED
:103A70001B0ADAB2009B5A71039B2022DA60039B77
:103A8000DB6803F00303002B43D1039B5B6943F026
:103A90000202039B5A613CE0039B1B6903F0030392
:103AA000002B36D0039BD3F8C031DB0823F06041F4
:103AB000009A136861F31C031360039BD3F8C431AD
:103AC000DBB203F00F03D9B2009A137961F3030359
:103AD0001371039BD3F8C821009B9A60039BD3F812
:103AE000CC21009BDA60039BD3F8C4311B0ADAB205
:103AF000009B5A71039B20221A61039B1B6903F0F0
:103B00000303002B05D1039B5B6943F01002039B69
:103B10005A6104B0704700BFAFF30080AFF300807C
:103B200088B00390029101920093039BDB6D079391
:103B3000304B1B681B2B59D82E4B1B684833DB00BE
:103B4000079A134406932B4B1B68012202FA03F3D6
:103B50000593079BD3F8003243F00102079BC3F89B
:103B60000022079BD3F81C22059BDB431A40079BCE
:103B7000C3F81C22079BD3F80422059BDB431A40A1
:103B8000079BC3F80422079BD3F80C22059B1A431A
:103B9000079BC3F80C22079BD3F80422059BDB4349
:103BA0001A40079BC3F80422029BDA00069B1A60A6
:103BB000019BDA00069B5A60079BD3F81C22059BE9
:103BC0001A43079BC3F81C22079BD3F8003223F04B
:103BD0000102079BC3F80022064B1B68591C054ACB
:103BE0001160DAB2009B1A70012300E0002318462E
:103BF00008B07047A8130020AFF30080AFF3008037
:103C000008B5FEF755FB08BDAFF30080AFF30080A9
:103C1000704700BFAFF30080AFF30080AFF30080C8
:103C200008B5FCF7EDFB08BDAFF30080AFF30080F3
:103C300008B500F0CDF808BDAFF30080AFF3008009
:103C400082B00190019B01221A70019B00225A80D0
:103C5000019B00225A6002B0704700BFAFF30080A2
:103C600000B583B001900091019B002B02D0009B16
:103C7000002B02D11148FCF7E3FE202383F31188C7
:103C8000FCF7C6FD019B1B78012B06D0019B1B781E
:103C9000022B02D00A48FCF7D3FE019B009A5A601F
:103CA000019800F0A5F8019B02221A70FCF7C8FDEC
:103CB000002383F3118803B05DF804FBF0A600082D
:103CC00000A70008AFF30080AFF30080AFF30080DF
:103CD00000B583B00190019B002B02D10E48FCF788
:103CE000AFFE202383F31188FCF792FD019B1B7824
:103CF000022B02D00948FCF7A3FE019800F0E8F877
:103D0000019B03221A70FCF79BFD002383F31188AB
:103D100003B05DF804FB00BF2CA700083CA7000817
:103D200000B585B00190202383F31188FCF770FD66
:103D3000019800F015F80346ADF80E30FCF780FD51
:103D4000002383F31188BDF80E301BB2184605B06E
:103D50005DF804FBAFF30080AFF30080AFF30080A9
:103D600000B585B00190FCF7F3FD019B002B02D15B
:103D70001248FCF765FE019B1B78022B06D0019BC5
:103D80001B78032B02D00E48FCF75AFE019B9B6860
:103D90005B6AADF80E30019B5B88BDF80E20D31A2C
:103DA0009BB2ADF80C30019BBDF80E205A80BDF8D7
:103DB0000C301BB2184605B05DF804FB70A7000874
:103DC00080A70008AFF30080AFF30080AFF300805E
:103DD00008B50348FFF734FF014B024A9A6008BD5B
:103DE000B013002000080040AFF30080AFF3008064
:103DF00082B00190019B1B78012B12D1019A324BAA
:103E00009A420ED1314B314AD26942F00402DA6152
:103E10002E4B2E4A126942F004021A612B4B0022EB
:103E20001A61019B9B6800221A60019B9B6800221B
:103E30005A60019B9B6800229A62019B9B6800224A
:103E4000DA60019B9B684FF6FF72DA62019B9A6809
:103E5000019B9B689B6943F4807343F0010393616A
:103E6000019B5B681B78012B13D0022B16D0002B13
:103E700000D018E0019B5B685B78012B04D1019BAB
:103E80009B6803229A600EE0019B9B6801229A6066
:103E900009E0019B9B6801229A6004E0019B9B68FA
:103EA00002229A6000BF019B5B689B78012B04D1C2
:103EB000019B9B6813221A6203E0019B9B681122FD
:103EC0001A6202B0704700BFB01300200010024019
:103ED00082B00190019B9B6801221A6002B070477A
:103EE00082B00190019B184602B07047AFF300808A
:103EF00008B5202383F31188FCF78AFC08BD00BFB6
:103F000008B5FCF79DFC002383F3118808BD00BFB2
:103F100008B5FFF7EDFF08BDAFF30080AFF30080F9
:103F200008B5FFF7EDFF08BDAFF30080AFF30080E9
:103F300000B583B001900198FFF7D2FF019B0022EA
:103F40001A60019B00225A60019B184603B05DF87D
:103F500004FB00BFAFF30080AFF30080AFF300803D
:103F600082B00190019B184602B07047AFF3008009
:103F700000B583B00190019B1B889BB21A461023A9
:103F8000013B012101FA03F3013B9A4202DB06489F
:103F9000FCF756FD019B1B889BB201339AB2019B33
:103FA0001A8003B05DF804FB90A70008AFF300800F
:103FB00000B583B00190019B1B889BB2002B02D1FE
:103FC0000A48FCF73DFD019B1B889BB2013B9AB25E
:103FD000019B1A80019B1B889BB2002B0CBF002306
:103FE0000123DBB2184603B05DF804FB90A700087C
:103FF00000B583B001900091009B002B04D0019B81
:1040000018460099FDF7F4FD03B05DF804FB00BF0E
:1040100000B583B001900091009B002B04D0019B60
:1040200018460099FDF704FE03B05DF804FB00BFDD
:1040300000B583B001900091019B083318460099A8
:10404000FFF7D6FF03B05DF804FB00BFAFF30080BD
:1040500000B583B001900091019B08331846009988
:10406000FFF7D6FF03B05DF804FB00BFAFF300809D
:1040700010B584B001900091019B5B68002B02D1C8
:104080001448FCF7DDFC0098FFF772FF019B5C68A9
:1040900002AB184605F0C4F902AB204600991A4657
:1040A00003F09EFC03468DF80F300098FFF780FF69
:1040B000034683F00103DBB2002B05D0019B5B6854
:1040C00018460099FFF7B4FF9DF80F30184604B06A
:1040D00010BD00BF90A70008AFF30080AFF30080D1
:1040E00000B585B001900091019B5B68002B02D167
:1040F0001E48FCF7A5FC009800F01AFC02AB18461D
:1041000005F08EF9019B5A6802AB104600991A46D9
:1041100003F0BEFC03468DF80F30019B5A6802ABDA
:10412000104600991A4603F0FBFC0346002B05D00D
:104130009DF80F30002B01D0012300E000238DF803
:104140000F30009800F004FC034683F00103DBB25B
:10415000002B05D0019B5B6818460099FFF778FF9C
:104160009DF80F30184605B05DF804FB90A70008D5
:1041700000B583B001900198FFF7B2FE019B054A9C
:104180001A60019B00225A60019B184603B05DF83B
:1041900004FB00BF78AA0008AFF30080AFF30080F3
:1041A00000B583B00190019B074A1A600198FFF7A0
:1041B000D7FE0023002B02D0019805F089F9019B5E
:1041C000184603B05DF804FB78AA0008AFF300803E
:1041D00082B00190019B1B68184602B0704700BF77
:1041E00000B583B001900091009B002B0DD0019889
:1041F000FFF7EEFF034618460099102205F018FF5E
:104200000346002B01D1012300E00023184603B030
:104210005DF804FBAFF30080AFF30080AFF30080E4
:1042200000B583B001900091019B5B68002B02D127
:104230000C48FCF705FC0098FFF7BAFE034683F034
:104240000103DBB2002B07D0019B5B681846009985
:10425000FFF7EEFE002300E00123184603B05DF8EF
:1042600004FB00BFA0A70008AFF30080AFF30080FD
:1042700000B583B001900091019B5B68002B02D1D7
:104280000C48FCF7DDFB009800F062FB034683F06E
:104290000103DBB2002B07D0019B5B681846009935
:1042A000FFF7D6FE002300E00123184603B05DF8B7
:1042B00004FB00BFA0A70008AFF30080AFF30080AD
:1042C00000B583B001900198FFF70AFE019B054AF3
:1042D0001A60019B00225A60019B184603B05DF8EA
:1042E00004FB00BF88AA0008AFF30080AFF3008092
:1042F00000B583B00190019B074A1A600198FFF74F
:104300002FFE0023002B02D0019805F0E1F8019B5D
:10431000184603B05DF804FB88AA0008AFF30080DC
:1043200000B583B001900091019B5B68184600992D
:10433000FFF756FF0346184603B05DF804FB00BFC5
:1043400000B583B001900198FFF7CAFD019B0433CB
:104350001846FFF7EDFD019B184603B05DF804FB1E
:1043600000B583B00190019B1846FFF7E9FF019B60
:10437000184603B05DF804FBAFF30080AFF3008094
:1043800000B583B00190019B1846FFF7F1FE019B39
:10439000064A1A60019B08331846019900F020F87C
:1043A000019B184603B05DF804FB00BFB8AA0008E3
:1043B00000B583B00190019B084A1A60019B184622
:1043C000FFF7EEFE0023002B02D0019805F080F8E5
:1043D000019B184603B05DF804FB00BFB8AA0008B3
:1043E00082B001900091019B00221A60019B009A0B
:1043F0005A60019B184602B0704700BFAFF30080BF
:1044000082B001900091009B1A68019B1A60019B89
:10441000184602B0704700BFAFF30080AFF30080D2
:1044200082B00190019B1B68184602B0704700BF24
:1044300000B583B001900091019B1B68002B10D048
:104440002022009B9A4202D80748FCF7F9FA019B08
:104450001A68009B012101FA03F310461946FDF783
:1044600067F903B05DF804FBB0A70008AFF3008064
:1044700000B583B00190019B1846FFF7D1FF0346BA
:10448000184603B05DF804FBAFF30080AFF3008083
:1044900000B583B001900091019B18460099FFF789
:1044A000C7FF03B05DF804FBAFF30080AFF30080FB
:1044B00000B583B00190019B0C331846FFF7D8FF7D
:1044C0000346002B0CBF00230123DBB2184603B0C8
:1044D0005DF804FBAFF30080AFF30080AFF3008022
:1044E00000B583B001900091019B0C3318460099F0
:1044F000FFF7CEFF03B05DF804FB00BFAFF3008011
:1045000000B583B00190019B1033184600F048F9C4
:104510000346184603B05DF804FB00BFAFF300800C
:1045200000B587B0039002910192039B10331846A7
:10453000029900F03DF90346002B0AD005AB18465E
:1045400004F06EFF05AB01981946FFF759FF0123F0
:1045500000E00023184607B05DF804FBAFF30080CD
:1045600000B585B0039002910192039B9B681846A9
:10457000FFF79EFF0346002B0AD0039B103318461B
:10458000029900F045F90346002B01D0012300E019
:104590000023002B0AD0039B9A68039B93F82430D6
:1045A00010461946FFF79CFF012300E00023184640
:1045B00005B05DF804FB00BFAFF30080AFF30080EF
:1045C00000B583B001900091FFF7A2FC019B10336E
:1045D0001846009900F0ECF80346002B03D0FFF7D3
:1045E0009FFC012302E0FFF79BFC0023184603B069
:1045F0005DF804FBAFF30080AFF30080AFF3008001
:1046000000B587B0039002910192FFF781FC039BF4
:1046100010331846029900F0CBF80346002B0CD05B
:10462000FFF77EFC05AB184604F0FAFE05AB0198D7
:104630001946FFF7E5FE012302E0FFF771FC0023B6
:10464000184607B05DF804FBAFF30080AFF30080BD
:1046500000B585B0039002910192FFF759FC039BCE
:1046600010331846029900F0D3F80346002B0CD003
:10467000039B9A68039B93F8243010461946FFF772
:104680002FFFFFF74DFC012302E0FFF749FC002359
:10469000184605B05DF804FBAFF30080AFF300806F
:1046A00000B583B001900198FFF75AFC019B1846B2
:1046B00003B05DF804FB00BFAFF30080AFF30080F0
:1046C00000B583B00190019B1846FFF7E9FF019BFD
:1046D000184603B05DF804FBAFF30080AFF3008031
:1046E00000B585B00390029101920093039B184698
:1046F000FFF7E6FD039B184A1A60039B00229A60AD
:10470000039B009ADA60039B103318460299019AC2
:1047100000F0BEF8039BFF2283F82420039B28337C
:104720001846039900F0A4F8039B30331846039908
:1047300000F09EF8029B002B02D10848FCF780F99C
:10474000019B002B02D10548FCF77AF9039B184620
:1047500005B05DF804FB00BFC8AA0008B0A70008B8
:1047600000B583B00190019B0A4A1A60019B103387
:104770001846FFF7A5FF019B1846FFF7B9FD002378
:10478000002B02D0019804F0A3FE019B184603B051
:104790005DF804FBC8AA0008AFF30080AFF3008007
:1047A00082B00190019B5B68184602B0704700BF61
:1047B00082B001900091019B9B68002B23D0019B4C
:1047C0009B685A1E019B9A60019BDB681A68009BDC
:1047D0001A60019BDB681A1D019BDA60019BDA6895
:1047E000019B1968019B5B689B000B449A4234BF94
:1047F00000230123DBB2002B03D0019B1A68019B2D
:10480000DA60012300E00023184602B0704700BFC1
:1048100082B001900091019B9A68019B5B689A426B
:1048200022D2019B9B685A1C019B9A60019B1B69C9
:10483000009A1A60019B1B691A1D019B1A61019B5A
:104840001A69019B1968019B5B689B000B449A42A3
:1048500034BF00230123DBB2002B03D0019B1A6875
:10486000019B1A61012300E00023184602B0704743
:1048700082B001900091019B00221A60019B009A76
:104880005A60019B184602B0704700BFAFF300802A
:1048900000B585B0039002910192039B18460299DE
:1048A000019A00F005F8039B184605B05DF804FB7B
:1048B00000B585B00390029101920398FFF710FBB9
:1048C000039B029A1A60039B019A5A60039B002281
:1048D0009A60039B029ADA60039B029A1A61029B18
:1048E000002B02D10648FCF7ABF8019B002B02D14C
:1048F0000348FCF7A5F8039B184605B05DF804FBD8
:10490000C0A70008AFF30080AFF30080AFF30080D2
:1049100082B00190019B00221A7000225A7002B0EE
:10492000704700BFAFF30080AFF30080AFF30080AB
:1049300000B583B00190FFF7EBFA0198FFF718FB81
:10494000FFF7EEFA03B05DF804FB00BFAFF30080A1
:1049500000B585B00190FFF7DBFA0198FFF728FB5F
:1049600003468DF80F30FFF7DBFA9DF80F3018463D
:1049700005B05DF804FB00BFAFF30080AFF300802B
:1049800000B585B0039002910192019B022B02D2E7
:104990000848FCF755F8039B991C029B9A1C019B45
:1049A000023B084611461A46FBF7F2FB05B05DF8DC
:1049B00004FB00BFD0A70008AFF30080AFF3008076
:1049C00000B583B001900198FFF78AFAFFF7A0FACB
:1049D000019B184603B05DF804FB00BFAFF30080F5
:1049E00000B583B00190FFF79BFA0198FFF7B8FA82
:1049F000019B184603B05DF804FB00BFAFF30080D5
:104A000082B00190019B5B68184602B0704700BFFE
:104A100000B583B00190019B1846FDF7B9F8034635
:104A2000184603B05DF804FBAFF30080AFF30080DD
:104A300000B585B0039002910192039B184602993C
:104A4000019AFDF77DF805B05DF804FBAFF3008037
:104A500082B00190019B1B68044A82FB03129214EE
:104A6000DB17D31A184602B0704700BF83DE1B4322
:104A700082B00190019B00221A60019B184602B08F
:104A8000704700BFAFF30080AFF30080AFF300804A
:104A900082B001900091009B1A68019B1A60019BF3
:104AA000184602B0704700BFAFF30080AFF300803C
:104AB00000B583B001900091009B4FF47A7202FB25
:104AC00003F30198194601F04BFC019803B05DF81F
:104AD00004FB00BFAFF30080AFF30080AFF30080B2
:104AE00082B001900091019B1A68009B1B689A425A
:104AF000B4BF00230123DBB2184602B0704700BFE9
:104B000000B585B0039002910192029B1A68019B47
:104B10001B6813440398194601F022FC039805B062
:104B20005DF804FBAFF30080AFF30080AFF30080CB
:104B300000B585B0039002910192029B1A68019B17
:104B40001B68D31A0398194601F00AFC039805B0B4
:104B50005DF804FBAFF30080AFF30080AFF300809B
:104B600082B00190019B00221A7000225A70019BB2
:104B7000184602B0704700BFAFF30080AFF300806B
:104B800082B00190019B023B184602B0704700BF03
:104B900082B00190019B5B68184602B0704700BF6D
:104BA00000B583B001900091019B5B68002B02D09F
:104BB0000448FBF745FF019B009A5A6003B05DF87B
:104BC00004FB00BFE0A70008AFF30080AFF3008054
:104BD00000B583B001900091019B5B68002B02D16E
:104BE0000A48FBF72DFF019B5B68184600F0C8F9E7
:104BF0000246009B1A60009B1B68002B0CBF002321
:104C00000123DBB2184603B05DF804FBE0A70008FF
:104C100000B585B001900091FFF77AF901980099ED
:104C2000FFF7D6FF03468DF80F30FFF779F99DF8AF
:104C30000F30184605B05DF804FB00BFAFF30080ED
:104C400010B584B001900091019B5B68002B02D1EC
:104C50000948FBF7F5FE019B5C6803AB184604F0BE
:104C6000DFFB03AB204600991A4602F059FF0346CA
:104C7000184604B010BD00BFE0A70008AFF30080E5
:104C800082B00190019B5B68184602B0704700BF7C
:104C900000B583B001900091019B5B68002B02D0AE
:104CA0000448FBF7CDFE019B009A5A6003B05DF803
:104CB00004FB00BFE0A70008AFF30080AFF3008063
:104CC00000B589B005900491039202930A9B00936A
:104CD00005980499039A029BFCF72AFA0790079B10
:104CE000002B02D0079B0B9A9A61079B184609B0CC
:104CF0005DF804FBAFF30080AFF30080AFF30080FA
:104D0000014B9B691846704748120020AFF30080A2
:104D100000B583B00190019B1B68002B20DD019B37
:104D20001A68124B9A420FDC019B1B684FF47A728F
:104D300002FB03F35A1E0E4BA3FB02139B0C013321
:104D40001846FCF72DFA0DE00198FFF781FE0346A7
:104D50004FF47A7202FB03F31846FCF721FA01E0E4
:104D6000FCF75EFA03B05DF804FB00BF3F420F00A2
:104D700083DE1B43AFF30080AFF30080AFF300800E
:104D800000B587B00590049103920293089B0093AD
:104D9000099B019305980499039A029BFFF790FFE2
:104DA0000346184607B05DF804FB00BFAFF3008070
:104DB00008B5FFF7A5FF0346184608BDAFF300800E
:104DC00000B583B001900198FFF7A2FF03B05DF832
:104DD00004FB00BFAFF30080AFF30080AFF30080AF
:104DE00082B001900091019B009A1A6002B0704756
:104DF00000B583B001900091202383F31188FBF765
:104E000007FD01980099FFF713FBFBF719FD00233D
:104E100083F3118803B05DF804FB00BFAFF300809B
:104E200000B583B001900091019B18460099FFF7EF
:104E3000D7FF03B05DF804FBAFF30080AFF3008051
:104E400000B583B001900091019B18460099FFF7CF
:104E5000CFFF03B05DF804FBAFF30080AFF3008039
:104E600082B00190019B0433184602B0704700BF26
:104E700082B00190019B0833184602B0704700BF12
:104E800010B582B001900B468DF80330019B03F101
:104E90000C049DF80330002B03D0FFF789FF034675
:104EA00000E0002320461946FFF7BAFF02B010BD0C
:104EB00000B583B00190019B0C3318461F21FFF70A
:104EC000BFFF03B05DF804FBAFF30080AFF30080D9
:104ED00000B583B00190019B08331846FFF790FDA1
:104EE00003461846FFF74CFE0346184603B05DF82C
:104EF00004FB00BFAFF30080AFF30080AFF300808E
:104F000082B00190019B5B6A184602B0704700BFF7
:104F100082B00190019B5B69002B0CBF0023012331
:104F2000DBB2184602B07047AFF30080AFF30080E9
:104F300000B583B00190019B1C33184601F020FAA4
:104F4000034683F00103DBB2184603B05DF804FBAF
:104F500000B585B0039002910192029B0433039A3D
:104F6000104601991A46FFF7CBFD039805B05DF88E
:104F700004FB00BFAFF30080AFF30080AFF300800D
:104F800010B582B00190019B08331846FFF740FD31
:104F90000446002C04D02046FFF7BAFC234600E06C
:104FA0000023184602B010BDAFF30080AFF30080BD
:104FB00000B587B0039002910192FEF7A9FF04AB00
:104FC00018460299019AFFF7C3FF04AB0593FEF759
:104FD000A7FF03980599FFF75BFD039807B05DF8FD
:104FE00004FB00BFAFF30080AFF30080AFF300809D
:104FF00000B585B00190009103AB184604F010FA9B
:10500000019A03AB104600991A46FFF7D1FF0198A9
:1050100005B05DF804FB00BFAFF30080AFF3008084
:1050200000B585B0039002910192039B08331846A6
:105030000299019AFFF7FCFC05B05DF804FB00BF84
:1050400000B583B00190019B1846FCF7E1F903B06D
:105050005DF804FBAFF30080AFF30080AFF3008096
:1050600000B583B00190019B1846FCF701FA03B02C
:105070005DF804FBAFF30080AFF30080AFF3008076
:1050800000B583B00190FCF7EBFA03B05DF804FBC8
:1050900000B583B001900B468DF803300198FEF700
:1050A0001FFF9DF80330002B02D00198FFF7C8FFC7
:1050B000019B184603B05DF804FB00BFAFF300800E
:1050C00000B583B00190019B04331846FFF7B8FF89
:1050D00003B05DF804FB00BFAFF30080AFF30080C6
:1050E00000B583B00190019B04331846FFF7B8FF69
:1050F00003B05DF804FB00BFAFF30080AFF30080A6
:1051000000B583B00190019B04331846FFF7B8FF48
:1051100003B05DF804FB00BFAFF30080AFF3008085
:1051200000B583B001900B468DF803300198FEF76F
:10513000D7FE019B1A1D9DF8033010461946FFF754
:10514000A7FF019B184603B05DF804FBAFF3008096
:1051500000B583B00190019B00221A60019B0433CB
:105160001846FFF7ADFF03B05DF804FBAFF3008016
:1051700000B583B00190019B1B685A1C019B1A600B
:10518000019B1B68012B14BF00230123DBB2002B02
:1051900004D0019B04331846FFF7A2FF03B05DF86B
:1051A00004FB00BFAFF30080AFF30080AFF30080DB
:1051B00000B583B00190019B1B68002B02D10C4805
:1051C000FBF73EFC019B1B685A1E019B1A60019B6A
:1051D0001B68002B14BF00230123DBB2002B04D07B
:1051E000019B04331846FFF78BFF03B05DF804FB07
:1051F000E0A70008AFF30080AFF30080AFF30080BA
:1052000000B583B00190FEF783FE0198FFF7B0FF71
:10521000FEF786FE03B05DF804FB00BFAFF300802D
:1052200000B583B00190FEF773FE0198FFF7C0FF51
:10523000FEF776FE03B05DF804FB00BFAFF300801D
:1052400000B583B001900B468DF803300198FEF74E
:1052500047FE019B00221A60019B1A1D9DF8033036
:1052600010461946FFF75CFF019B184603B05DF836
:1052700004FB00BFAFF30080AFF30080AFF300800A
:1052800082B00190019B93F85832184602B07047E3
:1052900000B585B00390029101920093029B002B10
:1052A00002D11148FBF7CCFB019B002B02D10E4829
:1052B000FBF7C6FB039B10331846FFF749FF039B20
:1052C000029A9A65039B019ADA65039B009A5A66D3
:1052D000039B03F10802039B50331046194601F06B
:1052E0005FF805B05DF804FBE0A70008AFF30080AD
:1052F00000B587B00390039B996D039BDA6D039B08
:105300005B6E0020009021480190084611461A4625
:105310001F4BFFF735FD0246039B1A66039B1B6E6E
:10532000002B02D11B48FBF78BFBFEF7F1FD0DE0D4
:10533000FEF7F6FD05AB18464FF4FA71FFF7B8FB20
:1053400005AB1846FFF73CFDFEF7E2FD039B283353
:105350001846FFF7DDFD034683F00103DBB2002BA7
:105360000AD1039B28331846FFF7E2FD034683F07A
:105370000103DBB2002B01D0012300E00023002B4E
:10538000D6D1FEF7CDFD07B05DF804FBF0A700080D
:1053900041630008E0A70008AFF30080AFF300808E
:1053A00010B588B0019005AB1846FFF709FB019BCB
:1053B00093F8583283F00103DBB2002B05D0019B38
:1053C000012283F85822012401E0002400BF05AB2C
:1053D0001846FFF705FB012C42D100BF019B0433A7
:1053E00004AA1046194600F0EBFF0BE004AB184688
:1053F00001F02EF803461846FFF75AFD04AB184695
:1054000001F00EF8019B043306AA1046194600F07D
:10541000E7FF04AA06AB1046194600F0F1FF034669
:10542000002BE3D107AB18464FF4FA71FFF740FBAE
:1054300007AB1846FFF7C4FC03AB1846FFF7C0FAEA
:10544000019BD3F85C32002B01D1002400E0012441
:1054500003AB1846FFF7C4FA012C01D100BFBDE72A
:1054600008B010BDAFF30080AFF30080AFF3008051
:1054700000B583B001900091FEF74AFD019B1A1D13
:10548000009B14331046194600F0FAFF019BD3F835
:105490005C325A1C019BC3F85C22FEF741FD03B04D
:1054A0005DF804FBAFF30080AFF30080AFF3008042
:1054B00000B583B001900091019B03F10C02009BA9
:1054C00038331046194601F003F803B05DF804FBC9
:1054D00030B589B00390029101920093039B103381
:1054E0001846FFF78DFE039801990C9A00F0C8F951
:1054F0000790079B002B01D100245CE0029B18461B
:105500000799FFF74DFB07980299009A02F0D0FB2C
:10551000039B10331846FFF783FE039B03F1280219
:10552000079B9A4246D005AB1846FFF749FA039B02
:1055300084331846FFF72CFB0346002B14BF0023CF
:105540000123DBB2002B02D00124002500E001255D
:1055500005AB1846FFF744FA012D00D02BE000BF41
:10556000039B03F1840206AB1046194600F078FF56
:105570000346002B00D11DE0069B212283F8212049
:10558000069B9C1C0798FEF723FE034620461946FF
:10559000102204F0ADFD069C0798FFF799FC034626
:1055A0009BB26382039B03F18402069B104619465B
:1055B000FFF746FB01242346184609B030BD00BF63
:1055C00000B587B00390029101920093039B1033C2
:1055D0001846FFF715FE03980199089A00F050F954
:1055E0000590059B002B01D100230FE0029B18467C
:1055F0000599FFF7D5FA05980299009A02F078FB11
:10560000039B10331846FFF70BFE0123184607B023
:105610005DF804FBAFF30080AFF30080AFF30080D0
:1056200030B58BB00390029101920093039B10332D
:105630001846FFF7E5FD039801990F9A00F020F94D
:105640000990099B002B01D1002480E00998009962
:105650000E9AFFF7E5FC029B18460999FFF718FB25
:10566000099802990E9A02F063FB039B10331846C7
:10567000FFF7D6FD039B03F12802099B9A4265D0F0
:10568000039B0C3307AA1046194600F031FF4DE08A
:1056900005AB1846FFF794F9039B84331846FFF7D0
:1056A00077FA0346002B14BF00230123DBB2002B43
:1056B00002D00124002500E0012505AB1846FFF7C4
:1056C0008FF9012D00D042E000BF039B03F184025B
:1056D00006AB1046194600F0C3FE0346002B21D04E
:1056E000069B222283F82120069B9D1C0998FEF729
:1056F0006FFD034628461946102204F0F9FC069D6A
:105700000998FFF7E5FB03469BB26B82069B0E9A56
:1057100092B29A82039B03F18402069B10461946BB
:10572000FFF78EFA07AB184600F012FF039B0C330D
:1057300008AA1046194600F0EBFE07AA08AB10466F
:10574000194600F0F5FE0346002BA1D101242346A3
:1057500018460BB030BD00BFAFF30080AFF3008040
:1057600000B587B00390029101920093039B103320
:105770001846FFF745FD0398019900F061F8059080
:10578000059B002B02D10E48FBF75AF905980099AA
:10579000089AFFF745FC029B18460599FFF778FA2F
:1057A00005980299089A02F0E3FA039B1033184611
:1057B000FFF736FD0123184607B05DF804FB00BF74
:1057C000E0A70008AFF30080AFF30080AFF30080E4
:1057D00000B583B001900091FEF79AFB019BD3F8CE
:1057E0005C32002B02D11348FBF72AF9019B0433EA
:1057F0001846009900F0C4FE034683F00103DBB2B3
:10580000002B02D00B48FBF71BF9019BD3F85C324D
:105810005A1E019BC3F85C22019B1A1D009B143386
:105820001046194600F0C4FEFEF77AFB03B05DF89F
:1058300004FB00BFE0A70008AFF30080AFF30080D7
:1058400000B585B001900091019B10331846FFF719
:10585000D7FC019B083318460749009A00F0D8FE90
:105860000390019B10331846FFF7DAFC039B1846A0
:1058700005B05DF804FB00BFE1410008AFF3008014
:1058800010B586B0039002910192039B1033184625
:10589000FFF7B6FC03980299FFF7D2FF0590059B2E
:1058A000002B16D1302003F0E3FD04462046029978
:1058B000019A002302F0B4FA0594059B002B08D04E
:1058C000039B03F10802059B28331046194600F09C
:1058D00067FD039B10331846FFF7A2FC059B184693
:1058E00006B010BDAFF30080AFF30080AFF30080CF
:1058F00030B58FB00190FEF70BFB019B6833184663
:105900000121FFF7BDFAFEF70BFB019B03F16805D0
:10591000019B03F18404019B28331846FEF758FCD1
:105920000346284621461A46804B00F081FE019B23
:1059300003F16805019B03F19404019B2833184689
:10594000FEF746FC0246019BF4332846214600F050
:1059500087FE019B03F1840204AB1046194600F058
:105960007FFD0346002B2AD0049B184600F090FED2
:10597000049B112283F82120049B9A1C019B1B6825
:1059800010461946072204F0B3FBFEF7C1FA049C47
:105990000198FFF775FC0346002B01D0012200E0BF
:1059A0000022A37A62F30003A372FEF7B9FA019B07
:1059B00003F18402049B10461946FFF741F9019B4D
:1059C00003F1680405AB18462121FFF771F805AB18
:1059D0002046194601F0E4FB0346002B00F0A880A6
:1059E00003AB1846FFF744F891E0049B93F821308D
:1059F000123B112B00F2828001A252F823F000BF6B
:105A00009D5A0008CD5A0008FD5A0008FD5A0008AA
:105A1000FD5A0008FD5A0008FD5A0008FD5A00080A
:105A2000FD5A0008FD5A0008FD5A0008FD5A0008FA
:105A3000FD5A0008FD5A0008FD5A0008495A00089E
:105A4000655A0008815A0008049B0198194600F025
:105A500057FA019B03F19402049B1046194600F08B
:105A600037FE54E0049B0198194600F0D9FA019BD7
:105A700003F19402049B1046194600F029FE46E00B
:105A8000049B0198194600F073FB019B03F19402FB
:105A9000049B1046194600F01BFE38E0019B1A6873
:105AA000049B023310461946072204F0C1FA03464C
:105AB000002B02D10198FFF773FC019B03F19402C4
:105AC000049B1046194600F003FE20E0019B1A6873
